{
  "abi": [
    {
      "inputs": [
        {
          "internalType": "address",
          "name": "admin",
          "type": "address"
        }
      ],
      "stateMutability": "nonpayable",
      "type": "constructor"
    },
    {
      "inputs": [],
      "name": "AddressZero",
      "type": "error"
    },
    {
      "inputs": [],
      "name": "Forbidden",
      "type": "error"
    },
    {
      "inputs": [],
      "name": "InvalidPool",
      "type": "error"
    },
    {
      "inputs": [],
      "name": "InvalidValue",
      "type": "error"
    },
    {
      "inputs": [],
      "name": "ValueZero",
      "type": "error"
    },
    {
      "anonymous": false,
      "inputs": [
        {
          "indexed": true,
          "internalType": "address",
          "name": "origin",
          "type": "address"
        },
        {
          "indexed": true,
          "internalType": "address",
          "name": "sender",
          "type": "address"
        },
        {
          "indexed": false,
          "internalType": "uint256",
          "name": "liquidationFee",
          "type": "uint256"
        }
      ],
      "name": "LiquidationFeeChanged",
      "type": "event"
    },
    {
      "anonymous": false,
      "inputs": [
        {
          "indexed": true,
          "internalType": "address",
          "name": "origin",
          "type": "address"
        },
        {
          "indexed": true,
          "internalType": "address",
          "name": "sender",
          "type": "address"
        },
        {
          "indexed": false,
          "internalType": "uint256",
          "name": "liquidationPremium",
          "type": "uint256"
        }
      ],
      "name": "LiquidationPremiumChanged",
      "type": "event"
    },
    {
      "anonymous": false,
      "inputs": [
        {
          "indexed": true,
          "internalType": "address",
          "name": "origin",
          "type": "address"
        },
        {
          "indexed": true,
          "internalType": "address",
          "name": "sender",
          "type": "address"
        },
        {
          "indexed": false,
          "internalType": "address",
          "name": "pool",
          "type": "address"
        },
        {
          "indexed": false,
          "internalType": "uint256",
          "name": "liquidationRatio",
          "type": "uint256"
        }
      ],
      "name": "LiquidationThresholdSet",
      "type": "event"
    },
    {
      "anonymous": false,
      "inputs": [
        {
          "indexed": true,
          "internalType": "address",
          "name": "origin",
          "type": "address"
        },
        {
          "indexed": true,
          "internalType": "address",
          "name": "sender",
          "type": "address"
        },
        {
          "indexed": false,
          "internalType": "uint256",
          "name": "maxDebtPerVault",
          "type": "uint256"
        }
      ],
      "name": "MaxDebtPerVaultChanged",
      "type": "event"
    },
    {
      "anonymous": false,
      "inputs": [
        {
          "indexed": true,
          "internalType": "address",
          "name": "origin",
          "type": "address"
        },
        {
          "indexed": true,
          "internalType": "address",
          "name": "sender",
          "type": "address"
        },
        {
          "indexed": false,
          "internalType": "uint256",
          "name": "minSingleNftCapital",
          "type": "uint256"
        }
      ],
      "name": "MinSingleNftCapitalChanged",
      "type": "event"
    },
    {
      "anonymous": false,
      "inputs": [
        {
          "indexed": true,
          "internalType": "bytes32",
          "name": "role",
          "type": "bytes32"
        },
        {
          "indexed": true,
          "internalType": "bytes32",
          "name": "previousAdminRole",
          "type": "bytes32"
        },
        {
          "indexed": true,
          "internalType": "bytes32",
          "name": "newAdminRole",
          "type": "bytes32"
        }
      ],
      "name": "RoleAdminChanged",
      "type": "event"
    },
    {
      "anonymous": false,
      "inputs": [
        {
          "indexed": true,
          "internalType": "bytes32",
          "name": "role",
          "type": "bytes32"
        },
        {
          "indexed": true,
          "internalType": "address",
          "name": "account",
          "type": "address"
        },
        {
          "indexed": true,
          "internalType": "address",
          "name": "sender",
          "type": "address"
        }
      ],
      "name": "RoleGranted",
      "type": "event"
    },
    {
      "anonymous": false,
      "inputs": [
        {
          "indexed": true,
          "internalType": "bytes32",
          "name": "role",
          "type": "bytes32"
        },
        {
          "indexed": true,
          "internalType": "address",
          "name": "account",
          "type": "address"
        },
        {
          "indexed": true,
          "internalType": "address",
          "name": "sender",
          "type": "address"
        }
      ],
      "name": "RoleRevoked",
      "type": "event"
    },
    {
      "anonymous": false,
      "inputs": [
        {
          "indexed": true,
          "internalType": "address",
          "name": "origin",
          "type": "address"
        },
        {
          "indexed": true,
          "internalType": "address",
          "name": "sender",
          "type": "address"
        },
        {
          "indexed": false,
          "internalType": "address",
          "name": "token",
          "type": "address"
        },
        {
          "indexed": false,
          "internalType": "uint256",
          "name": "stagedLimit",
          "type": "uint256"
        }
      ],
      "name": "TokenLimitSet",
      "type": "event"
    },
    {
      "anonymous": false,
      "inputs": [
        {
          "indexed": true,
          "internalType": "address",
          "name": "origin",
          "type": "address"
        },
        {
          "indexed": true,
          "internalType": "address",
          "name": "sender",
          "type": "address"
        },
        {
          "indexed": false,
          "internalType": "address",
          "name": "pool",
          "type": "address"
        }
      ],
      "name": "WhitelistedPoolRevoked",
      "type": "event"
    },
    {
      "anonymous": false,
      "inputs": [
        {
          "indexed": true,
          "internalType": "address",
          "name": "origin",
          "type": "address"
        },
        {
          "indexed": true,
          "internalType": "address",
          "name": "sender",
          "type": "address"
        },
        {
          "indexed": false,
          "internalType": "address",
          "name": "pool",
          "type": "address"
        }
      ],
      "name": "WhitelistedPoolSet",
      "type": "event"
    },
    {
      "inputs": [],
      "name": "ADMIN_DELEGATE_ROLE",
      "outputs": [
        {
          "internalType": "bytes32",
          "name": "",
          "type": "bytes32"
        }
      ],
      "stateMutability": "view",
      "type": "function"
    },
    {
      "inputs": [],
      "name": "ADMIN_ROLE",
      "outputs": [
        {
          "internalType": "bytes32",
          "name": "",
          "type": "bytes32"
        }
      ],
      "stateMutability": "view",
      "type": "function"
    },
    {
      "inputs": [],
      "name": "DEFAULT_ADMIN_ROLE",
      "outputs": [
        {
          "internalType": "bytes32",
          "name": "",
          "type": "bytes32"
        }
      ],
      "stateMutability": "view",
      "type": "function"
    },
    {
      "inputs": [],
      "name": "DENOMINATOR",
      "outputs": [
        {
          "internalType": "uint256",
          "name": "",
          "type": "uint256"
        }
      ],
      "stateMutability": "view",
      "type": "function"
    },
    {
      "inputs": [],
      "name": "MAX_LIQUIDATION_FEE_RATE",
      "outputs": [
        {
          "internalType": "uint256",
          "name": "",
          "type": "uint256"
        }
      ],
      "stateMutability": "view",
      "type": "function"
    },
    {
      "inputs": [],
      "name": "MAX_NFT_CAPITAL_LIMIT_USD",
      "outputs": [
        {
          "internalType": "uint256",
          "name": "",
          "type": "uint256"
        }
      ],
      "stateMutability": "view",
      "type": "function"
    },
    {
      "inputs": [],
      "name": "MAX_PERCENTAGE_RATE",
      "outputs": [
        {
          "internalType": "uint256",
          "name": "",
          "type": "uint256"
        }
      ],
      "stateMutability": "view",
      "type": "function"
    },
    {
      "inputs": [],
      "name": "OPERATOR",
      "outputs": [
        {
          "internalType": "bytes32",
          "name": "",
          "type": "bytes32"
        }
      ],
      "stateMutability": "view",
      "type": "function"
    },
    {
      "inputs": [],
      "name": "TOKEN_DECIMALS",
      "outputs": [
        {
          "internalType": "uint256",
          "name": "",
          "type": "uint256"
        }
      ],
      "stateMutability": "view",
      "type": "function"
    },
    {
      "inputs": [
        {
          "internalType": "uint256",
          "name": "liquidationFee",
          "type": "uint256"
        }
      ],
      "name": "changeLiquidationFee",
      "outputs": [],
      "stateMutability": "nonpayable",
      "type": "function"
    },
    {
      "inputs": [
        {
          "internalType": "uint256",
          "name": "liquidationPremium",
          "type": "uint256"
        }
      ],
      "name": "changeLiquidationPremium",
      "outputs": [],
      "stateMutability": "nonpayable",
      "type": "function"
    },
    {
      "inputs": [
        {
          "internalType": "uint256",
          "name": "maxDebtPerVault",
          "type": "uint256"
        }
      ],
      "name": "changeMaxDebtPerVault",
      "outputs": [],
      "stateMutability": "nonpayable",
      "type": "function"
    },
    {
      "inputs": [
        {
          "internalType": "uint256",
          "name": "minSingleNftCapital",
          "type": "uint256"
        }
      ],
      "name": "changeMinSingleNftCapital",
      "outputs": [],
      "stateMutability": "nonpayable",
      "type": "function"
    },
    {
      "inputs": [
        {
          "internalType": "bytes32",
          "name": "role",
          "type": "bytes32"
        }
      ],
      "name": "getRoleAdmin",
      "outputs": [
        {
          "internalType": "bytes32",
          "name": "",
          "type": "bytes32"
        }
      ],
      "stateMutability": "view",
      "type": "function"
    },
    {
      "inputs": [
        {
          "internalType": "bytes32",
          "name": "role",
          "type": "bytes32"
        },
        {
          "internalType": "uint256",
          "name": "index",
          "type": "uint256"
        }
      ],
      "name": "getRoleMember",
      "outputs": [
        {
          "internalType": "address",
          "name": "",
          "type": "address"
        }
      ],
      "stateMutability": "view",
      "type": "function"
    },
    {
      "inputs": [
        {
          "internalType": "bytes32",
          "name": "role",
          "type": "bytes32"
        }
      ],
      "name": "getRoleMemberCount",
      "outputs": [
        {
          "internalType": "uint256",
          "name": "",
          "type": "uint256"
        }
      ],
      "stateMutability": "view",
      "type": "function"
    },
    {
      "inputs": [
        {
          "internalType": "address",
          "name": "token",
          "type": "address"
        }
      ],
      "name": "getTokenLimit",
      "outputs": [
        {
          "internalType": "uint256",
          "name": "",
          "type": "uint256"
        }
      ],
      "stateMutability": "view",
      "type": "function"
    },
    {
      "inputs": [
        {
          "internalType": "bytes32",
          "name": "role",
          "type": "bytes32"
        },
        {
          "internalType": "address",
          "name": "account",
          "type": "address"
        }
      ],
      "name": "grantRole",
      "outputs": [],
      "stateMutability": "nonpayable",
      "type": "function"
    },
    {
      "inputs": [
        {
          "internalType": "bytes32",
          "name": "role",
          "type": "bytes32"
        },
        {
          "internalType": "address",
          "name": "account",
          "type": "address"
        }
      ],
      "name": "hasRole",
      "outputs": [
        {
          "internalType": "bool",
          "name": "",
          "type": "bool"
        }
      ],
      "stateMutability": "view",
      "type": "function"
    },
    {
      "inputs": [
        {
          "internalType": "address",
          "name": "sender",
          "type": "address"
        }
      ],
      "name": "isAdmin",
      "outputs": [
        {
          "internalType": "bool",
          "name": "",
          "type": "bool"
        }
      ],
      "stateMutability": "view",
      "type": "function"
    },
    {
      "inputs": [
        {
          "internalType": "address",
          "name": "sender",
          "type": "address"
        }
      ],
      "name": "isOperator",
      "outputs": [
        {
          "internalType": "bool",
          "name": "",
          "type": "bool"
        }
      ],
      "stateMutability": "view",
      "type": "function"
    },
    {
      "inputs": [
        {
          "internalType": "address",
          "name": "pool",
          "type": "address"
        }
      ],
      "name": "isPoolWhitelisted",
      "outputs": [
        {
          "internalType": "bool",
          "name": "",
          "type": "bool"
        }
      ],
      "stateMutability": "view",
      "type": "function"
    },
    {
      "inputs": [
        {
          "internalType": "address",
          "name": "",
          "type": "address"
        }
      ],
      "name": "liquidationThreshold",
      "outputs": [
        {
          "internalType": "uint256",
          "name": "",
          "type": "uint256"
        }
      ],
      "stateMutability": "view",
      "type": "function"
    },
    {
      "inputs": [],
      "name": "protocolParams",
      "outputs": [
        {
          "components": [
            {
              "internalType": "uint256",
              "name": "liquidationFee",
              "type": "uint256"
            },
            {
              "internalType": "uint256",
              "name": "liquidationPremium",
              "type": "uint256"
            },
            {
              "internalType": "uint256",
              "name": "maxDebtPerVault",
              "type": "uint256"
            },
            {
              "internalType": "uint256",
              "name": "minSingleNftCapital",
              "type": "uint256"
            }
          ],
          "internalType": "struct IProtocolGovernance.ProtocolParams",
          "name": "",
          "type": "tuple"
        }
      ],
      "stateMutability": "view",
      "type": "function"
    },
    {
      "inputs": [
        {
          "internalType": "bytes32",
          "name": "role",
          "type": "bytes32"
        },
        {
          "internalType": "address",
          "name": "account",
          "type": "address"
        }
      ],
      "name": "renounceRole",
      "outputs": [],
      "stateMutability": "nonpayable",
      "type": "function"
    },
    {
      "inputs": [
        {
          "internalType": "bytes32",
          "name": "role",
          "type": "bytes32"
        },
        {
          "internalType": "address",
          "name": "account",
          "type": "address"
        }
      ],
      "name": "revokeRole",
      "outputs": [],
      "stateMutability": "nonpayable",
      "type": "function"
    },
    {
      "inputs": [
        {
          "internalType": "address",
          "name": "pool",
          "type": "address"
        }
      ],
      "name": "revokeWhitelistedPool",
      "outputs": [],
      "stateMutability": "nonpayable",
      "type": "function"
    },
    {
      "inputs": [
        {
          "internalType": "address",
          "name": "pool",
          "type": "address"
        },
        {
          "internalType": "uint256",
          "name": "liquidationRatio",
          "type": "uint256"
        }
      ],
      "name": "setLiquidationThreshold",
      "outputs": [],
      "stateMutability": "nonpayable",
      "type": "function"
    },
    {
      "inputs": [
        {
          "internalType": "address",
          "name": "token",
          "type": "address"
        },
        {
          "internalType": "uint256",
          "name": "newLimit",
          "type": "uint256"
        }
      ],
      "name": "setTokenLimit",
      "outputs": [],
      "stateMutability": "nonpayable",
      "type": "function"
    },
    {
      "inputs": [
        {
          "internalType": "address",
          "name": "pool",
          "type": "address"
        }
      ],
      "name": "setWhitelistedPool",
      "outputs": [],
      "stateMutability": "nonpayable",
      "type": "function"
    },
    {
      "inputs": [
        {
          "internalType": "bytes4",
          "name": "interfaceId",
          "type": "bytes4"
        }
      ],
      "name": "supportsInterface",
      "outputs": [
        {
          "internalType": "bool",
          "name": "",
          "type": "bool"
        }
      ],
      "stateMutability": "view",
      "type": "function"
    }
  ],
  "bytecode": {
    "object": "0x60806040523480156200001157600080fd5b506040516200181a3803806200181a8339810160408190526200003491620002e2565b806001600160a01b0381166200005d57604051639fabe1c160e01b815260040160405180910390fd5b62000078600080516020620017fa8339815191528262000132565b62000093600080516020620017da8339815191528262000132565b620000ae600080516020620017da8339815191528062000142565b620000e97fc171260023d22a25a00a2789664c9334017843b831138c8ef03cc8897e5873d7600080516020620017da83398151915262000142565b62000124600080516020620017fa8339815191527fc171260023d22a25a00a2789664c9334017843b831138c8ef03cc8897e5873d762000142565b505060001960065562000314565b6200013e82826200018d565b5050565b600082815260208190526040808220600101805490849055905190918391839186917fbd79b86ffe0ab8e8776151514217cd7cacd52c909f66475c3af44e129f0b00ff9190a4505050565b620001a48282620001d060201b62000b5d1760201c565b6000828152600160209081526040909120620001cb91839062000be162000270821b17901c565b505050565b6000828152602081815260408083206001600160a01b038516845290915290205460ff166200013e576000828152602081815260408083206001600160a01b03851684529091529020805460ff191660011790556200022c3390565b6001600160a01b0316816001600160a01b0316837f2f8788117e7eff1d82e926ec794901d17c78024a50270940304540a733656f0d60405160405180910390a45050565b600062000287836001600160a01b03841662000290565b90505b92915050565b6000818152600183016020526040812054620002d9575081546001818101845560008481526020808220909301849055845484825282860190935260409020919091556200028a565b5060006200028a565b600060208284031215620002f557600080fd5b81516001600160a01b03811681146200030d57600080fd5b9392505050565b6114b680620003246000396000f3fe608060405234801561001057600080fd5b50600436106101e55760003560e01c80636d70f7ae1161010f578063983d2737116100a2578063bc01763711610071578063bc0176371461046f578063ca15c87314610482578063cd9e703614610495578063d547741f1461049d57600080fd5b8063983d27371461040d578063a217fddf14610434578063ad88de451461043c578063b1732b251461044f57600080fd5b8063918f8674116100de578063918f86741461025c57806391d14854146103ac57806392c796eb146103bf57806393aab9d5146103d257600080fd5b80636d70f7ae14610334578063722609571461034757806375b238fc1461035a5780639010d07c1461038157600080fd5b80632b26a982116101875780634d6bbf10116101565780634d6bbf10146102fc5780635a860c871461030f5780635b7f415c1461032257806363cf65821461032a57600080fd5b80632b26a982146102b05780632f2ff15d146102c357806336568abe146102d65780634b85917f146102e957600080fd5b8063139fdadd116101c3578063139fdadd1461025c5780631c0a591414610267578063248a9ca31461027a57806324d7806c1461029d57600080fd5b806301ffc9a7146101ea5780630952ff54146102125780630e30428d14610247575b600080fd5b6101fd6101f83660046110e7565b6104b0565b60405190151581526020015b60405180910390f35b6102397fc171260023d22a25a00a2789664c9334017843b831138c8ef03cc8897e5873d781565b604051908152602001610209565b61025a61025536600461112d565b6104db565b005b610239633b9aca0081565b61025a610275366004611157565b6105b3565b610239610288366004611172565b60009081526020819052604090206001015490565b6101fd6102ab366004611157565b610632565b6101fd6102be366004611157565b61068e565b61025a6102d136600461118b565b61069b565b61025a6102e436600461118b565b6106c5565b61025a6102f7366004611172565b610748565b61025a61030a366004611172565b6107c3565b61023961031d366004611157565b61083e565b610239601281565b61023962030d4081565b6101fd610342366004611157565b610883565b61025a610355366004611172565b6108af565b6102397ff23ec0bb4210edd5cba85afd05127efcd2fc6a781bfed49188da1081670b22d881565b61039461038f3660046111b7565b610929565b6040516001600160a01b039091168152602001610209565b6101fd6103ba36600461118b565b610948565b61025a6103cd366004611157565b610971565b6103da6109d5565b60405161020991908151815260208083015190820152604080830151908201526060918201519181019190915260800190565b6102397f46a52cf33029de9f84853745a87af28464c80bf0346df1b32e205fc73319f62281565b610239600081565b61025a61044a366004611172565b610a2d565b61023961045d366004611157565b60086020526000908152604090205481565b61025a61047d36600461112d565b610a6e565b610239610490366004611172565b610b04565b610239610b1b565b61025a6104ab36600461118b565b610b38565b60006001600160e01b0319821663b6c535cd60e01b14806104d557506104d582610bf6565b92915050565b6104e3610c1b565b6001600160a01b03821661050a57604051639fabe1c160e01b815260040160405180910390fd5b610515600283610c43565b6105315760405162820f3560e61b815260040160405180910390fd5b633b9aca0081111561055657604051632a9ffab760e21b815260040160405180910390fd5b6001600160a01b03821660008181526008602090815260409182902084905581519283528201839052339132917fece54836a6012d34707a7966469d002bee4c78384a4ea18c1b5ffba5c8b2327291015b60405180910390a35050565b6105bb610c1b565b6001600160a01b0381166105e257604051639fabe1c160e01b815260040160405180910390fd5b6105ed600282610be1565b506040516001600160a01b0382168152339032907f2b2d2512e20fc45be02144f309a731d8005b3e32a993572a559447c769a7b6b2906020015b60405180910390a350565b600061065e7ff23ec0bb4210edd5cba85afd05127efcd2fc6a781bfed49188da1081670b22d883610948565b806104d557506104d57fc171260023d22a25a00a2789664c9334017843b831138c8ef03cc8897e5873d783610948565b60006104d5600283610c43565b6000828152602081905260409020600101546106b681610c65565b6106c08383610c72565b505050565b6001600160a01b038116331461073a5760405162461bcd60e51b815260206004820152602f60248201527f416363657373436f6e74726f6c3a2063616e206f6e6c792072656e6f756e636560448201526e103937b632b9903337b91039b2b63360891b60648201526084015b60405180910390fd5b6107448282610c94565b5050565b610750610c1b565b61075f6064633b9aca006111ef565b61076a90600a611211565b81111561078a57604051632a9ffab760e21b815260040160405180910390fd5b6005819055604051818152339032907fed85e2423f1922aaaa89e63c7dc4e470f77f8119f7f0978760d88cd5559158e090602001610627565b6107cb610c1b565b6107da6064633b9aca006111ef565b6107e590600a611211565b81111561080557604051632a9ffab760e21b815260040160405180910390fd5b6004819055604051818152339032907f4318315209d030bd27a0b3f822dcd40123b59dc278630320a6619a7a4791573e90602001610627565b6001600160a01b03811660009081526009602052604081205460ff166108675750600019919050565b506001600160a01b03166000908152600a602052604090205490565b60006104d57f46a52cf33029de9f84853745a87af28464c80bf0346df1b32e205fc73319f62283610948565b6108b7610c1b565b6108c36012600a611314565b6108d09062030d40611211565b8111156108f057604051632a9ffab760e21b815260040160405180910390fd5b6007819055604051818152339032907f302680757701d0574c4121cd481392642000c1b22ea28452e98b707c407bb63690602001610627565b60008281526001602052604081206109419083610cb6565b9392505050565b6000918252602082815260408084206001600160a01b0393909316845291905290205460ff1690565b610979610c1b565b610984600282610cc2565b506001600160a01b0381166000818152600860209081526040808320929092559051918252339132917f3157cfdf2b1e706bac0340bbb0ff011b10ad5240c3636187d723df79232c7b9b9101610627565b610a006040518060800160405280600081526020016000815260200160008152602001600081525090565b50604080516080810182526004548152600554602082015260065491810191909152600754606082015290565b610a35610c1b565b6006819055604051818152339032907f25ccdec7d43642f282c6c49dcc83a9f1e68c25fcbe9590fcf74cac9977e19a8390602001610627565b610a76610c1b565b6001600160a01b038216610a9d57604051639fabe1c160e01b815260040160405180910390fd5b6001600160a01b0382166000818152600960209081526040808320805460ff19166001179055600a82529182902084905581519283528201839052339132917fd6f7b85ab37120e49561d643c40083005f17b204e47738e73fac94cf8fe7033b91016105a7565b60008181526001602052604081206104d590610cd7565b610b2a6064633b9aca006111ef565b610b3590600a611211565b81565b600082815260208190526040902060010154610b5381610c65565b6106c08383610c94565b610b678282610948565b610744576000828152602081815260408083206001600160a01b03851684529091529020805460ff19166001179055610b9d3390565b6001600160a01b0316816001600160a01b0316837f2f8788117e7eff1d82e926ec794901d17c78024a50270940304540a733656f0d60405160405180910390a45050565b6000610941836001600160a01b038416610ce1565b60006001600160e01b03198216635a05180f60e01b14806104d557506104d582610d30565b610c2433610632565b610c4157604051631dd2188d60e31b815260040160405180910390fd5b565b6001600160a01b03811660009081526001830160205260408120541515610941565b610c6f8133610d65565b50565b610c7c8282610b5d565b60008281526001602052604090206106c09082610be1565b610c9e8282610dc9565b60008281526001602052604090206106c09082610cc2565b60006109418383610e2e565b6000610941836001600160a01b038416610e58565b60006104d5825490565b6000818152600183016020526040812054610d28575081546001818101845560008481526020808220909301849055845484825282860190935260409020919091556104d5565b5060006104d5565b60006001600160e01b03198216637965db0b60e01b14806104d557506301ffc9a760e01b6001600160e01b03198316146104d5565b610d6f8282610948565b61074457610d87816001600160a01b03166014610f4b565b610d92836020610f4b565b604051602001610da3929190611350565b60408051601f198184030181529082905262461bcd60e51b8252610731916004016113c5565b610dd38282610948565b15610744576000828152602081815260408083206001600160a01b0385168085529252808320805460ff1916905551339285917ff6391f5c32d9c69d2a47ea670b442974b53935d1edc7fd64eb21e047a839171b9190a45050565b6000826000018281548110610e4557610e456113f8565b9060005260206000200154905092915050565b60008181526001830160205260408120548015610f41576000610e7c60018361140e565b8554909150600090610e909060019061140e565b9050818114610ef5576000866000018281548110610eb057610eb06113f8565b9060005260206000200154905080876000018481548110610ed357610ed36113f8565b6000918252602080832090910192909255918252600188019052604090208390555b8554869080610f0657610f06611425565b6001900381819060005260206000200160009055905585600101600086815260200190815260200160002060009055600193505050506104d5565b60009150506104d5565b60606000610f5a836002611211565b610f6590600261143b565b67ffffffffffffffff811115610f7d57610f7d611453565b6040519080825280601f01601f191660200182016040528015610fa7576020820181803683370190505b509050600360fc1b81600081518110610fc257610fc26113f8565b60200101906001600160f81b031916908160001a905350600f60fb1b81600181518110610ff157610ff16113f8565b60200101906001600160f81b031916908160001a9053506000611015846002611211565b61102090600161143b565b90505b6001811115611098576f181899199a1a9b1b9c1cb0b131b232b360811b85600f1660108110611054576110546113f8565b1a60f81b82828151811061106a5761106a6113f8565b60200101906001600160f81b031916908160001a90535060049490941c9361109181611469565b9050611023565b5083156109415760405162461bcd60e51b815260206004820181905260248201527f537472696e67733a20686578206c656e67746820696e73756666696369656e746044820152606401610731565b6000602082840312156110f957600080fd5b81356001600160e01b03198116811461094157600080fd5b80356001600160a01b038116811461112857600080fd5b919050565b6000806040838503121561114057600080fd5b61114983611111565b946020939093013593505050565b60006020828403121561116957600080fd5b61094182611111565b60006020828403121561118457600080fd5b5035919050565b6000806040838503121561119e57600080fd5b823591506111ae60208401611111565b90509250929050565b600080604083850312156111ca57600080fd5b50508035926020909101359150565b634e487b7160e01b600052601160045260246000fd5b60008261120c57634e487b7160e01b600052601260045260246000fd5b500490565b600081600019048311821515161561122b5761122b6111d9565b500290565b600181815b8085111561126b578160001904821115611251576112516111d9565b8085161561125e57918102915b93841c9390800290611235565b509250929050565b600082611282575060016104d5565b8161128f575060006104d5565b81600181146112a557600281146112af576112cb565b60019150506104d5565b60ff8411156112c0576112c06111d9565b50506001821b6104d5565b5060208310610133831016604e8410600b84101617156112ee575081810a6104d5565b6112f88383611230565b806000190482111561130c5761130c6111d9565b029392505050565b60006109418383611273565b60005b8381101561133b578181015183820152602001611323565b8381111561134a576000848401525b50505050565b7f416363657373436f6e74726f6c3a206163636f756e7420000000000000000000815260008351611388816017850160208801611320565b7001034b99036b4b9b9b4b733903937b6329607d1b60179184019182015283516113b9816028840160208801611320565b01602801949350505050565b60208152600082518060208401526113e4816040850160208701611320565b601f01601f19169190910160400192915050565b634e487b7160e01b600052603260045260246000fd5b600082821015611420576114206111d9565b500390565b634e487b7160e01b600052603160045260246000fd5b6000821982111561144e5761144e6111d9565b500190565b634e487b7160e01b600052604160045260246000fd5b600081611478576114786111d9565b50600019019056fea26469706673582212201ec32132d4d8f2629484d59676ce922d68e2dc279396292097e620dfe898688b64736f6c634300080d0033f23ec0bb4210edd5cba85afd05127efcd2fc6a781bfed49188da1081670b22d846a52cf33029de9f84853745a87af28464c80bf0346df1b32e205fc73319f622",
    "linkReferences": {}
  },
  "methodIdentifiers": {
    "ADMIN_DELEGATE_ROLE()": "0952ff54",
    "ADMIN_ROLE()": "75b238fc",
    "DEFAULT_ADMIN_ROLE()": "a217fddf",
    "DENOMINATOR()": "918f8674",
    "MAX_LIQUIDATION_FEE_RATE()": "cd9e7036",
    "MAX_NFT_CAPITAL_LIMIT_USD()": "63cf6582",
    "MAX_PERCENTAGE_RATE()": "139fdadd",
    "OPERATOR()": "983d2737",
    "TOKEN_DECIMALS()": "5b7f415c",
    "changeLiquidationFee(uint256)": "4d6bbf10",
    "changeLiquidationPremium(uint256)": "4b85917f",
    "changeMaxDebtPerVault(uint256)": "ad88de45",
    "changeMinSingleNftCapital(uint256)": "72260957",
    "getRoleAdmin(bytes32)": "248a9ca3",
    "getRoleMember(bytes32,uint256)": "9010d07c",
    "getRoleMemberCount(bytes32)": "ca15c873",
    "getTokenLimit(address)": "5a860c87",
    "grantRole(bytes32,address)": "2f2ff15d",
    "hasRole(bytes32,address)": "91d14854",
    "isAdmin(address)": "24d7806c",
    "isOperator(address)": "6d70f7ae",
    "isPoolWhitelisted(address)": "2b26a982",
    "liquidationThreshold(address)": "b1732b25",
    "protocolParams()": "93aab9d5",
    "renounceRole(bytes32,address)": "36568abe",
    "revokeRole(bytes32,address)": "d547741f",
    "revokeWhitelistedPool(address)": "92c796eb",
    "setLiquidationThreshold(address,uint256)": "0e30428d",
    "setTokenLimit(address,uint256)": "bc017637",
    "setWhitelistedPool(address)": "1c0a5914",
    "supportsInterface(bytes4)": "01ffc9a7"
  },
  "id": 20
}