{
  "abi": [
    {
      "inputs": [
        {
          "internalType": "address",
          "name": "admin",
          "type": "address"
        }
      ],
      "stateMutability": "nonpayable",
      "type": "constructor"
    },
    {
      "inputs": [],
      "name": "AddressZero",
      "type": "error"
    },
    {
      "inputs": [],
      "name": "Forbidden",
      "type": "error"
    },
    {
      "inputs": [],
      "name": "InvalidPool",
      "type": "error"
    },
    {
      "inputs": [],
      "name": "InvalidValue",
      "type": "error"
    },
    {
      "inputs": [],
      "name": "ValueZero",
      "type": "error"
    },
    {
      "anonymous": false,
      "inputs": [
        {
          "indexed": true,
          "internalType": "address",
          "name": "origin",
          "type": "address"
        },
        {
          "indexed": true,
          "internalType": "address",
          "name": "sender",
          "type": "address"
        },
        {
          "indexed": true,
          "internalType": "uint256",
          "name": "liquidationFee",
          "type": "uint256"
        }
      ],
      "name": "LiquidationFeeChanged",
      "type": "event"
    },
    {
      "anonymous": false,
      "inputs": [
        {
          "indexed": true,
          "internalType": "address",
          "name": "origin",
          "type": "address"
        },
        {
          "indexed": true,
          "internalType": "address",
          "name": "sender",
          "type": "address"
        },
        {
          "indexed": true,
          "internalType": "uint256",
          "name": "liquidationPremium",
          "type": "uint256"
        }
      ],
      "name": "LiquidationPremiumChanged",
      "type": "event"
    },
    {
      "anonymous": false,
      "inputs": [
        {
          "indexed": true,
          "internalType": "address",
          "name": "origin",
          "type": "address"
        },
        {
          "indexed": true,
          "internalType": "address",
          "name": "sender",
          "type": "address"
        },
        {
          "indexed": true,
          "internalType": "address",
          "name": "pool",
          "type": "address"
        },
        {
          "indexed": false,
          "internalType": "uint256",
          "name": "liquidationRatio",
          "type": "uint256"
        }
      ],
      "name": "LiquidationThresholdSet",
      "type": "event"
    },
    {
      "anonymous": false,
      "inputs": [
        {
          "indexed": true,
          "internalType": "address",
          "name": "origin",
          "type": "address"
        },
        {
          "indexed": true,
          "internalType": "address",
          "name": "sender",
          "type": "address"
        },
        {
          "indexed": true,
          "internalType": "uint256",
          "name": "maxDebtPerVault",
          "type": "uint256"
        }
      ],
      "name": "MaxDebtPerVaultChanged",
      "type": "event"
    },
    {
      "anonymous": false,
      "inputs": [
        {
          "indexed": true,
          "internalType": "address",
          "name": "origin",
          "type": "address"
        },
        {
          "indexed": true,
          "internalType": "address",
          "name": "sender",
          "type": "address"
        },
        {
          "indexed": true,
          "internalType": "uint256",
          "name": "minSingleNftCapital",
          "type": "uint256"
        }
      ],
      "name": "MinSingleNftCapitalChanged",
      "type": "event"
    },
    {
      "anonymous": false,
      "inputs": [
        {
          "indexed": true,
          "internalType": "address",
          "name": "origin",
          "type": "address"
        },
        {
          "indexed": true,
          "internalType": "address",
          "name": "sender",
          "type": "address"
        },
        {
          "components": [
            {
              "internalType": "uint256",
              "name": "stabilizationFee",
              "type": "uint256"
            },
            {
              "internalType": "uint256",
              "name": "liquidationFee",
              "type": "uint256"
            },
            {
              "internalType": "uint256",
              "name": "liquidationPremium",
              "type": "uint256"
            },
            {
              "internalType": "uint256",
              "name": "maxDebtPerVault",
              "type": "uint256"
            },
            {
              "internalType": "uint256",
              "name": "minSingleNftCapital",
              "type": "uint256"
            }
          ],
          "indexed": false,
          "internalType": "struct IProtocolGovernance.ProtocolParams",
          "name": "params",
          "type": "tuple"
        }
      ],
      "name": "ParamsSet",
      "type": "event"
    },
    {
      "anonymous": false,
      "inputs": [
        {
          "indexed": true,
          "internalType": "bytes32",
          "name": "role",
          "type": "bytes32"
        },
        {
          "indexed": true,
          "internalType": "bytes32",
          "name": "previousAdminRole",
          "type": "bytes32"
        },
        {
          "indexed": true,
          "internalType": "bytes32",
          "name": "newAdminRole",
          "type": "bytes32"
        }
      ],
      "name": "RoleAdminChanged",
      "type": "event"
    },
    {
      "anonymous": false,
      "inputs": [
        {
          "indexed": true,
          "internalType": "bytes32",
          "name": "role",
          "type": "bytes32"
        },
        {
          "indexed": true,
          "internalType": "address",
          "name": "account",
          "type": "address"
        },
        {
          "indexed": true,
          "internalType": "address",
          "name": "sender",
          "type": "address"
        }
      ],
      "name": "RoleGranted",
      "type": "event"
    },
    {
      "anonymous": false,
      "inputs": [
        {
          "indexed": true,
          "internalType": "bytes32",
          "name": "role",
          "type": "bytes32"
        },
        {
          "indexed": true,
          "internalType": "address",
          "name": "account",
          "type": "address"
        },
        {
          "indexed": true,
          "internalType": "address",
          "name": "sender",
          "type": "address"
        }
      ],
      "name": "RoleRevoked",
      "type": "event"
    },
    {
      "anonymous": false,
      "inputs": [
        {
          "indexed": true,
          "internalType": "address",
          "name": "origin",
          "type": "address"
        },
        {
          "indexed": true,
          "internalType": "address",
          "name": "sender",
          "type": "address"
        },
        {
          "indexed": true,
          "internalType": "uint256",
          "name": "stabilizationFee",
          "type": "uint256"
        }
      ],
      "name": "StabilizationFeeChanged",
      "type": "event"
    },
    {
      "anonymous": false,
      "inputs": [
        {
          "indexed": true,
          "internalType": "address",
          "name": "origin",
          "type": "address"
        },
        {
          "indexed": true,
          "internalType": "address",
          "name": "sender",
          "type": "address"
        },
        {
          "indexed": false,
          "internalType": "address",
          "name": "token",
          "type": "address"
        },
        {
          "indexed": false,
          "internalType": "uint256",
          "name": "stagedLimit",
          "type": "uint256"
        }
      ],
      "name": "TokenLimitSet",
      "type": "event"
    },
    {
      "anonymous": false,
      "inputs": [
        {
          "indexed": true,
          "internalType": "address",
          "name": "origin",
          "type": "address"
        },
        {
          "indexed": true,
          "internalType": "address",
          "name": "sender",
          "type": "address"
        },
        {
          "indexed": true,
          "internalType": "address",
          "name": "pool",
          "type": "address"
        }
      ],
      "name": "WhitelistedPoolRevoked",
      "type": "event"
    },
    {
      "anonymous": false,
      "inputs": [
        {
          "indexed": true,
          "internalType": "address",
          "name": "origin",
          "type": "address"
        },
        {
          "indexed": true,
          "internalType": "address",
          "name": "sender",
          "type": "address"
        },
        {
          "indexed": true,
          "internalType": "address",
          "name": "pool",
          "type": "address"
        }
      ],
      "name": "WhitelistedPoolSet",
      "type": "event"
    },
    {
      "inputs": [],
      "name": "ADMIN_DELEGATE_ROLE",
      "outputs": [
        {
          "internalType": "bytes32",
          "name": "",
          "type": "bytes32"
        }
      ],
      "stateMutability": "view",
      "type": "function"
    },
    {
      "inputs": [],
      "name": "ADMIN_ROLE",
      "outputs": [
        {
          "internalType": "bytes32",
          "name": "",
          "type": "bytes32"
        }
      ],
      "stateMutability": "view",
      "type": "function"
    },
    {
      "inputs": [],
      "name": "DEFAULT_ADMIN_ROLE",
      "outputs": [
        {
          "internalType": "bytes32",
          "name": "",
          "type": "bytes32"
        }
      ],
      "stateMutability": "view",
      "type": "function"
    },
    {
      "inputs": [],
      "name": "DENOMINATOR",
      "outputs": [
        {
          "internalType": "uint256",
          "name": "",
          "type": "uint256"
        }
      ],
      "stateMutability": "view",
      "type": "function"
    },
    {
      "inputs": [],
      "name": "MAX_LIQUIDATION_FEE_RATE",
      "outputs": [
        {
          "internalType": "uint256",
          "name": "",
          "type": "uint256"
        }
      ],
      "stateMutability": "view",
      "type": "function"
    },
    {
      "inputs": [],
      "name": "MAX_NFT_CAPITAL_LIMIT_USD",
      "outputs": [
        {
          "internalType": "uint256",
          "name": "",
          "type": "uint256"
        }
      ],
      "stateMutability": "view",
      "type": "function"
    },
    {
      "inputs": [],
      "name": "MAX_PERCENTAGE_RATE",
      "outputs": [
        {
          "internalType": "uint256",
          "name": "",
          "type": "uint256"
        }
      ],
      "stateMutability": "view",
      "type": "function"
    },
    {
      "inputs": [],
      "name": "OPERATOR",
      "outputs": [
        {
          "internalType": "bytes32",
          "name": "",
          "type": "bytes32"
        }
      ],
      "stateMutability": "view",
      "type": "function"
    },
    {
      "inputs": [],
      "name": "TOKEN_DECIMALS",
      "outputs": [
        {
          "internalType": "uint256",
          "name": "",
          "type": "uint256"
        }
      ],
      "stateMutability": "view",
      "type": "function"
    },
    {
      "inputs": [
        {
          "internalType": "uint256",
          "name": "liquidationFee",
          "type": "uint256"
        }
      ],
      "name": "changeLiquidationFee",
      "outputs": [],
      "stateMutability": "nonpayable",
      "type": "function"
    },
    {
      "inputs": [
        {
          "internalType": "uint256",
          "name": "liquidationPremium",
          "type": "uint256"
        }
      ],
      "name": "changeLiquidationPremium",
      "outputs": [],
      "stateMutability": "nonpayable",
      "type": "function"
    },
    {
      "inputs": [
        {
          "internalType": "uint256",
          "name": "maxDebtPerVault",
          "type": "uint256"
        }
      ],
      "name": "changeMaxDebtPerVault",
      "outputs": [],
      "stateMutability": "nonpayable",
      "type": "function"
    },
    {
      "inputs": [
        {
          "internalType": "uint256",
          "name": "minSingleNftCapital",
          "type": "uint256"
        }
      ],
      "name": "changeMinSingleNftCapital",
      "outputs": [],
      "stateMutability": "nonpayable",
      "type": "function"
    },
    {
      "inputs": [
        {
          "internalType": "uint256",
          "name": "stabilizationFee",
          "type": "uint256"
        }
      ],
      "name": "changeStabilizationFee",
      "outputs": [],
      "stateMutability": "nonpayable",
      "type": "function"
    },
    {
      "inputs": [
        {
          "internalType": "bytes32",
          "name": "role",
          "type": "bytes32"
        }
      ],
      "name": "getRoleAdmin",
      "outputs": [
        {
          "internalType": "bytes32",
          "name": "",
          "type": "bytes32"
        }
      ],
      "stateMutability": "view",
      "type": "function"
    },
    {
      "inputs": [
        {
          "internalType": "bytes32",
          "name": "role",
          "type": "bytes32"
        },
        {
          "internalType": "uint256",
          "name": "index",
          "type": "uint256"
        }
      ],
      "name": "getRoleMember",
      "outputs": [
        {
          "internalType": "address",
          "name": "",
          "type": "address"
        }
      ],
      "stateMutability": "view",
      "type": "function"
    },
    {
      "inputs": [
        {
          "internalType": "bytes32",
          "name": "role",
          "type": "bytes32"
        }
      ],
      "name": "getRoleMemberCount",
      "outputs": [
        {
          "internalType": "uint256",
          "name": "",
          "type": "uint256"
        }
      ],
      "stateMutability": "view",
      "type": "function"
    },
    {
      "inputs": [
        {
          "internalType": "address",
          "name": "token",
          "type": "address"
        }
      ],
      "name": "getTokenLimit",
      "outputs": [
        {
          "internalType": "uint256",
          "name": "",
          "type": "uint256"
        }
      ],
      "stateMutability": "view",
      "type": "function"
    },
    {
      "inputs": [
        {
          "internalType": "bytes32",
          "name": "role",
          "type": "bytes32"
        },
        {
          "internalType": "address",
          "name": "account",
          "type": "address"
        }
      ],
      "name": "grantRole",
      "outputs": [],
      "stateMutability": "nonpayable",
      "type": "function"
    },
    {
      "inputs": [
        {
          "internalType": "bytes32",
          "name": "role",
          "type": "bytes32"
        },
        {
          "internalType": "address",
          "name": "account",
          "type": "address"
        }
      ],
      "name": "hasRole",
      "outputs": [
        {
          "internalType": "bool",
          "name": "",
          "type": "bool"
        }
      ],
      "stateMutability": "view",
      "type": "function"
    },
    {
      "inputs": [
        {
          "internalType": "address",
          "name": "sender",
          "type": "address"
        }
      ],
      "name": "isAdmin",
      "outputs": [
        {
          "internalType": "bool",
          "name": "",
          "type": "bool"
        }
      ],
      "stateMutability": "view",
      "type": "function"
    },
    {
      "inputs": [
        {
          "internalType": "address",
          "name": "sender",
          "type": "address"
        }
      ],
      "name": "isOperator",
      "outputs": [
        {
          "internalType": "bool",
          "name": "",
          "type": "bool"
        }
      ],
      "stateMutability": "view",
      "type": "function"
    },
    {
      "inputs": [
        {
          "internalType": "address",
          "name": "pool",
          "type": "address"
        }
      ],
      "name": "isPoolWhitelisted",
      "outputs": [
        {
          "internalType": "bool",
          "name": "",
          "type": "bool"
        }
      ],
      "stateMutability": "view",
      "type": "function"
    },
    {
      "inputs": [
        {
          "internalType": "address",
          "name": "",
          "type": "address"
        }
      ],
      "name": "isTokenCapitalLimited",
      "outputs": [
        {
          "internalType": "bool",
          "name": "",
          "type": "bool"
        }
      ],
      "stateMutability": "view",
      "type": "function"
    },
    {
      "inputs": [
        {
          "internalType": "address",
          "name": "",
          "type": "address"
        }
      ],
      "name": "liquidationThreshold",
      "outputs": [
        {
          "internalType": "uint256",
          "name": "",
          "type": "uint256"
        }
      ],
      "stateMutability": "view",
      "type": "function"
    },
    {
      "inputs": [],
      "name": "protocolParams",
      "outputs": [
        {
          "components": [
            {
              "internalType": "uint256",
              "name": "stabilizationFee",
              "type": "uint256"
            },
            {
              "internalType": "uint256",
              "name": "liquidationFee",
              "type": "uint256"
            },
            {
              "internalType": "uint256",
              "name": "liquidationPremium",
              "type": "uint256"
            },
            {
              "internalType": "uint256",
              "name": "maxDebtPerVault",
              "type": "uint256"
            },
            {
              "internalType": "uint256",
              "name": "minSingleNftCapital",
              "type": "uint256"
            }
          ],
          "internalType": "struct IProtocolGovernance.ProtocolParams",
          "name": "",
          "type": "tuple"
        }
      ],
      "stateMutability": "view",
      "type": "function"
    },
    {
      "inputs": [
        {
          "internalType": "bytes32",
          "name": "role",
          "type": "bytes32"
        },
        {
          "internalType": "address",
          "name": "account",
          "type": "address"
        }
      ],
      "name": "renounceRole",
      "outputs": [],
      "stateMutability": "nonpayable",
      "type": "function"
    },
    {
      "inputs": [
        {
          "internalType": "bytes32",
          "name": "role",
          "type": "bytes32"
        },
        {
          "internalType": "address",
          "name": "account",
          "type": "address"
        }
      ],
      "name": "revokeRole",
      "outputs": [],
      "stateMutability": "nonpayable",
      "type": "function"
    },
    {
      "inputs": [
        {
          "internalType": "address",
          "name": "pool",
          "type": "address"
        }
      ],
      "name": "revokeWhitelistedPool",
      "outputs": [],
      "stateMutability": "nonpayable",
      "type": "function"
    },
    {
      "inputs": [
        {
          "internalType": "address",
          "name": "pool",
          "type": "address"
        },
        {
          "internalType": "uint256",
          "name": "liquidationRatio",
          "type": "uint256"
        }
      ],
      "name": "setLiquidationThreshold",
      "outputs": [],
      "stateMutability": "nonpayable",
      "type": "function"
    },
    {
      "inputs": [
        {
          "components": [
            {
              "internalType": "uint256",
              "name": "stabilizationFee",
              "type": "uint256"
            },
            {
              "internalType": "uint256",
              "name": "liquidationFee",
              "type": "uint256"
            },
            {
              "internalType": "uint256",
              "name": "liquidationPremium",
              "type": "uint256"
            },
            {
              "internalType": "uint256",
              "name": "maxDebtPerVault",
              "type": "uint256"
            },
            {
              "internalType": "uint256",
              "name": "minSingleNftCapital",
              "type": "uint256"
            }
          ],
          "internalType": "struct IProtocolGovernance.ProtocolParams",
          "name": "newParams",
          "type": "tuple"
        }
      ],
      "name": "setParams",
      "outputs": [],
      "stateMutability": "nonpayable",
      "type": "function"
    },
    {
      "inputs": [
        {
          "internalType": "address",
          "name": "token",
          "type": "address"
        },
        {
          "internalType": "uint256",
          "name": "newLimit",
          "type": "uint256"
        }
      ],
      "name": "setTokenLimit",
      "outputs": [],
      "stateMutability": "nonpayable",
      "type": "function"
    },
    {
      "inputs": [
        {
          "internalType": "address",
          "name": "pool",
          "type": "address"
        }
      ],
      "name": "setWhitelistedPool",
      "outputs": [],
      "stateMutability": "nonpayable",
      "type": "function"
    },
    {
      "inputs": [
        {
          "internalType": "bytes4",
          "name": "interfaceId",
          "type": "bytes4"
        }
      ],
      "name": "supportsInterface",
      "outputs": [
        {
          "internalType": "bool",
          "name": "",
          "type": "bool"
        }
      ],
      "stateMutability": "view",
      "type": "function"
    },
    {
      "inputs": [
        {
          "internalType": "address",
          "name": "",
          "type": "address"
        }
      ],
      "name": "tokenCapitalLimit",
      "outputs": [
        {
          "internalType": "uint256",
          "name": "",
          "type": "uint256"
        }
      ],
      "stateMutability": "view",
      "type": "function"
    }
  ],
  "bytecode": {
    "object": "0x60806040523480156200001157600080fd5b5060405162001a7f38038062001a7f8339810160408190526200003491620002dc565b806001600160a01b0381166200005d57604051639fabe1c160e01b815260040160405180910390fd5b6200007860008051602062001a5f833981519152826200012c565b6200009360008051602062001a3f833981519152826200012c565b620000ae60008051602062001a3f833981519152806200013c565b620000e97fc171260023d22a25a00a2789664c9334017843b831138c8ef03cc8897e5873d760008051602062001a3f8339815191526200013c565b6200012460008051602062001a5f8339815191527fc171260023d22a25a00a2789664c9334017843b831138c8ef03cc8897e5873d76200013c565b50506200030e565b62000138828262000187565b5050565b600082815260208190526040808220600101805490849055905190918391839186917fbd79b86ffe0ab8e8776151514217cd7cacd52c909f66475c3af44e129f0b00ff9190a4505050565b6200019e8282620001ca60201b62000d161760201c565b6000828152600160209081526040909120620001c591839062000d9a6200026a821b17901c565b505050565b6000828152602081815260408083206001600160a01b038516845290915290205460ff1662000138576000828152602081815260408083206001600160a01b03851684529091529020805460ff19166001179055620002263390565b6001600160a01b0316816001600160a01b0316837f2f8788117e7eff1d82e926ec794901d17c78024a50270940304540a733656f0d60405160405180910390a45050565b600062000281836001600160a01b0384166200028a565b90505b92915050565b6000818152600183016020526040812054620002d35750815460018181018455600084815260208082209093018490558454848252828601909352604090209190915562000284565b50600062000284565b600060208284031215620002ef57600080fd5b81516001600160a01b03811681146200030757600080fd5b9392505050565b611721806200031e6000396000f3fe608060405234801561001057600080fd5b50600436106102115760003560e01c80636d70f7ae11610125578063983d2737116100ad578063b1732b251161007c578063b1732b25146104f3578063bc01763714610513578063ca15c87314610526578063cd9e703614610539578063d547741f1461054157600080fd5b8063983d27371461048e5780639945435b146104b5578063a217fddf146104d8578063ad88de45146104e057600080fd5b80639010d07c116100f45780639010d07c146103f3578063918f86741461028857806391d148541461041e57806392c796eb1461043157806393aab9d51461044457600080fd5b80636d70f7ae1461039357806372260957146103a6578063749f60f3146103b957806375b238fc146103cc57600080fd5b80632ee16e34116101a85780634b85917f116101775780634b85917f146103485780634d6bbf101461035b5780635a860c871461036e5780635b7f415c1461038157806363cf65821461038957600080fd5b80632ee16e34146102ef5780632f2ff15d1461030257806336568abe1461031557806345b494671461032857600080fd5b80631c0a5914116101e45780631c0a591414610293578063248a9ca3146102a657806324d7806c146102c95780632b26a982146102dc57600080fd5b806301ffc9a7146102165780630952ff541461023e5780630e30428d14610273578063139fdadd14610288575b600080fd5b61022961022436600461133a565b610554565b60405190151581526020015b60405180910390f35b6102657fc171260023d22a25a00a2789664c9334017843b831138c8ef03cc8897e5873d781565b604051908152602001610235565b610286610281366004611380565b61057f565b005b610265633b9aca0081565b6102866102a13660046113aa565b610678565b6102656102b43660046113c5565b60009081526020819052604090206001015490565b6102296102d73660046113aa565b6106ee565b6102296102ea3660046113aa565b61074a565b6102866102fd3660046113de565b610757565b6102866103103660046113f6565b6107ea565b6102866103233660046113f6565b610814565b6102656103363660046113aa565b600b6020526000908152604090205481565b6102866103563660046113c5565b610897565b6102866103693660046113c5565b610910565b61026561037c3660046113aa565b610989565b610265601281565b61026562030d4081565b6102296103a13660046113aa565b6109ce565b6102866103b43660046113c5565b6109fa565b6102866103c73660046113c5565b610a72565b6102657ff23ec0bb4210edd5cba85afd05127efcd2fc6a781bfed49188da1081670b22d881565b610406610401366004611422565b610ad6565b6040516001600160a01b039091168152602001610235565b61022961042c3660046113f6565b610af5565b61028661043f3660046113aa565b610b1e565b61044c610b7a565b6040516102359190600060a082019050825182526020830151602083015260408301516040830152606083015160608301526080830151608083015292915050565b6102657f46a52cf33029de9f84853745a87af28464c80bf0346df1b32e205fc73319f62281565b6102296104c33660046113aa565b600a6020526000908152604090205460ff1681565b610265600081565b6102866104ee3660046113c5565b610be1565b6102656105013660046113aa565b60096020526000908152604090205481565b610286610521366004611380565b610c20565b6102656105343660046113c5565b610cbd565b610265610cd4565b61028661054f3660046113f6565b610cf1565b60006001600160e01b03198216631825761b60e11b1480610579575061057982610daf565b92915050565b610587610dd4565b6001600160a01b0382166105ae57604051639fabe1c160e01b815260040160405180910390fd5b6105b9600283610dfc565b6105d55760405162820f3560e61b815260040160405180910390fd5b806000036105f657604051630b13e60d60e31b815260040160405180910390fd5b633b9aca0081111561061b57604051632a9ffab760e21b815260040160405180910390fd5b6001600160a01b0382166000818152600960205260409081902083905551339032907fece54836a6012d34707a7966469d002bee4c78384a4ea18c1b5ffba5c8b232729061066c9086815260200190565b60405180910390a45050565b610680610dd4565b6001600160a01b0381166106a757604051639fabe1c160e01b815260040160405180910390fd5b6106b2600282610d9a565b506040516001600160a01b03821690339032907f2b2d2512e20fc45be02144f309a731d8005b3e32a993572a559447c769a7b6b290600090a450565b600061071a7ff23ec0bb4210edd5cba85afd05127efcd2fc6a781bfed49188da1081670b22d883610af5565b8061057957506105797fc171260023d22a25a00a2789664c9334017843b831138c8ef03cc8897e5873d783610af5565b6000610579600283610dfc565b61075f610dd4565b61076881610e1e565b803560048190556020808301356005819055604080850135600681905560608087013560078190556080808901356008819055855198895296880195909552868401929092528501529083019190915251339132917f8056bc7b7592ef69115e70333746bba752a899270afc60e18ef5256e99eafcdb9181900360a00190a350565b60008281526020819052604090206001015461080581610ebb565b61080f8383610ec5565b505050565b6001600160a01b03811633146108895760405162461bcd60e51b815260206004820152602f60248201527f416363657373436f6e74726f6c3a2063616e206f6e6c792072656e6f756e636560448201526e103937b632b9903337b91039b2b63360891b60648201526084015b60405180910390fd5b6108938282610ee7565b5050565b61089f610dd4565b6108ae6064633b9aca0061145a565b6108b990600a61147c565b8111156108d957604051632a9ffab760e21b815260040160405180910390fd5b60068190556040518190339032907fed85e2423f1922aaaa89e63c7dc4e470f77f8119f7f0978760d88cd5559158e090600090a450565b610918610dd4565b6109276064633b9aca0061145a565b61093290600a61147c565b81111561095257604051632a9ffab760e21b815260040160405180910390fd5b60058190556040518190339032907f4318315209d030bd27a0b3f822dcd40123b59dc278630320a6619a7a4791573e90600090a450565b6001600160a01b0381166000908152600a602052604081205460ff166109b25750600019919050565b506001600160a01b03166000908152600b602052604090205490565b60006105797f46a52cf33029de9f84853745a87af28464c80bf0346df1b32e205fc73319f62283610af5565b610a02610dd4565b610a0e6012600a61157f565b610a1b9062030d4061147c565b811115610a3b57604051632a9ffab760e21b815260040160405180910390fd5b60088190556040518190339032907f302680757701d0574c4121cd481392642000c1b22ea28452e98b707c407bb63690600090a450565b610a7a610dd4565b633b9aca00811115610a9f57604051632a9ffab760e21b815260040160405180910390fd5b60048190556040518190339032907f9571f4484b83dc183f5c84d2e388ec23019873a993ac4f224b8239e4b157e53690600090a450565b6000828152600160205260408120610aee9083610f09565b9392505050565b6000918252602082815260408084206001600160a01b0393909316845291905290205460ff1690565b610b26610dd4565b610b31600282610f15565b506001600160a01b03811660008181526009602052604080822082905551339132917f3157cfdf2b1e706bac0340bbb0ff011b10ad5240c3636187d723df79232c7b9b9190a450565b610bac6040518060a0016040528060008152602001600081526020016000815260200160008152602001600081525090565b506040805160a08101825260045481526005546020820152600654918101919091526007546060820152600854608082015290565b610be9610dd4565b60078190556040518190339032907f25ccdec7d43642f282c6c49dcc83a9f1e68c25fcbe9590fcf74cac9977e19a8390600090a450565b610c28610dd4565b6001600160a01b038216610c4f57604051639fabe1c160e01b815260040160405180910390fd5b6001600160a01b0382166000818152600a60209081526040808320805460ff19166001179055600b82529182902084905581519283528201839052339132917fd6f7b85ab37120e49561d643c40083005f17b204e47738e73fac94cf8fe7033b910160405180910390a35050565b600081815260016020526040812061057990610f2a565b610ce36064633b9aca0061145a565b610cee90600a61147c565b81565b600082815260208190526040902060010154610d0c81610ebb565b61080f8383610ee7565b610d208282610af5565b610893576000828152602081815260408083206001600160a01b03851684529091529020805460ff19166001179055610d563390565b6001600160a01b0316816001600160a01b0316837f2f8788117e7eff1d82e926ec794901d17c78024a50270940304540a733656f0d60405160405180910390a45050565b6000610aee836001600160a01b038416610f34565b60006001600160e01b03198216635a05180f60e01b1480610579575061057982610f83565b610ddd336106ee565b610dfa57604051631dd2188d60e31b815260040160405180910390fd5b565b6001600160a01b03811660009081526001830160205260408120541515610aee565b633b9aca0081351180610e4d5750610e3b6064633b9aca0061145a565b610e4690600a61147c565b8160200135115b80610e745750610e626064633b9aca0061145a565b610e6d90600a61147c565b8160400135115b80610e9a5750610e866012600a61157f565b610e939062030d4061147c565b8160800135115b15610eb857604051632a9ffab760e21b815260040160405180910390fd5b50565b610eb88133610fb8565b610ecf8282610d16565b600082815260016020526040902061080f9082610d9a565b610ef1828261101c565b600082815260016020526040902061080f9082610f15565b6000610aee8383611081565b6000610aee836001600160a01b0384166110ab565b6000610579825490565b6000818152600183016020526040812054610f7b57508154600181810184556000848152602080822090930184905584548482528286019093526040902091909155610579565b506000610579565b60006001600160e01b03198216637965db0b60e01b148061057957506301ffc9a760e01b6001600160e01b0319831614610579565b610fc28282610af5565b61089357610fda816001600160a01b0316601461119e565b610fe583602061119e565b604051602001610ff69291906115bb565b60408051601f198184030181529082905262461bcd60e51b825261088091600401611630565b6110268282610af5565b15610893576000828152602081815260408083206001600160a01b0385168085529252808320805460ff1916905551339285917ff6391f5c32d9c69d2a47ea670b442974b53935d1edc7fd64eb21e047a839171b9190a45050565b600082600001828154811061109857611098611663565b9060005260206000200154905092915050565b600081815260018301602052604081205480156111945760006110cf600183611679565b85549091506000906110e390600190611679565b905081811461114857600086600001828154811061110357611103611663565b906000526020600020015490508087600001848154811061112657611126611663565b6000918252602080832090910192909255918252600188019052604090208390555b855486908061115957611159611690565b600190038181906000526020600020016000905590558560010160008681526020019081526020016000206000905560019350505050610579565b6000915050610579565b606060006111ad83600261147c565b6111b89060026116a6565b67ffffffffffffffff8111156111d0576111d06116be565b6040519080825280601f01601f1916602001820160405280156111fa576020820181803683370190505b509050600360fc1b8160008151811061121557611215611663565b60200101906001600160f81b031916908160001a905350600f60fb1b8160018151811061124457611244611663565b60200101906001600160f81b031916908160001a905350600061126884600261147c565b6112739060016116a6565b90505b60018111156112eb576f181899199a1a9b1b9c1cb0b131b232b360811b85600f16601081106112a7576112a7611663565b1a60f81b8282815181106112bd576112bd611663565b60200101906001600160f81b031916908160001a90535060049490941c936112e4816116d4565b9050611276565b508315610aee5760405162461bcd60e51b815260206004820181905260248201527f537472696e67733a20686578206c656e67746820696e73756666696369656e746044820152606401610880565b60006020828403121561134c57600080fd5b81356001600160e01b031981168114610aee57600080fd5b80356001600160a01b038116811461137b57600080fd5b919050565b6000806040838503121561139357600080fd5b61139c83611364565b946020939093013593505050565b6000602082840312156113bc57600080fd5b610aee82611364565b6000602082840312156113d757600080fd5b5035919050565b600060a082840312156113f057600080fd5b50919050565b6000806040838503121561140957600080fd5b8235915061141960208401611364565b90509250929050565b6000806040838503121561143557600080fd5b50508035926020909101359150565b634e487b7160e01b600052601160045260246000fd5b60008261147757634e487b7160e01b600052601260045260246000fd5b500490565b600081600019048311821515161561149657611496611444565b500290565b600181815b808511156114d65781600019048211156114bc576114bc611444565b808516156114c957918102915b93841c93908002906114a0565b509250929050565b6000826114ed57506001610579565b816114fa57506000610579565b8160018114611510576002811461151a57611536565b6001915050610579565b60ff84111561152b5761152b611444565b50506001821b610579565b5060208310610133831016604e8410600b8410161715611559575081810a610579565b611563838361149b565b806000190482111561157757611577611444565b029392505050565b6000610aee83836114de565b60005b838110156115a657818101518382015260200161158e565b838111156115b5576000848401525b50505050565b7f416363657373436f6e74726f6c3a206163636f756e74200000000000000000008152600083516115f381601785016020880161158b565b7001034b99036b4b9b9b4b733903937b6329607d1b601791840191820152835161162481602884016020880161158b565b01602801949350505050565b602081526000825180602084015261164f81604085016020870161158b565b601f01601f19169190910160400192915050565b634e487b7160e01b600052603260045260246000fd5b60008282101561168b5761168b611444565b500390565b634e487b7160e01b600052603160045260246000fd5b600082198211156116b9576116b9611444565b500190565b634e487b7160e01b600052604160045260246000fd5b6000816116e3576116e3611444565b50600019019056fea2646970667358221220c3b777c894140678191aae4d0ea2d1d553ef82e9ba6db29c0f2a2fc503258d5264736f6c634300080d0033f23ec0bb4210edd5cba85afd05127efcd2fc6a781bfed49188da1081670b22d846a52cf33029de9f84853745a87af28464c80bf0346df1b32e205fc73319f622",
    "linkReferences": {}
  },
  "methodIdentifiers": {
    "ADMIN_DELEGATE_ROLE()": "0952ff54",
    "ADMIN_ROLE()": "75b238fc",
    "DEFAULT_ADMIN_ROLE()": "a217fddf",
    "DENOMINATOR()": "918f8674",
    "MAX_LIQUIDATION_FEE_RATE()": "cd9e7036",
    "MAX_NFT_CAPITAL_LIMIT_USD()": "63cf6582",
    "MAX_PERCENTAGE_RATE()": "139fdadd",
    "OPERATOR()": "983d2737",
    "TOKEN_DECIMALS()": "5b7f415c",
    "changeLiquidationFee(uint256)": "4d6bbf10",
    "changeLiquidationPremium(uint256)": "4b85917f",
    "changeMaxDebtPerVault(uint256)": "ad88de45",
    "changeMinSingleNftCapital(uint256)": "72260957",
    "changeStabilizationFee(uint256)": "749f60f3",
    "getRoleAdmin(bytes32)": "248a9ca3",
    "getRoleMember(bytes32,uint256)": "9010d07c",
    "getRoleMemberCount(bytes32)": "ca15c873",
    "getTokenLimit(address)": "5a860c87",
    "grantRole(bytes32,address)": "2f2ff15d",
    "hasRole(bytes32,address)": "91d14854",
    "isAdmin(address)": "24d7806c",
    "isOperator(address)": "6d70f7ae",
    "isPoolWhitelisted(address)": "2b26a982",
    "isTokenCapitalLimited(address)": "9945435b",
    "liquidationThreshold(address)": "b1732b25",
    "protocolParams()": "93aab9d5",
    "renounceRole(bytes32,address)": "36568abe",
    "revokeRole(bytes32,address)": "d547741f",
    "revokeWhitelistedPool(address)": "92c796eb",
    "setLiquidationThreshold(address,uint256)": "0e30428d",
    "setParams((uint256,uint256,uint256,uint256,uint256))": "2ee16e34",
    "setTokenLimit(address,uint256)": "bc017637",
    "setWhitelistedPool(address)": "1c0a5914",
    "supportsInterface(bytes4)": "01ffc9a7",
    "tokenCapitalLimit(address)": "45b49467"
  },
  "id": 20
}