{
  "abi": [
    {
      "inputs": [
        {
          "internalType": "address",
          "name": "admin",
          "type": "address"
        }
      ],
      "stateMutability": "nonpayable",
      "type": "constructor"
    },
    {
      "inputs": [],
      "name": "AddressZero",
      "type": "error"
    },
    {
      "inputs": [],
      "name": "Forbidden",
      "type": "error"
    },
    {
      "anonymous": false,
      "inputs": [
        {
          "indexed": true,
          "internalType": "bytes32",
          "name": "role",
          "type": "bytes32"
        },
        {
          "indexed": true,
          "internalType": "bytes32",
          "name": "previousAdminRole",
          "type": "bytes32"
        },
        {
          "indexed": true,
          "internalType": "bytes32",
          "name": "newAdminRole",
          "type": "bytes32"
        }
      ],
      "name": "RoleAdminChanged",
      "type": "event"
    },
    {
      "anonymous": false,
      "inputs": [
        {
          "indexed": true,
          "internalType": "bytes32",
          "name": "role",
          "type": "bytes32"
        },
        {
          "indexed": true,
          "internalType": "address",
          "name": "account",
          "type": "address"
        },
        {
          "indexed": true,
          "internalType": "address",
          "name": "sender",
          "type": "address"
        }
      ],
      "name": "RoleGranted",
      "type": "event"
    },
    {
      "anonymous": false,
      "inputs": [
        {
          "indexed": true,
          "internalType": "bytes32",
          "name": "role",
          "type": "bytes32"
        },
        {
          "indexed": true,
          "internalType": "address",
          "name": "account",
          "type": "address"
        },
        {
          "indexed": true,
          "internalType": "address",
          "name": "sender",
          "type": "address"
        }
      ],
      "name": "RoleRevoked",
      "type": "event"
    },
    {
      "inputs": [],
      "name": "ADMIN_DELEGATE_ROLE",
      "outputs": [
        {
          "internalType": "bytes32",
          "name": "",
          "type": "bytes32"
        }
      ],
      "stateMutability": "view",
      "type": "function"
    },
    {
      "inputs": [],
      "name": "ADMIN_ROLE",
      "outputs": [
        {
          "internalType": "bytes32",
          "name": "",
          "type": "bytes32"
        }
      ],
      "stateMutability": "view",
      "type": "function"
    },
    {
      "inputs": [],
      "name": "DEFAULT_ADMIN_ROLE",
      "outputs": [
        {
          "internalType": "bytes32",
          "name": "",
          "type": "bytes32"
        }
      ],
      "stateMutability": "view",
      "type": "function"
    },
    {
      "inputs": [],
      "name": "OPERATOR",
      "outputs": [
        {
          "internalType": "bytes32",
          "name": "",
          "type": "bytes32"
        }
      ],
      "stateMutability": "view",
      "type": "function"
    },
    {
      "inputs": [
        {
          "internalType": "bytes32",
          "name": "role",
          "type": "bytes32"
        }
      ],
      "name": "getRoleAdmin",
      "outputs": [
        {
          "internalType": "bytes32",
          "name": "",
          "type": "bytes32"
        }
      ],
      "stateMutability": "view",
      "type": "function"
    },
    {
      "inputs": [
        {
          "internalType": "bytes32",
          "name": "role",
          "type": "bytes32"
        },
        {
          "internalType": "uint256",
          "name": "index",
          "type": "uint256"
        }
      ],
      "name": "getRoleMember",
      "outputs": [
        {
          "internalType": "address",
          "name": "",
          "type": "address"
        }
      ],
      "stateMutability": "view",
      "type": "function"
    },
    {
      "inputs": [
        {
          "internalType": "bytes32",
          "name": "role",
          "type": "bytes32"
        }
      ],
      "name": "getRoleMemberCount",
      "outputs": [
        {
          "internalType": "uint256",
          "name": "",
          "type": "uint256"
        }
      ],
      "stateMutability": "view",
      "type": "function"
    },
    {
      "inputs": [
        {
          "internalType": "bytes32",
          "name": "role",
          "type": "bytes32"
        },
        {
          "internalType": "address",
          "name": "account",
          "type": "address"
        }
      ],
      "name": "grantRole",
      "outputs": [],
      "stateMutability": "nonpayable",
      "type": "function"
    },
    {
      "inputs": [
        {
          "internalType": "bytes32",
          "name": "role",
          "type": "bytes32"
        },
        {
          "internalType": "address",
          "name": "account",
          "type": "address"
        }
      ],
      "name": "hasRole",
      "outputs": [
        {
          "internalType": "bool",
          "name": "",
          "type": "bool"
        }
      ],
      "stateMutability": "view",
      "type": "function"
    },
    {
      "inputs": [
        {
          "internalType": "address",
          "name": "sender",
          "type": "address"
        }
      ],
      "name": "isAdmin",
      "outputs": [
        {
          "internalType": "bool",
          "name": "",
          "type": "bool"
        }
      ],
      "stateMutability": "view",
      "type": "function"
    },
    {
      "inputs": [
        {
          "internalType": "address",
          "name": "sender",
          "type": "address"
        }
      ],
      "name": "isOperator",
      "outputs": [
        {
          "internalType": "bool",
          "name": "",
          "type": "bool"
        }
      ],
      "stateMutability": "view",
      "type": "function"
    },
    {
      "inputs": [
        {
          "internalType": "bytes32",
          "name": "role",
          "type": "bytes32"
        },
        {
          "internalType": "address",
          "name": "account",
          "type": "address"
        }
      ],
      "name": "renounceRole",
      "outputs": [],
      "stateMutability": "nonpayable",
      "type": "function"
    },
    {
      "inputs": [
        {
          "internalType": "bytes32",
          "name": "role",
          "type": "bytes32"
        },
        {
          "internalType": "address",
          "name": "account",
          "type": "address"
        }
      ],
      "name": "revokeRole",
      "outputs": [],
      "stateMutability": "nonpayable",
      "type": "function"
    },
    {
      "inputs": [
        {
          "internalType": "bytes4",
          "name": "interfaceId",
          "type": "bytes4"
        }
      ],
      "name": "supportsInterface",
      "outputs": [
        {
          "internalType": "bool",
          "name": "",
          "type": "bool"
        }
      ],
      "stateMutability": "view",
      "type": "function"
    }
  ],
  "bytecode": {
    "object": "0x60806040523480156200001157600080fd5b5060405162000f6538038062000f658339810160408190526200003491620002da565b6001600160a01b0381166200005c57604051639fabe1c160e01b815260040160405180910390fd5b6200007760008051602062000f45833981519152826200012a565b6200009260008051602062000f25833981519152826200012a565b620000ad60008051602062000f25833981519152806200013a565b620000e87fc171260023d22a25a00a2789664c9334017843b831138c8ef03cc8897e5873d760008051602062000f258339815191526200013a565b6200012360008051602062000f458339815191527fc171260023d22a25a00a2789664c9334017843b831138c8ef03cc8897e5873d76200013a565b506200030c565b62000136828262000185565b5050565b600082815260208190526040808220600101805490849055905190918391839186917fbd79b86ffe0ab8e8776151514217cd7cacd52c909f66475c3af44e129f0b00ff9190a4505050565b6200019c8282620001c860201b6200045b1760201c565b6000828152600160209081526040909120620001c3918390620004df62000268821b17901c565b505050565b6000828152602081815260408083206001600160a01b038516845290915290205460ff1662000136576000828152602081815260408083206001600160a01b03851684529091529020805460ff19166001179055620002243390565b6001600160a01b0316816001600160a01b0316837f2f8788117e7eff1d82e926ec794901d17c78024a50270940304540a733656f0d60405160405180910390a45050565b60006200027f836001600160a01b03841662000288565b90505b92915050565b6000818152600183016020526040812054620002d15750815460018181018455600084815260208082209093018490558454848252828601909352604090209190915562000282565b50600062000282565b600060208284031215620002ed57600080fd5b81516001600160a01b03811681146200030557600080fd5b9392505050565b610c09806200031c6000396000f3fe608060405234801561001057600080fd5b50600436106100ea5760003560e01c806375b238fc1161008c578063983d273711610066578063983d273714610222578063a217fddf14610249578063ca15c87314610251578063d547741f1461026457600080fd5b806375b238fc146101bd5780639010d07c146101e457806391d148541461020f57600080fd5b806324d7806c116100c857806324d7806c1461016f5780632f2ff15d1461018257806336568abe146101975780636d70f7ae146101aa57600080fd5b806301ffc9a7146100ef5780630952ff5414610117578063248a9ca31461014c575b600080fd5b6101026100fd366004610976565b610277565b60405190151581526020015b60405180910390f35b61013e7fc171260023d22a25a00a2789664c9334017843b831138c8ef03cc8897e5873d781565b60405190815260200161010e565b61013e61015a3660046109a0565b60009081526020819052604090206001015490565b61010261017d3660046109d5565b6102a2565b6101956101903660046109f0565b6102fe565b005b6101956101a53660046109f0565b610328565b6101026101b83660046109d5565b6103ab565b61013e7ff23ec0bb4210edd5cba85afd05127efcd2fc6a781bfed49188da1081670b22d881565b6101f76101f2366004610a1c565b6103d7565b6040516001600160a01b03909116815260200161010e565b61010261021d3660046109f0565b6103f6565b61013e7f46a52cf33029de9f84853745a87af28464c80bf0346df1b32e205fc73319f62281565b61013e600081565b61013e61025f3660046109a0565b61041f565b6101956102723660046109f0565b610436565b60006001600160e01b03198216635a05180f60e01b148061029c575061029c826104f4565b92915050565b60006102ce7ff23ec0bb4210edd5cba85afd05127efcd2fc6a781bfed49188da1081670b22d8836103f6565b8061029c575061029c7fc171260023d22a25a00a2789664c9334017843b831138c8ef03cc8897e5873d7836103f6565b60008281526020819052604090206001015461031981610529565b6103238383610536565b505050565b6001600160a01b038116331461039d5760405162461bcd60e51b815260206004820152602f60248201527f416363657373436f6e74726f6c3a2063616e206f6e6c792072656e6f756e636560448201526e103937b632b9903337b91039b2b63360891b60648201526084015b60405180910390fd5b6103a78282610558565b5050565b600061029c7f46a52cf33029de9f84853745a87af28464c80bf0346df1b32e205fc73319f622836103f6565b60008281526001602052604081206103ef908361057a565b9392505050565b6000918252602082815260408084206001600160a01b0393909316845291905290205460ff1690565b600081815260016020526040812061029c90610586565b60008281526020819052604090206001015461045181610529565b6103238383610558565b61046582826103f6565b6103a7576000828152602081815260408083206001600160a01b03851684529091529020805460ff1916600117905561049b3390565b6001600160a01b0316816001600160a01b0316837f2f8788117e7eff1d82e926ec794901d17c78024a50270940304540a733656f0d60405160405180910390a45050565b60006103ef836001600160a01b038416610590565b60006001600160e01b03198216637965db0b60e01b148061029c57506301ffc9a760e01b6001600160e01b031983161461029c565b61053381336105df565b50565b610540828261045b565b600082815260016020526040902061032390826104df565b6105628282610643565b600082815260016020526040902061032390826106a8565b60006103ef83836106bd565b600061029c825490565b60008181526001830160205260408120546105d75750815460018181018455600084815260208082209093018490558454848252828601909352604090209190915561029c565b50600061029c565b6105e982826103f6565b6103a757610601816001600160a01b031660146106e7565b61060c8360206106e7565b60405160200161061d929190610a6e565b60408051601f198184030181529082905262461bcd60e51b825261039491600401610ae3565b61064d82826103f6565b156103a7576000828152602081815260408083206001600160a01b0385168085529252808320805460ff1916905551339285917ff6391f5c32d9c69d2a47ea670b442974b53935d1edc7fd64eb21e047a839171b9190a45050565b60006103ef836001600160a01b038416610883565b60008260000182815481106106d4576106d4610b16565b9060005260206000200154905092915050565b606060006106f6836002610b42565b610701906002610b61565b67ffffffffffffffff81111561071957610719610b79565b6040519080825280601f01601f191660200182016040528015610743576020820181803683370190505b509050600360fc1b8160008151811061075e5761075e610b16565b60200101906001600160f81b031916908160001a905350600f60fb1b8160018151811061078d5761078d610b16565b60200101906001600160f81b031916908160001a90535060006107b1846002610b42565b6107bc906001610b61565b90505b6001811115610834576f181899199a1a9b1b9c1cb0b131b232b360811b85600f16601081106107f0576107f0610b16565b1a60f81b82828151811061080657610806610b16565b60200101906001600160f81b031916908160001a90535060049490941c9361082d81610b8f565b90506107bf565b5083156103ef5760405162461bcd60e51b815260206004820181905260248201527f537472696e67733a20686578206c656e67746820696e73756666696369656e746044820152606401610394565b6000818152600183016020526040812054801561096c5760006108a7600183610ba6565b85549091506000906108bb90600190610ba6565b90508181146109205760008660000182815481106108db576108db610b16565b90600052602060002001549050808760000184815481106108fe576108fe610b16565b6000918252602080832090910192909255918252600188019052604090208390555b855486908061093157610931610bbd565b60019003818190600052602060002001600090559055856001016000868152602001908152602001600020600090556001935050505061029c565b600091505061029c565b60006020828403121561098857600080fd5b81356001600160e01b0319811681146103ef57600080fd5b6000602082840312156109b257600080fd5b5035919050565b80356001600160a01b03811681146109d057600080fd5b919050565b6000602082840312156109e757600080fd5b6103ef826109b9565b60008060408385031215610a0357600080fd5b82359150610a13602084016109b9565b90509250929050565b60008060408385031215610a2f57600080fd5b50508035926020909101359150565b60005b83811015610a59578181015183820152602001610a41565b83811115610a68576000848401525b50505050565b7f416363657373436f6e74726f6c3a206163636f756e7420000000000000000000815260008351610aa6816017850160208801610a3e565b7001034b99036b4b9b9b4b733903937b6329607d1b6017918401918201528351610ad7816028840160208801610a3e565b01602801949350505050565b6020815260008251806020840152610b02816040850160208701610a3e565b601f01601f19169190910160400192915050565b634e487b7160e01b600052603260045260246000fd5b634e487b7160e01b600052601160045260246000fd5b6000816000190483118215151615610b5c57610b5c610b2c565b500290565b60008219821115610b7457610b74610b2c565b500190565b634e487b7160e01b600052604160045260246000fd5b600081610b9e57610b9e610b2c565b506000190190565b600082821015610bb857610bb8610b2c565b500390565b634e487b7160e01b600052603160045260246000fdfea264697066735822122022cdd0f2db9fb948fee059ac57d7db18a5bf94750403b6c997ff1d389ba2952064736f6c634300080d0033f23ec0bb4210edd5cba85afd05127efcd2fc6a781bfed49188da1081670b22d846a52cf33029de9f84853745a87af28464c80bf0346df1b32e205fc73319f622",
    "linkReferences": {}
  },
  "methodIdentifiers": {
    "ADMIN_DELEGATE_ROLE()": "0952ff54",
    "ADMIN_ROLE()": "75b238fc",
    "DEFAULT_ADMIN_ROLE()": "a217fddf",
    "OPERATOR()": "983d2737",
    "getRoleAdmin(bytes32)": "248a9ca3",
    "getRoleMember(bytes32,uint256)": "9010d07c",
    "getRoleMemberCount(bytes32)": "ca15c873",
    "grantRole(bytes32,address)": "2f2ff15d",
    "hasRole(bytes32,address)": "91d14854",
    "isAdmin(address)": "24d7806c",
    "isOperator(address)": "6d70f7ae",
    "renounceRole(bytes32,address)": "36568abe",
    "revokeRole(bytes32,address)": "d547741f",
    "supportsInterface(bytes4)": "01ffc9a7"
  },
  "id": 44
}