{
  "abi": [
    {
      "inputs": [
        {
          "internalType": "address",
          "name": "admin",
          "type": "address"
        },
        {
          "internalType": "contract INonfungiblePositionManager",
          "name": "positionManager_",
          "type": "address"
        },
        {
          "internalType": "contract IUniswapV3Factory",
          "name": "factory_",
          "type": "address"
        },
        {
          "internalType": "contract IProtocolGovernance",
          "name": "protocolGovernance_",
          "type": "address"
        },
        {
          "internalType": "contract IOracle",
          "name": "oracle_",
          "type": "address"
        },
        {
          "internalType": "address",
          "name": "treasury_",
          "type": "address"
        },
        {
          "internalType": "uint256",
          "name": "stabilisationFee_",
          "type": "uint256"
        }
      ],
      "stateMutability": "nonpayable",
      "type": "constructor"
    },
    {
      "inputs": [],
      "name": "AddressZero",
      "type": "error"
    },
    {
      "inputs": [],
      "name": "AllowList",
      "type": "error"
    },
    {
      "inputs": [
        {
          "internalType": "address",
          "name": "token",
          "type": "address"
        }
      ],
      "name": "CollateralTokenOverflow",
      "type": "error"
    },
    {
      "inputs": [],
      "name": "CollateralUnderflow",
      "type": "error"
    },
    {
      "inputs": [],
      "name": "DebtLimitExceeded",
      "type": "error"
    },
    {
      "inputs": [],
      "name": "DebtOverflow",
      "type": "error"
    },
    {
      "inputs": [],
      "name": "Forbidden",
      "type": "error"
    },
    {
      "inputs": [],
      "name": "InvalidPool",
      "type": "error"
    },
    {
      "inputs": [],
      "name": "InvalidValue",
      "type": "error"
    },
    {
      "inputs": [],
      "name": "Paused",
      "type": "error"
    },
    {
      "inputs": [],
      "name": "PositionHealthy",
      "type": "error"
    },
    {
      "inputs": [],
      "name": "PositionUnhealthy",
      "type": "error"
    },
    {
      "inputs": [],
      "name": "TokenSet",
      "type": "error"
    },
    {
      "inputs": [],
      "name": "UnpaidDebt",
      "type": "error"
    },
    {
      "anonymous": false,
      "inputs": [
        {
          "indexed": true,
          "internalType": "address",
          "name": "origin",
          "type": "address"
        },
        {
          "indexed": true,
          "internalType": "address",
          "name": "sender",
          "type": "address"
        },
        {
          "indexed": false,
          "internalType": "uint256",
          "name": "vaultId",
          "type": "uint256"
        },
        {
          "indexed": false,
          "internalType": "uint256",
          "name": "tokenId",
          "type": "uint256"
        }
      ],
      "name": "CollateralDeposited",
      "type": "event"
    },
    {
      "anonymous": false,
      "inputs": [
        {
          "indexed": true,
          "internalType": "address",
          "name": "origin",
          "type": "address"
        },
        {
          "indexed": true,
          "internalType": "address",
          "name": "sender",
          "type": "address"
        },
        {
          "indexed": false,
          "internalType": "uint256",
          "name": "vaultId",
          "type": "uint256"
        },
        {
          "indexed": false,
          "internalType": "uint256",
          "name": "tokenId",
          "type": "uint256"
        }
      ],
      "name": "CollateralWithdrew",
      "type": "event"
    },
    {
      "anonymous": false,
      "inputs": [
        {
          "indexed": true,
          "internalType": "address",
          "name": "origin",
          "type": "address"
        },
        {
          "indexed": true,
          "internalType": "address",
          "name": "sender",
          "type": "address"
        },
        {
          "indexed": false,
          "internalType": "uint256",
          "name": "vaultId",
          "type": "uint256"
        },
        {
          "indexed": false,
          "internalType": "uint256",
          "name": "amount",
          "type": "uint256"
        }
      ],
      "name": "DebtBurned",
      "type": "event"
    },
    {
      "anonymous": false,
      "inputs": [
        {
          "indexed": true,
          "internalType": "address",
          "name": "origin",
          "type": "address"
        },
        {
          "indexed": true,
          "internalType": "address",
          "name": "sender",
          "type": "address"
        },
        {
          "indexed": false,
          "internalType": "uint256",
          "name": "vaultId",
          "type": "uint256"
        },
        {
          "indexed": false,
          "internalType": "uint256",
          "name": "amount",
          "type": "uint256"
        }
      ],
      "name": "DebtMinted",
      "type": "event"
    },
    {
      "anonymous": false,
      "inputs": [
        {
          "indexed": true,
          "internalType": "address",
          "name": "origin",
          "type": "address"
        },
        {
          "indexed": true,
          "internalType": "address",
          "name": "sender",
          "type": "address"
        },
        {
          "indexed": false,
          "internalType": "address",
          "name": "oracleAddress",
          "type": "address"
        }
      ],
      "name": "OracleUpdated",
      "type": "event"
    },
    {
      "anonymous": false,
      "inputs": [
        {
          "indexed": true,
          "internalType": "bytes32",
          "name": "role",
          "type": "bytes32"
        },
        {
          "indexed": true,
          "internalType": "bytes32",
          "name": "previousAdminRole",
          "type": "bytes32"
        },
        {
          "indexed": true,
          "internalType": "bytes32",
          "name": "newAdminRole",
          "type": "bytes32"
        }
      ],
      "name": "RoleAdminChanged",
      "type": "event"
    },
    {
      "anonymous": false,
      "inputs": [
        {
          "indexed": true,
          "internalType": "bytes32",
          "name": "role",
          "type": "bytes32"
        },
        {
          "indexed": true,
          "internalType": "address",
          "name": "account",
          "type": "address"
        },
        {
          "indexed": true,
          "internalType": "address",
          "name": "sender",
          "type": "address"
        }
      ],
      "name": "RoleGranted",
      "type": "event"
    },
    {
      "anonymous": false,
      "inputs": [
        {
          "indexed": true,
          "internalType": "bytes32",
          "name": "role",
          "type": "bytes32"
        },
        {
          "indexed": true,
          "internalType": "address",
          "name": "account",
          "type": "address"
        },
        {
          "indexed": true,
          "internalType": "address",
          "name": "sender",
          "type": "address"
        }
      ],
      "name": "RoleRevoked",
      "type": "event"
    },
    {
      "anonymous": false,
      "inputs": [
        {
          "indexed": true,
          "internalType": "address",
          "name": "origin",
          "type": "address"
        },
        {
          "indexed": true,
          "internalType": "address",
          "name": "sender",
          "type": "address"
        },
        {
          "indexed": false,
          "internalType": "uint256",
          "name": "stabilisationFee",
          "type": "uint256"
        }
      ],
      "name": "StabilisationFeeUpdated",
      "type": "event"
    },
    {
      "anonymous": false,
      "inputs": [
        {
          "indexed": true,
          "internalType": "address",
          "name": "origin",
          "type": "address"
        },
        {
          "indexed": true,
          "internalType": "address",
          "name": "sender",
          "type": "address"
        }
      ],
      "name": "SystemPaused",
      "type": "event"
    },
    {
      "anonymous": false,
      "inputs": [
        {
          "indexed": true,
          "internalType": "address",
          "name": "origin",
          "type": "address"
        },
        {
          "indexed": true,
          "internalType": "address",
          "name": "sender",
          "type": "address"
        }
      ],
      "name": "SystemPrivate",
      "type": "event"
    },
    {
      "anonymous": false,
      "inputs": [
        {
          "indexed": true,
          "internalType": "address",
          "name": "origin",
          "type": "address"
        },
        {
          "indexed": true,
          "internalType": "address",
          "name": "sender",
          "type": "address"
        }
      ],
      "name": "SystemPublic",
      "type": "event"
    },
    {
      "anonymous": false,
      "inputs": [
        {
          "indexed": true,
          "internalType": "address",
          "name": "origin",
          "type": "address"
        },
        {
          "indexed": true,
          "internalType": "address",
          "name": "sender",
          "type": "address"
        }
      ],
      "name": "SystemUnpaused",
      "type": "event"
    },
    {
      "anonymous": false,
      "inputs": [
        {
          "indexed": true,
          "internalType": "address",
          "name": "origin",
          "type": "address"
        },
        {
          "indexed": true,
          "internalType": "address",
          "name": "sender",
          "type": "address"
        },
        {
          "indexed": false,
          "internalType": "address",
          "name": "tokenAddress",
          "type": "address"
        }
      ],
      "name": "TokenUpdated",
      "type": "event"
    },
    {
      "anonymous": false,
      "inputs": [
        {
          "indexed": true,
          "internalType": "address",
          "name": "origin",
          "type": "address"
        },
        {
          "indexed": true,
          "internalType": "address",
          "name": "sender",
          "type": "address"
        },
        {
          "indexed": false,
          "internalType": "uint256",
          "name": "vaultId",
          "type": "uint256"
        }
      ],
      "name": "VaultClosed",
      "type": "event"
    },
    {
      "anonymous": false,
      "inputs": [
        {
          "indexed": true,
          "internalType": "address",
          "name": "origin",
          "type": "address"
        },
        {
          "indexed": true,
          "internalType": "address",
          "name": "sender",
          "type": "address"
        },
        {
          "indexed": false,
          "internalType": "uint256",
          "name": "vaultId",
          "type": "uint256"
        }
      ],
      "name": "VaultLiquidated",
      "type": "event"
    },
    {
      "anonymous": false,
      "inputs": [
        {
          "indexed": true,
          "internalType": "address",
          "name": "origin",
          "type": "address"
        },
        {
          "indexed": true,
          "internalType": "address",
          "name": "sender",
          "type": "address"
        },
        {
          "indexed": false,
          "internalType": "uint256",
          "name": "vaultId",
          "type": "uint256"
        }
      ],
      "name": "VaultOpened",
      "type": "event"
    },
    {
      "inputs": [],
      "name": "ADMIN_DELEGATE_ROLE",
      "outputs": [
        {
          "internalType": "bytes32",
          "name": "",
          "type": "bytes32"
        }
      ],
      "stateMutability": "view",
      "type": "function"
    },
    {
      "inputs": [],
      "name": "ADMIN_ROLE",
      "outputs": [
        {
          "internalType": "bytes32",
          "name": "",
          "type": "bytes32"
        }
      ],
      "stateMutability": "view",
      "type": "function"
    },
    {
      "inputs": [],
      "name": "DEFAULT_ADMIN_ROLE",
      "outputs": [
        {
          "internalType": "bytes32",
          "name": "",
          "type": "bytes32"
        }
      ],
      "stateMutability": "view",
      "type": "function"
    },
    {
      "inputs": [],
      "name": "DENOMINATOR",
      "outputs": [
        {
          "internalType": "uint256",
          "name": "",
          "type": "uint256"
        }
      ],
      "stateMutability": "view",
      "type": "function"
    },
    {
      "inputs": [],
      "name": "OPERATOR",
      "outputs": [
        {
          "internalType": "bytes32",
          "name": "",
          "type": "bytes32"
        }
      ],
      "stateMutability": "view",
      "type": "function"
    },
    {
      "inputs": [],
      "name": "Q128",
      "outputs": [
        {
          "internalType": "uint256",
          "name": "",
          "type": "uint256"
        }
      ],
      "stateMutability": "view",
      "type": "function"
    },
    {
      "inputs": [],
      "name": "Q96",
      "outputs": [
        {
          "internalType": "uint256",
          "name": "",
          "type": "uint256"
        }
      ],
      "stateMutability": "view",
      "type": "function"
    },
    {
      "inputs": [],
      "name": "YEAR",
      "outputs": [
        {
          "internalType": "uint256",
          "name": "",
          "type": "uint256"
        }
      ],
      "stateMutability": "view",
      "type": "function"
    },
    {
      "inputs": [
        {
          "internalType": "address[]",
          "name": "depositors",
          "type": "address[]"
        }
      ],
      "name": "addDepositorsToAllowlist",
      "outputs": [],
      "stateMutability": "nonpayable",
      "type": "function"
    },
    {
      "inputs": [
        {
          "internalType": "uint256",
          "name": "vaultId",
          "type": "uint256"
        },
        {
          "internalType": "uint256",
          "name": "amount",
          "type": "uint256"
        }
      ],
      "name": "burnDebt",
      "outputs": [],
      "stateMutability": "nonpayable",
      "type": "function"
    },
    {
      "inputs": [
        {
          "internalType": "uint256",
          "name": "vaultId",
          "type": "uint256"
        }
      ],
      "name": "calculateHealthFactor",
      "outputs": [
        {
          "internalType": "uint256",
          "name": "",
          "type": "uint256"
        }
      ],
      "stateMutability": "view",
      "type": "function"
    },
    {
      "inputs": [
        {
          "internalType": "uint256",
          "name": "vaultId",
          "type": "uint256"
        }
      ],
      "name": "closeVault",
      "outputs": [],
      "stateMutability": "nonpayable",
      "type": "function"
    },
    {
      "inputs": [
        {
          "internalType": "uint256",
          "name": "",
          "type": "uint256"
        }
      ],
      "name": "debt",
      "outputs": [
        {
          "internalType": "uint256",
          "name": "",
          "type": "uint256"
        }
      ],
      "stateMutability": "view",
      "type": "function"
    },
    {
      "inputs": [
        {
          "internalType": "uint256",
          "name": "",
          "type": "uint256"
        }
      ],
      "name": "debtFee",
      "outputs": [
        {
          "internalType": "uint256",
          "name": "",
          "type": "uint256"
        }
      ],
      "stateMutability": "view",
      "type": "function"
    },
    {
      "inputs": [
        {
          "internalType": "uint256",
          "name": "vaultId",
          "type": "uint256"
        },
        {
          "internalType": "uint256",
          "name": "nft",
          "type": "uint256"
        }
      ],
      "name": "depositCollateral",
      "outputs": [],
      "stateMutability": "nonpayable",
      "type": "function"
    },
    {
      "inputs": [],
      "name": "depositorsAllowlist",
      "outputs": [
        {
          "internalType": "address[]",
          "name": "",
          "type": "address[]"
        }
      ],
      "stateMutability": "view",
      "type": "function"
    },
    {
      "inputs": [],
      "name": "factory",
      "outputs": [
        {
          "internalType": "contract IUniswapV3Factory",
          "name": "",
          "type": "address"
        }
      ],
      "stateMutability": "view",
      "type": "function"
    },
    {
      "inputs": [
        {
          "internalType": "uint256",
          "name": "vaultId",
          "type": "uint256"
        }
      ],
      "name": "getOverallDebt",
      "outputs": [
        {
          "internalType": "uint256",
          "name": "",
          "type": "uint256"
        }
      ],
      "stateMutability": "view",
      "type": "function"
    },
    {
      "inputs": [
        {
          "internalType": "bytes32",
          "name": "role",
          "type": "bytes32"
        }
      ],
      "name": "getRoleAdmin",
      "outputs": [
        {
          "internalType": "bytes32",
          "name": "",
          "type": "bytes32"
        }
      ],
      "stateMutability": "view",
      "type": "function"
    },
    {
      "inputs": [
        {
          "internalType": "bytes32",
          "name": "role",
          "type": "bytes32"
        },
        {
          "internalType": "uint256",
          "name": "index",
          "type": "uint256"
        }
      ],
      "name": "getRoleMember",
      "outputs": [
        {
          "internalType": "address",
          "name": "",
          "type": "address"
        }
      ],
      "stateMutability": "view",
      "type": "function"
    },
    {
      "inputs": [
        {
          "internalType": "bytes32",
          "name": "role",
          "type": "bytes32"
        }
      ],
      "name": "getRoleMemberCount",
      "outputs": [
        {
          "internalType": "uint256",
          "name": "",
          "type": "uint256"
        }
      ],
      "stateMutability": "view",
      "type": "function"
    },
    {
      "inputs": [
        {
          "internalType": "bytes32",
          "name": "role",
          "type": "bytes32"
        },
        {
          "internalType": "address",
          "name": "account",
          "type": "address"
        }
      ],
      "name": "grantRole",
      "outputs": [],
      "stateMutability": "nonpayable",
      "type": "function"
    },
    {
      "inputs": [
        {
          "internalType": "bytes32",
          "name": "role",
          "type": "bytes32"
        },
        {
          "internalType": "address",
          "name": "account",
          "type": "address"
        }
      ],
      "name": "hasRole",
      "outputs": [
        {
          "internalType": "bool",
          "name": "",
          "type": "bool"
        }
      ],
      "stateMutability": "view",
      "type": "function"
    },
    {
      "inputs": [
        {
          "internalType": "address",
          "name": "sender",
          "type": "address"
        }
      ],
      "name": "isAdmin",
      "outputs": [
        {
          "internalType": "bool",
          "name": "",
          "type": "bool"
        }
      ],
      "stateMutability": "view",
      "type": "function"
    },
    {
      "inputs": [
        {
          "internalType": "address",
          "name": "sender",
          "type": "address"
        }
      ],
      "name": "isOperator",
      "outputs": [
        {
          "internalType": "bool",
          "name": "",
          "type": "bool"
        }
      ],
      "stateMutability": "view",
      "type": "function"
    },
    {
      "inputs": [],
      "name": "isPaused",
      "outputs": [
        {
          "internalType": "bool",
          "name": "",
          "type": "bool"
        }
      ],
      "stateMutability": "view",
      "type": "function"
    },
    {
      "inputs": [],
      "name": "isPrivate",
      "outputs": [
        {
          "internalType": "bool",
          "name": "",
          "type": "bool"
        }
      ],
      "stateMutability": "view",
      "type": "function"
    },
    {
      "inputs": [
        {
          "internalType": "uint256",
          "name": "vaultId",
          "type": "uint256"
        }
      ],
      "name": "liquidate",
      "outputs": [],
      "stateMutability": "nonpayable",
      "type": "function"
    },
    {
      "inputs": [],
      "name": "makePrivate",
      "outputs": [],
      "stateMutability": "nonpayable",
      "type": "function"
    },
    {
      "inputs": [],
      "name": "makePublic",
      "outputs": [],
      "stateMutability": "nonpayable",
      "type": "function"
    },
    {
      "inputs": [
        {
          "internalType": "address",
          "name": "",
          "type": "address"
        }
      ],
      "name": "maxCollateralSupply",
      "outputs": [
        {
          "internalType": "uint256",
          "name": "",
          "type": "uint256"
        }
      ],
      "stateMutability": "view",
      "type": "function"
    },
    {
      "inputs": [
        {
          "internalType": "uint256",
          "name": "vaultId",
          "type": "uint256"
        },
        {
          "internalType": "uint256",
          "name": "amount",
          "type": "uint256"
        }
      ],
      "name": "mintDebt",
      "outputs": [],
      "stateMutability": "nonpayable",
      "type": "function"
    },
    {
      "inputs": [],
      "name": "openVault",
      "outputs": [
        {
          "internalType": "uint256",
          "name": "vaultId",
          "type": "uint256"
        }
      ],
      "stateMutability": "nonpayable",
      "type": "function"
    },
    {
      "inputs": [],
      "name": "oracle",
      "outputs": [
        {
          "internalType": "contract IOracle",
          "name": "",
          "type": "address"
        }
      ],
      "stateMutability": "view",
      "type": "function"
    },
    {
      "inputs": [
        {
          "internalType": "address",
          "name": "target",
          "type": "address"
        }
      ],
      "name": "ownedVaultsByAddress",
      "outputs": [
        {
          "internalType": "uint256[]",
          "name": "",
          "type": "uint256[]"
        }
      ],
      "stateMutability": "view",
      "type": "function"
    },
    {
      "inputs": [],
      "name": "pause",
      "outputs": [],
      "stateMutability": "nonpayable",
      "type": "function"
    },
    {
      "inputs": [],
      "name": "positionManager",
      "outputs": [
        {
          "internalType": "contract INonfungiblePositionManager",
          "name": "",
          "type": "address"
        }
      ],
      "stateMutability": "view",
      "type": "function"
    },
    {
      "inputs": [],
      "name": "protocolGovernance",
      "outputs": [
        {
          "internalType": "contract IProtocolGovernance",
          "name": "",
          "type": "address"
        }
      ],
      "stateMutability": "view",
      "type": "function"
    },
    {
      "inputs": [
        {
          "internalType": "address[]",
          "name": "depositors",
          "type": "address[]"
        }
      ],
      "name": "removeDepositorsFromAllowlist",
      "outputs": [],
      "stateMutability": "nonpayable",
      "type": "function"
    },
    {
      "inputs": [
        {
          "internalType": "bytes32",
          "name": "role",
          "type": "bytes32"
        },
        {
          "internalType": "address",
          "name": "account",
          "type": "address"
        }
      ],
      "name": "renounceRole",
      "outputs": [],
      "stateMutability": "nonpayable",
      "type": "function"
    },
    {
      "inputs": [
        {
          "internalType": "bytes32",
          "name": "role",
          "type": "bytes32"
        },
        {
          "internalType": "address",
          "name": "account",
          "type": "address"
        }
      ],
      "name": "revokeRole",
      "outputs": [],
      "stateMutability": "nonpayable",
      "type": "function"
    },
    {
      "inputs": [
        {
          "internalType": "contract IOracle",
          "name": "oracle_",
          "type": "address"
        }
      ],
      "name": "setOracle",
      "outputs": [],
      "stateMutability": "nonpayable",
      "type": "function"
    },
    {
      "inputs": [
        {
          "internalType": "contract IMUSD",
          "name": "token_",
          "type": "address"
        }
      ],
      "name": "setToken",
      "outputs": [],
      "stateMutability": "nonpayable",
      "type": "function"
    },
    {
      "inputs": [],
      "name": "stabilisationFee",
      "outputs": [
        {
          "internalType": "uint256",
          "name": "",
          "type": "uint256"
        }
      ],
      "stateMutability": "view",
      "type": "function"
    },
    {
      "inputs": [
        {
          "internalType": "uint256",
          "name": "",
          "type": "uint256"
        }
      ],
      "name": "stabilisationFeeUpdate",
      "outputs": [
        {
          "internalType": "uint256",
          "name": "",
          "type": "uint256"
        }
      ],
      "stateMutability": "view",
      "type": "function"
    },
    {
      "inputs": [
        {
          "internalType": "uint256",
          "name": "",
          "type": "uint256"
        }
      ],
      "name": "stabilisationFeeUpdateTimestamp",
      "outputs": [
        {
          "internalType": "uint256",
          "name": "",
          "type": "uint256"
        }
      ],
      "stateMutability": "view",
      "type": "function"
    },
    {
      "inputs": [
        {
          "internalType": "bytes4",
          "name": "interfaceId",
          "type": "bytes4"
        }
      ],
      "name": "supportsInterface",
      "outputs": [
        {
          "internalType": "bool",
          "name": "",
          "type": "bool"
        }
      ],
      "stateMutability": "view",
      "type": "function"
    },
    {
      "inputs": [],
      "name": "token",
      "outputs": [
        {
          "internalType": "contract IMUSD",
          "name": "",
          "type": "address"
        }
      ],
      "stateMutability": "view",
      "type": "function"
    },
    {
      "inputs": [],
      "name": "treasury",
      "outputs": [
        {
          "internalType": "address",
          "name": "",
          "type": "address"
        }
      ],
      "stateMutability": "view",
      "type": "function"
    },
    {
      "inputs": [],
      "name": "unpause",
      "outputs": [],
      "stateMutability": "nonpayable",
      "type": "function"
    },
    {
      "inputs": [
        {
          "internalType": "uint256",
          "name": "stabilisationFee_",
          "type": "uint256"
        }
      ],
      "name": "updateStabilisationFee",
      "outputs": [],
      "stateMutability": "nonpayable",
      "type": "function"
    },
    {
      "inputs": [],
      "name": "vaultCount",
      "outputs": [
        {
          "internalType": "uint256",
          "name": "",
          "type": "uint256"
        }
      ],
      "stateMutability": "view",
      "type": "function"
    },
    {
      "inputs": [
        {
          "internalType": "uint256",
          "name": "vaultId",
          "type": "uint256"
        }
      ],
      "name": "vaultNftsById",
      "outputs": [
        {
          "internalType": "uint256[]",
          "name": "",
          "type": "uint256[]"
        }
      ],
      "stateMutability": "view",
      "type": "function"
    },
    {
      "inputs": [
        {
          "internalType": "uint256",
          "name": "",
          "type": "uint256"
        }
      ],
      "name": "vaultOwner",
      "outputs": [
        {
          "internalType": "address",
          "name": "",
          "type": "address"
        }
      ],
      "stateMutability": "view",
      "type": "function"
    },
    {
      "inputs": [
        {
          "internalType": "uint256",
          "name": "nft",
          "type": "uint256"
        }
      ],
      "name": "withdrawCollateral",
      "outputs": [],
      "stateMutability": "nonpayable",
      "type": "function"
    }
  ],
  "bytecode": {
    "object": "0x6101006040526003805461ffff60a01b1916600160a81b1790556000600e553480156200002b57600080fd5b5060405162004f8638038062004f868339810160408190526200004e9162000420565b866001600160a01b0381166200007757604051639fabe1c160e01b815260040160405180910390fd5b6200009260008051602062004f668339815191528262000257565b620000ad60008051602062004f468339815191528262000257565b620000c860008051602062004f468339815191528062000267565b620001037fc171260023d22a25a00a2789664c9334017843b831138c8ef03cc8897e5873d760008051602062004f4683398151915262000267565b6200013e60008051602062004f668339815191527fc171260023d22a25a00a2789664c9334017843b831138c8ef03cc8897e5873d762000267565b506001600160a01b03861615806200015d57506001600160a01b038516155b806200017057506001600160a01b038416155b806200018357506001600160a01b038316155b806200019657506001600160a01b038216155b15620001b557604051639fabe1c160e01b815260040160405180910390fd5b6001600160a01b0395861660805293851660a05291841660c052600280546001600160a01b03191691851691909117905590911660e052600f805460018181019092557f8d1108e10bcb7c27dddfc02ed9d693a074039d026cf4ea4240b40f7d581ac8020191909155601080549182018155600052427f1b6847dc741a1b0cd08d278845f9d819d87b734759afb55fe2de5cb82a9ae6729091015550620004bf565b620002638282620002b2565b5050565b600082815260208190526040808220600101805490849055905190918391839186917fbd79b86ffe0ab8e8776151514217cd7cacd52c909f66475c3af44e129f0b00ff9190a4505050565b620002c98282620002f560201b62002aad1760201c565b6000828152600160209081526040909120620002f091839062002b3162000395821b17901c565b505050565b6000828152602081815260408083206001600160a01b038516845290915290205460ff1662000263576000828152602081815260408083206001600160a01b03851684529091529020805460ff19166001179055620003513390565b6001600160a01b0316816001600160a01b0316837f2f8788117e7eff1d82e926ec794901d17c78024a50270940304540a733656f0d60405160405180910390a45050565b6000620003ac836001600160a01b038416620003b5565b90505b92915050565b6000818152600183016020526040812054620003fe57508154600181810184556000848152602080822090930184905584548482528286019093526040902091909155620003af565b506000620003af565b6001600160a01b03811681146200041d57600080fd5b50565b600080600080600080600060e0888a0312156200043c57600080fd5b8751620004498162000407565b60208901519097506200045c8162000407565b60408901519096506200046f8162000407565b6060890151909550620004828162000407565b6080890151909450620004958162000407565b60a0890151909350620004a88162000407565b8092505060c0880151905092959891949750929550565b60805160a05160c05160e0516149d662000570600039600081816105a8015281816110b60152611ccd01526000818161055b01528181610aa001528181610eda01528181610ff7015281816113df01528181611a5c015281816121170152818161274701528181612847015261295101526000818161076a0152612042015260008181610611015281816114d801528181611f9a015281816121a201528181612259015261347801526149d66000f3fe608060405234801561001057600080fd5b506004361061035d5760003560e01c80637adbf973116101d3578063a217fddf11610104578063d547741f116100a2578063ece137321161007c578063ece13732146107e5578063faff660e146107f8578063fc018c051461080c578063fc0c546a1461081457600080fd5b8063d547741f1461079f578063e273d23e146107b2578063e69f3ebf146107c557600080fd5b8063b187bd26116100de578063b187bd2614610746578063b4b15f711461075a578063c45a015514610765578063ca15c8731461078c57600080fd5b8063a217fddf14610722578063a7c6a1001461072a578063a8406ea31461073357600080fd5b8063918f867411610171578063965e7f271161014b578063965e7f27146106c0578063983d2737146106d35780639b52d8c8146106fa578063a09eb0e71461070d57600080fd5b8063918f86741461068f57806391b7ab471461069a57806391d14854146106ad57600080fd5b806383914540116101ad57806383914540146106615780638456cb591461066c57806386f54712146106745780639010d07c1461067c57600080fd5b80637adbf973146106335780637c84b40c146106465780637dc0d1d01461064e57600080fd5b806336568abe116102ad5780635d2bb9971161024b5780636ac90fd4116102255780636ac90fd4146105ca5780636d70f7ae146105d257806375b238fc146105e5578063791b98bc1461060c57600080fd5b80635d2bb9971461057d5780636112fe2e1461059057806361d027b3146105a357600080fd5b806340792465116102875780634079246514610525578063415f12401461053057806341b0cbf9146105435780635227ce4c1461055657600080fd5b806336568abe146104c95780633c2ecfe5146104dc5780633f4ba83a1461051d57600080fd5b8063248a9ca31161031a5780632b0eeec3116102f45780632b0eeec3146104705780632d922369146104905780632f2ff15d146104a3578063360c3288146104b657600080fd5b8063248a9ca31461041a57806324d7806c1461043d5780632a7c49e31461045057600080fd5b806301ffc9a7146103625780630952ff541461038a57806313a81c7c146103bf578063144fa6d7146103d45780631e0029c8146103e757806323a4deb514610407575b600080fd5b610375610370366004614243565b610827565b60405190151581526020015b60405180910390f35b6103b17fc171260023d22a25a00a2789664c9334017843b831138c8ef03cc8897e5873d781565b604051908152602001610381565b6103d26103cd36600461426d565b610852565b005b6103d26103e236600461429b565b610984565b6103b16103f536600461426d565b60096020526000908152604090205481565b6103b161041536600461426d565b610a2f565b6103b161042836600461426d565b60009081526020819052604090206001015490565b61037561044b36600461429b565b610c0d565b6103b161045e36600461426d565b600a6020526000908152604090205481565b61048361047e36600461429b565b610c69565b60405161038191906142b8565b6103b161049e36600461426d565b610c8d565b6103d26104b13660046142fc565b610cc7565b6103d26104c436600461426d565b610cf1565b6103d26104d73660046142fc565b610d89565b6105056104ea36600461426d565b6008602052600090815260409020546001600160a01b031681565b6040516001600160a01b039091168152602001610381565b6103d2610e0c565b6103b1600160601b81565b6103d261053e36600461426d565b610e50565b6103b161055136600461426d565b61128e565b6105057f000000000000000000000000000000000000000000000000000000000000000081565b61048361058b36600461426d565b6112af565b6103d261059e36600461426d565b6112c9565b6105057f000000000000000000000000000000000000000000000000000000000000000081565b6103b16116ce565b6103756105e036600461429b565b611702565b6103b17ff23ec0bb4210edd5cba85afd05127efcd2fc6a781bfed49188da1081670b22d881565b6105057f000000000000000000000000000000000000000000000000000000000000000081565b6103d261064136600461429b565b61172e565b6103d26117af565b600254610505906001600160a01b031681565b6103b16301e1338081565b6103d26117f9565b6103b1611843565b61050561068a36600461432c565b61192f565b6103b1633b9aca0081565b6103d26106a836600461434e565b61194e565b6103756106bb3660046142fc565b6119a6565b6103b16106ce36600461426d565b6119cf565b6103b17f46a52cf33029de9f84853745a87af28464c80bf0346df1b32e205fc73319f62281565b6103d261070836600461432c565b6119df565b610715611bff565b60405161038191906143c3565b6103b1600081565b6103b1600e5481565b6103d261074136600461432c565b611c10565b60035461037590600160a01b900460ff1681565b6103b1600160801b81565b6105057f000000000000000000000000000000000000000000000000000000000000000081565b6103b161079a36600461426d565b611e9c565b6103d26107ad3660046142fc565b611eb3565b6103d26107c036600461434e565b611ed8565b6103b16107d336600461429b565b600c6020526000908152604090205481565b6103d26107f336600461432c565b611f30565b60035461037590600160a81b900460ff1681565b6103d2612a69565b600354610505906001600160a01b031681565b60006001600160e01b03198216635a05180f60e01b148061084c575061084c82612b46565b92915050565b61085a612b7b565b633b9aca0081111561087f57604051632a9ffab760e21b815260040160405180910390fd5b6010805461088f9060019061441a565b8154811061089f5761089f614431565b906000526020600020015442111561091957600f805460018181019092557f8d1108e10bcb7c27dddfc02ed9d693a074039d026cf4ea4240b40f7d581ac80201829055601080549182018155600052427f1b6847dc741a1b0cd08d278845f9d819d87b734759afb55fe2de5cb82a9ae67290910155610949565b600f805482919061092c9060019061441a565b8154811061093c5761093c614431565b6000918252602090912001555b604051818152339032907f5bda82a5a2807e9bd9a418db16eadb64dee1d10796e84657bc3c8eb8d74bb368906020015b60405180910390a350565b61098c612b7b565b6001600160a01b0381166109b357604051639fabe1c160e01b815260040160405180910390fd5b6003546001600160a01b0316156109dd576040516311f9360560e31b815260040160405180910390fd5b600380546001600160a01b0319166001600160a01b038316908117909155604051908152339032907f9d203f9c7900cead6c642365d4d8ff9e6f6b4a2bb267d7f57d5c55a076ab825290602001610979565b600080805b6000848152600760205260409020610a4b90612ba3565b811015610c06576000848152600760205260408120610a6a9083612bad565b6000818152600d602052604080822060090154905163b1732b2560e01b81526001600160a01b03918216600482015292935090917f00000000000000000000000000000000000000000000000000000000000000009091169063b1732b2590602401602060405180830381865afa158015610ae9573d6000803e3d6000fd5b505050506040513d601f19601f82011682018060405250810190610b0d9190614447565b6000838152600d602090815260409182902082516101a08101845281546001600160a01b039081168252600183015480821694830194909452600160a01b90930462ffffff16938101939093526002810154606084015260038101546001600160801b039081166080850152600482015460a0850152600582015460c0850152600682015480821660e0860152600160801b90041661010084015260078101548216610120840152600881015482166101408401526009810154909116610160830152600a0154610180820152909150610be79082612bb9565b610bf19085614460565b9350505080610bff90614478565b9050610a34565b5092915050565b6000610c397ff23ec0bb4210edd5cba85afd05127efcd2fc6a781bfed49188da1081670b22d8836119a6565b8061084c575061084c7fc171260023d22a25a00a2789664c9334017843b831138c8ef03cc8897e5873d7836119a6565b6001600160a01b038116600090815260066020526040902060609061084c90612fba565b6000610c9882612fc7565b6000838152600a6020908152604080832054600990925290912054610cbd9190614460565b61084c9190614460565b600082815260208190526040902060010154610ce281613137565b610cec8383613144565b505050565b610cfa81613166565b610d038161319d565b600081815260096020526040902054151580610d2c57506000818152600a602052604090205415155b15610d4a576040516304aec73b60e01b815260040160405180910390fd5b610d55813333613207565b604051818152339032907f409a6f77c40c4b5ae8c4490a79b47623875cee640834986711c464b889470b2a90602001610979565b6001600160a01b0381163314610dfe5760405162461bcd60e51b815260206004820152602f60248201527f416363657373436f6e74726f6c3a2063616e206f6e6c792072656e6f756e636560448201526e103937b632b9903337b91039b2b63360891b60648201526084015b60405180910390fd5b610e0882826135ac565b5050565b610e14612b7b565b6003805460ff60a01b19169055604051339032907f4bc647b1389eed39d42705e843eb919035ed54c91277e71038dbce67bee26d4b90600090a3565b610e598161319d565b6000610e6482610a2f565b6000838152600a602090815260408083205460099092528220549293509091610e8d9190614460565b9050808210610eaf57604051630879983f60e21b815260040160405180910390fd5b6000838152600860205260408120546001600160a01b031690610ed1856135ce565b90506000610f777f00000000000000000000000000000000000000000000000000000000000000006001600160a01b03166393aab9d56040518163ffffffff1660e01b8152600401608060405180830381865afa158015610f36573d6000803e3d6000fd5b505050506040513d601f19601f82011682018060405250810190610f5a91906144a7565b60200151610f6c90633b9aca0061441a565b83633b9aca00613705565b6003546040516323b872dd60e01b81529192506001600160a01b0316906323b872dd90610fac9033903090869060040161451b565b6020604051808303816000875af1158015610fcb573d6000803e3d6000fd5b505050506040513d601f19601f82011682018060405250810190610fef9190614554565b5060006110837f00000000000000000000000000000000000000000000000000000000000000006001600160a01b03166393aab9d56040518163ffffffff1660e01b8152600401608060405180830381865afa158015611053573d6000803e3d6000fd5b505050506040513d601f19601f8201168201806040525081019061107791906144a7565b5184633b9aca00613705565b6000888152600a602052604090205461109c9190614460565b60035460405163a9059cbb60e01b81526001600160a01b037f0000000000000000000000000000000000000000000000000000000000000000811660048301526024820184905292935091169063a9059cbb906044016020604051808303816000875af1158015611111573d6000803e3d6000fd5b505050506040513d601f19601f820116820180604052508101906111359190614554565b506003546001600160a01b031663a9059cbb8587611153858761441a565b61115d919061441a565b6040516001600160e01b031960e085901b1681526001600160a01b03909216600483015260248201526044016020604051808303816000875af11580156111a8573d6000803e3d6000fd5b505050506040513d601f19601f820116820180604052508101906111cc9190614554565b5060035460008881526009602052604090819020549051632770a7eb60e21b81526001600160a01b0387811660048301526024820192909252911690639dc29fac90604401600060405180830381600087803b15801561122b57600080fd5b505af115801561123f573d6000803e3d6000fd5b5050505061124e878533613207565b604051878152339032907f85f837e9a8f4209c5d6729c62bbb02144f3904e1e039b7d444110dd96003d6269060200160405180910390a350505050505050565b6010818154811061129e57600080fd5b600091825260209091200154905081565b600081815260076020526040902060609061084c90612fba565b6112d16137b7565b6000818152600d602090815260409182902082516101a08101845281546001600160a01b039081168252600183015480821694830194909452600160a01b90930462ffffff16938101939093526002810154606084015260038101546001600160801b039081166080850152600482015460a0850152600582015460c0850152600682015480821660e0860152600160801b90041661010084015260078101548216610120840152600881015482166101408401526009810154909116610160830152600a015461018082018190526113a990613166565b6113b781610180015161319d565b61016081015160405163b1732b2560e01b81526001600160a01b0391821660048201526000917f0000000000000000000000000000000000000000000000000000000000000000169063b1732b2590602401602060405180830381865afa158015611426573d6000803e3d6000fd5b505050506040513d601f19601f8201168201806040525081019061144a9190614447565b905060006114588383612bb9565b611466846101800151610a2f565b611470919061441a565b610180840180516000908152600a60209081526040808320549351835260099091529020549192506114a191614460565b8110156114c157604051631d9d79c160e01b815260040160405180910390fd5b6040516323b872dd60e01b81526001600160a01b037f000000000000000000000000000000000000000000000000000000000000000016906323b872dd906115119030903390899060040161451b565b600060405180830381600087803b15801561152b57600080fd5b505af115801561153f573d6000803e3d6000fd5b50505050600061155e84610120015185610140015186608001516137e2565b9050600061157b856101200151866101400151876080015161385d565b85516001600160a01b03166000908152600c60205260408120805492935084929091906115a990849061441a565b90915550506020808601516001600160a01b03166000908152600c9091526040812080548392906115db90849061441a565b909155505061018085015160009081526007602052604090206115fe90876138a7565b506000868152600d6020908152604080832080546001600160a01b031990811682556001820180546001600160b81b0319169055600282018590556003820180546001600160801b031916905560048201859055600582018590556006820185905560078201805482169055600882018054821690556009820180549091169055600a01929092556101808701518251908152908101889052339132917f80595a8ea28d7589dd6ff0f9a296c35f1c7feb1dac2108a03df3e7e67333442b910160405180910390a3505050505050565b600f8054600091906116e29060019061441a565b815481106116f2576116f2614431565b9060005260206000200154905090565b600061084c7f46a52cf33029de9f84853745a87af28464c80bf0346df1b32e205fc73319f622836119a6565b611736612b7b565b6001600160a01b03811661175d57604051639fabe1c160e01b815260040160405180910390fd5b600280546001600160a01b0319166001600160a01b038316908117909155604051908152339032907fa18d4edc0f9c89f7feb41d0243d7f20bf44c5b426ede1cc1014a31ab8eb7248990602001610979565b6117b7612b7b565b6003805460ff60a81b1916600160a81b179055604051339032907ff7b1ad987eed99cc5824a2f41a7dfef011daef968e99ccc4be4ad4d09319fd6890600090a3565b6118016138b3565b6003805460ff60a01b1916600160a01b179055604051339032907f0a5f1e15c1e95836bd0cc0786479c594b24191b3410a6c4358387e564ff2c64090600090a3565b600354600090600160a81b900460ff16801561186757506118656004336138ed565b155b15611885576040516351caf8cd60e01b815260040160405180910390fd5b600e6000815461189490614478565b90915550600e543360009081526006602052604090206118b39161390f565b50600e8054600090815260086020908152604080832080546001600160a01b0319163390811790915584548452600b909252918290204290559154905132917fade8cc81abf6a1de962000d4460e633d2ed7d033106f10cd721306e578188cde9161192091815260200190565b60405180910390a350600e5490565b60008281526001602052604081206119479083612bad565b9392505050565b611956612b7b565b60005b81811015610cec5761199383838381811061197657611976614431565b905060200201602081019061198b919061429b565b600490612b31565b508061199e81614478565b915050611959565b6000918252602082815260408084206001600160a01b0393909316845291905290205460ff1690565b600f818154811061129e57600080fd5b6119e76137b7565b6119f082613166565b6119f98261319d565b6000611a0483610a2f565b6000848152600a60209081526040808320546009909252909120549192508391611a2e9190614460565b611a389190614460565b811015611a5857604051631d9d79c160e01b815260040160405180910390fd5b60007f00000000000000000000000000000000000000000000000000000000000000006001600160a01b03166393aab9d56040518163ffffffff1660e01b8152600401608060405180830381865afa158015611ab8573d6000803e3d6000fd5b505050506040513d601f19601f82011682018060405250810190611adc91906144a7565b6040908101516000868152600a6020908152838220546009909152929020549092508491611b0991614460565b611b139190614460565b811015611b33576040516330c84bd760e21b815260040160405180910390fd5b6003546040516340c10f1960e01b8152336004820152602481018590526001600160a01b03909116906340c10f1990604401600060405180830381600087803b158015611b7f57600080fd5b505af1158015611b93573d6000803e3d6000fd5b50505060008581526009602052604081208054869350909190611bb7908490614460565b90915550506040805185815260208101859052339132917fbd55641d4bb35ab09bf05ae443494f9133bd44ff721af353d5be89f98f26576c910160405180910390a350505050565b6060611c0b6004612fba565b905090565b611c186137b7565b611c2182613166565b611c2a8261319d565b600082815260096020908152604080832054600a90925290912054611c4f9190614460565b8110611c7f57600082815260096020908152604080832054600a90925290912054611c7a9190614460565b611c81565b805b600083815260096020526040902054909150811115611dd257600082815260096020526040812054611cb3908361441a565b6003546040516340c10f1960e01b81526001600160a01b037f000000000000000000000000000000000000000000000000000000000000000081166004830152602482018490529293509116906340c10f1990604401600060405180830381600087803b158015611d2357600080fd5b505af1158015611d37573d6000803e3d6000fd5b5050506000848152600a602052604081208054849350909190611d5b90849061441a565b90915550611d6b9050818361441a565b600354604051632770a7eb60e21b8152336004820152602481018490529193506001600160a01b031690639dc29fac90604401600060405180830381600087803b158015611db857600080fd5b505af1158015611dcc573d6000803e3d6000fd5b50505050505b600354604051632770a7eb60e21b8152336004820152602481018390526001600160a01b0390911690639dc29fac90604401600060405180830381600087803b158015611e1e57600080fd5b505af1158015611e32573d6000803e3d6000fd5b50505060008381526009602052604081208054849350909190611e5690849061441a565b90915550506040805183815260208101839052339132917f5ff23971e17d966bd90c0b467e5ce3bf77406638e1c0d952cb67a8a7d30ab209910160405180910390a35050565b600081815260016020526040812061084c90612ba3565b600082815260208190526040902060010154611ece81613137565b610cec83836135ac565b611ee0612b7b565b60005b81811015610cec57611f1d838383818110611f0057611f00614431565b9050602002016020810190611f15919061429b565b60049061391b565b5080611f2881614478565b915050611ee3565b611f386137b7565b600354600160a81b900460ff168015611f595750611f576004336138ed565b155b15611f77576040516351caf8cd60e01b815260040160405180910390fd5b611f8082613166565b611f898261319d565b6000806000806000806000806000807f00000000000000000000000000000000000000000000000000000000000000006001600160a01b03166399fbab888c6040518263ffffffff1660e01b8152600401611fe691815260200190565b61018060405180830381865afa158015612004573d6000803e3d6000fd5b505050506040513d601f19601f8201168201806040525081019061202891906145b6565b9b509b509b509b509b509b509b509b509b509b50505060007f00000000000000000000000000000000000000000000000000000000000000006001600160a01b0316631698ee828c8c8c6040518463ffffffff1660e01b81526004016120b4939291906001600160a01b03938416815291909216602082015262ffffff91909116604082015260600190565b602060405180830381865afa1580156120d1573d6000803e3d6000fd5b505050506040513d601f19601f820116820180604052508101906120f59190614697565b60405163159354c160e11b81526001600160a01b0380831660048301529192507f000000000000000000000000000000000000000000000000000000000000000090911690632b26a98290602401602060405180830381865afa158015612160573d6000803e3d6000fd5b505050506040513d601f19601f820116820180604052508101906121849190614554565b6121a05760405162820f3560e61b815260040160405180910390fd5b7f00000000000000000000000000000000000000000000000000000000000000006001600160a01b03166323b872dd33308f6040518463ffffffff1660e01b81526004016121f09392919061451b565b600060405180830381600087803b15801561220a57600080fd5b505af115801561221e573d6000803e3d6000fd5b50505050604051806101a001604052808c6001600160a01b031681526020018b6001600160a01b031681526020018a62ffffff1681526020017f00000000000000000000000000000000000000000000000000000000000000008a8a6040516020016122b59392919060609390931b6bffffffffffffffffffffffff1916835260e891821b6014840152901b6017820152601a0190565b604051602081830303815290604052805190602001208152602001876001600160801b03168152602001868152602001858152602001846001600160801b03168152602001836001600160801b031681526020016123128a613930565b6001600160a01b0316815260200161232989613930565b6001600160a01b03168152602001826001600160a01b031681526020018e815250600d60008e815260200190815260200160002060008201518160000160006101000a8154816001600160a01b0302191690836001600160a01b0316021790555060208201518160010160006101000a8154816001600160a01b0302191690836001600160a01b0316021790555060408201518160010160146101000a81548162ffffff021916908362ffffff1602179055506060820151816002015560808201518160030160006101000a8154816001600160801b0302191690836001600160801b0316021790555060a0820151816004015560c0820151816005015560e08201518160060160006101000a8154816001600160801b0302191690836001600160801b031602179055506101008201518160060160106101000a8154816001600160801b0302191690836001600160801b031602179055506101208201518160070160006101000a8154816001600160a01b0302191690836001600160a01b031602179055506101408201518160080160006101000a8154816001600160a01b0302191690836001600160a01b031602179055506101608201518160090160006101000a8154816001600160a01b0302191690836001600160a01b0316021790555061018082015181600a015590505050505050505050505050506000600d6000838152602001908152602001600020604051806101a00160405290816000820160009054906101000a90046001600160a01b03166001600160a01b03166001600160a01b031681526020016001820160009054906101000a90046001600160a01b03166001600160a01b03166001600160a01b031681526020016001820160149054906101000a900462ffffff1662ffffff1662ffffff168152602001600282015481526020016003820160009054906101000a90046001600160801b03166001600160801b03166001600160801b0316815260200160048201548152602001600582015481526020016006820160009054906101000a90046001600160801b03166001600160801b03166001600160801b031681526020016006820160109054906101000a90046001600160801b03166001600160801b03166001600160801b031681526020016007820160009054906101000a90046001600160a01b03166001600160a01b03166001600160a01b031681526020016008820160009054906101000a90046001600160a01b03166001600160a01b03166001600160a01b031681526020016009820160009054906101000a90046001600160a01b03166001600160a01b03166001600160a01b03168152602001600a820154815250509050600061272682610120015183610140015184608001516137e2565b90506000612743836101200151846101400151856080015161385d565b90507f00000000000000000000000000000000000000000000000000000000000000006001600160a01b03166393aab9d56040518163ffffffff1660e01b8152600401608060405180830381865afa1580156127a3573d6000803e3d6000fd5b505050506040513d601f19601f820116820180604052508101906127c791906144a7565b606001516127d984633b9aca00612bb9565b10156127f857604051635a0e910960e11b815260040160405180910390fd5b82516001600160a01b03166000908152600c602052604081208054849290612821908490614460565b90915550508251604051635a860c8760e01b81526001600160a01b0391821660048201527f000000000000000000000000000000000000000000000000000000000000000090911690635a860c8790602401602060405180830381865afa158015612890573d6000803e3d6000fd5b505050506040513d601f19601f820116820180604052508101906128b49190614447565b83516001600160a01b03166000908152600c602052604090205411156128fb57825160405163e71ff83760e01b81526001600160a01b039091166004820152602401610df5565b6020808401516001600160a01b03166000908152600c909152604081208054839290612928908490614460565b90915550506020830151604051635a860c8760e01b81526001600160a01b0391821660048201527f000000000000000000000000000000000000000000000000000000000000000090911690635a860c8790602401602060405180830381865afa15801561299a573d6000803e3d6000fd5b505050506040513d601f19601f820116820180604052508101906129be9190614447565b6020808501516001600160a01b03166000908152600c90915260409020541115612a0c57602083015160405163e71ff83760e01b81526001600160a01b039091166004820152602401610df5565b6000858152600760205260409020612a24908561390f565b506040805186815260208101869052339132917f95d16db8c4932fcf5d6de67364791e7178ec505c7d3829a8b34d18959c01552c910160405180910390a35050505050565b612a71612b7b565b6003805460ff60a81b19169055604051339032907fa4fe2cd3643dcb3856aae278083bc54af310a8d7b740e68b1c006f915c860f5990600090a3565b612ab782826119a6565b610e08576000828152602081815260408083206001600160a01b03851684529091529020805460ff19166001179055612aed3390565b6001600160a01b0316816001600160a01b0316837f2f8788117e7eff1d82e926ec794901d17c78024a50270940304540a733656f0d60405160405180910390a45050565b6000611947836001600160a01b038416613d48565b60006001600160e01b03198216637965db0b60e01b148061084c57506301ffc9a760e01b6001600160e01b031983161461084c565b612b8433610c0d565b612ba157604051631dd2188d60e31b815260040160405180910390fd5b565b600061084c825490565b60006119478383613d97565b6040805160028082526060820183526000928392919060208301908036833701905050905060008461016001516001600160a01b0316633850c7bd6040518163ffffffff1660e01b815260040160e060405180830381865afa158015612c23573d6000803e3d6000fd5b505050506040513d601f19601f82011682018060405250810190612c4791906146c6565b5050505050509050612c69818661012001518761014001518860800151613dc1565b83600081518110612c7c57612c7c614431565b6020026020010184600181518110612c9657612c96614431565b60200260200101828152508281525050506000808661016001516001600160a01b031663514ea4bf88606001516040518263ffffffff1660e01b8152600401612ce191815260200190565b60a060405180830381865afa158015612cfe573d6000803e3d6000fd5b505050506040513d601f19601f82011682018060405250810190612d229190614756565b50509250925050612d548760a0015183612d3c919061441a565b88608001516001600160801b0316600160801b613705565b8760e00151612d6391906147ad565b6001600160801b031684600081518110612d7f57612d7f614431565b60200260200101818151612d939190614460565b90525060c0870151612da990612d3c908361441a565b876101000151612db991906147ad565b6001600160801b031684600181518110612dd557612dd5614431565b60200260200101818151612de99190614460565b9052506040805160028082526060820183526000926020830190803683370190505060025489516040516315d5220f60e31b81526001600160a01b039182166004820152929350169063aea9107890602401602060405180830381865afa158015612e58573d6000803e3d6000fd5b505050506040513d601f19601f82011682018060405250810190612e7c9190614447565b81600081518110612e8f57612e8f614431565b602090810291909101810191909152600254908901516040516315d5220f60e31b81526001600160a01b03918216600482015291169063aea9107890602401602060405180830381865afa158015612eeb573d6000803e3d6000fd5b505050506040513d601f19601f82011682018060405250810190612f0f9190614447565b81600181518110612f2257612f22614431565b6020026020010181815250506000805b6002811015612fad576000612f7e888381518110612f5257612f52614431565b6020026020010151858481518110612f6c57612f6c614431565b6020026020010151600160601b613705565b9050612f8f818b633b9aca00613705565b612f999084614460565b92505080612fa690614478565b9050612f32565b5098975050505050505050565b6060600061194783613e5d565b6000818152600b602052604081205481612fe1824261441a565b6000858152600960205260409020549091501580612ffd575080155b15613009575050919050565b600f5442905b801561312e57600084601061302560018561441a565b8154811061303557613035614431565b90600052602060002001541161304b5784613074565b601061305860018461441a565b8154811061306857613068614431565b90600052602060002001545b9050828110613083575061312e565b60006130c4613092838661441a565b600f61309f60018761441a565b815481106130af576130af614431565b90600052602060002001546301e13380613705565b6000898152600960205260409020549091506130e59082633b9aca00613705565b6130ef9088614460565b965060106130fe60018561441a565b8154811061310e5761310e614431565b90600052602060002001549350505080613127906147d8565b905061300f565b50505050919050565b6131418133613eb9565b50565b61314e8282612aad565b6000828152600160205260409020610cec9082612b31565b6000818152600860205260409020546001600160a01b0316331461314157604051631dd2188d60e31b815260040160405180910390fd5b6000818152600b60205260408120546131b6904261441a565b11156131415760006131c782612fc7565b905080156131f3576000828152600a6020526040812080548392906131ed908490614460565b90915550505b506000908152600b60205260409020429055565b600083815260076020526040812061321e90612fba565b905060005b600085815260076020526040902061323a90612ba3565b811015613529576000600d600084848151811061325957613259614431565b6020908102919091018101518252818101929092526040908101600090812082516101a08101845281546001600160a01b039081168252600183015480821696830196909652600160a01b90950462ffffff16938101939093526002810154606084015260038101546001600160801b0390811660808501819052600483015460a0860152600583015460c0860152600683015480831660e0870152600160801b90049091166101008501526007820154851661012085018190526008830154861661014086018190526009840154909616610160860152600a90920154610180850152929450909261334b926137e2565b90506000613368836101200151846101400151856080015161385d565b83516001600160a01b03166000908152600c602052604081208054929350849290919061339690849061441a565b90915550506020808401516001600160a01b03166000908152600c9091526040812080548392906133c890849061441a565b92505081905550600d60008686815181106133e5576133e5614431565b6020908102919091018101518252810191909152604001600090812080546001600160a01b031990811682556001820180546001600160b81b0319169055600282018390556003820180546001600160801b031916905560048201839055600582018390556006820183905560078201805482169055600882018054821690556009820180549091169055600a015584517f00000000000000000000000000000000000000000000000000000000000000006001600160a01b0316906323b872dd90309089908990899081106134bd576134bd614431565b60200260200101516040518463ffffffff1660e01b81526004016134e39392919061451b565b600060405180830381600087803b1580156134fd57600080fd5b505af1158015613511573d6000803e3d6000fd5b505050505050508061352290614478565b9050613223565b506001600160a01b038316600090815260066020526040902061354c90856138a7565b506000848152600960209081526040808320839055600a82528083208390556008825280832080546001600160a01b0319169055600790915281209081816135948282614211565b50505060009485525050600b60205250506040812055565b6135b68282613f1d565b6000828152600160205260409020610cec908261391b565b600080805b60008481526007602052604090206135ea90612ba3565b811015610c065760008481526007602052604081206136099083612bad565b6000818152600d602090815260409182902082516101a08101845281546001600160a01b039081168252600183015480821694830194909452600160a01b90930462ffffff16938101939093526002810154606084015260038101546001600160801b039081166080850152600482015460a0850152600582015460c0850152600682015480821660e0860152600160801b90041661010084015260078101548216610120840152600881015482166101408401526009810154909116610160830152600a01546101808201529091506136e790633b9aca00612bb9565b6136f19084614460565b925050806136fe90614478565b90506135d3565b600080806000198587098587029250828110838203039150508060000361373e576000841161373357600080fd5b508290049050611947565b80841161374a57600080fd5b6000848688096000868103871696879004966002600389028118808a02820302808a02820302808a02820302808a02820302808a02820302808a02909103029181900381900460010186841190950394909402919094039290920491909117919091029150509392505050565b600354600160a01b900460ff1615612ba1576040516313d0ff5960e31b815260040160405180910390fd5b6000826001600160a01b0316846001600160a01b03161115613802579192915b6001600160a01b03841661384b6fffffffffffffffffffffffffffffffff60601b606085901b1661383387876147ef565b6001600160a01b0316866001600160a01b0316613705565b613855919061482d565b949350505050565b6000826001600160a01b0316846001600160a01b0316111561387d579192915b6138556001600160801b03831661389486866147ef565b6001600160a01b0316600160601b613705565b60006119478383613f82565b6138bc33610c0d565b1580156138cf57506138cd33611702565b155b15612ba157604051631dd2188d60e31b815260040160405180910390fd5b6001600160a01b03811660009081526001830160205260408120541515611947565b60006119478383613d48565b6000611947836001600160a01b038416613f82565b60008060008360020b12613947578260020b613954565b8260020b61395490614841565b9050613963620d89e71961485d565b60020b8111156139995760405162461bcd60e51b81526020600482015260016024820152601560fa1b6044820152606401610df5565b6000816001166000036139b057600160801b6139c2565b6ffffcb933bd6fad37aa2d162d1a5940015b70ffffffffffffffffffffffffffffffffff1690506002821615613a015760806139fc826ffff97272373d413259a46990580e213a61487f565b901c90505b6004821615613a2b576080613a26826ffff2e50f5f656932ef12357cf3c7fdcc61487f565b901c90505b6008821615613a55576080613a50826fffe5caca7e10e4e61c3624eaa0941cd061487f565b901c90505b6010821615613a7f576080613a7a826fffcb9843d60f6159c9db58835c92664461487f565b901c90505b6020821615613aa9576080613aa4826fff973b41fa98c081472e6896dfb254c061487f565b901c90505b6040821615613ad3576080613ace826fff2ea16466c96a3843ec78b326b5286161487f565b901c90505b6080821615613afd576080613af8826ffe5dee046a99a2a811c461f1969c305361487f565b901c90505b610100821615613b28576080613b23826ffcbe86c7900a88aedcffc83b479aa3a461487f565b901c90505b610200821615613b53576080613b4e826ff987a7253ac413176f2b074cf7815e5461487f565b901c90505b610400821615613b7e576080613b79826ff3392b0822b70005940c7a398e4b70f361487f565b901c90505b610800821615613ba9576080613ba4826fe7159475a2c29b7443b29c7fa6e889d961487f565b901c90505b611000821615613bd4576080613bcf826fd097f3bdfd2022b8845ad8f792aa582561487f565b901c90505b612000821615613bff576080613bfa826fa9f746462d870fdf8a65dc1f90e061e561487f565b901c90505b614000821615613c2a576080613c25826f70d869a156d2a1b890bb3df62baf32f761487f565b901c90505b618000821615613c55576080613c50826f31be135f97d08fd981231505542fcfa661487f565b901c90505b62010000821615613c81576080613c7c826f09aa508b5b7a84e1c677de54f3e99bc961487f565b901c90505b62020000821615613cac576080613ca7826e5d6af8dedb81196699c329225ee60461487f565b901c90505b62040000821615613cd6576080613cd1826d2216e584f5fa1ea926041bedfe9861487f565b901c90505b62080000821615613cfe576080613cf9826b048a170391f7dc42444e8fa261487f565b901c90505b60008460020b1315613d1957613d168160001961482d565b90505b613d286401000000008261489e565b15613d34576001613d37565b60005b6138559060ff16602083901c614460565b6000818152600183016020526040812054613d8f5750815460018181018455600084815260208082209093018490558454848252828601909352604090209190915561084c565b50600061084c565b6000826000018281548110613dae57613dae614431565b9060005260206000200154905092915050565b600080836001600160a01b0316856001600160a01b03161115613de2579293925b846001600160a01b0316866001600160a01b031611613e0d57613e068585856137e2565b9150613e54565b836001600160a01b0316866001600160a01b03161015613e4657613e328685856137e2565b9150613e3f85878561385d565b9050613e54565b613e5185858561385d565b90505b94509492505050565b606081600001805480602002602001604051908101604052809291908181526020018280548015613ead57602002820191906000526020600020905b815481526020019060010190808311613e99575b50505050509050919050565b613ec382826119a6565b610e0857613edb816001600160a01b03166014614075565b613ee6836020614075565b604051602001613ef79291906148e2565b60408051601f198184030181529082905262461bcd60e51b8252610df591600401614957565b613f2782826119a6565b15610e08576000828152602081815260408083206001600160a01b0385168085529252808320805460ff1916905551339285917ff6391f5c32d9c69d2a47ea670b442974b53935d1edc7fd64eb21e047a839171b9190a45050565b6000818152600183016020526040812054801561406b576000613fa660018361441a565b8554909150600090613fba9060019061441a565b905081811461401f576000866000018281548110613fda57613fda614431565b9060005260206000200154905080876000018481548110613ffd57613ffd614431565b6000918252602080832090910192909255918252600188019052604090208390555b85548690806140305761403061498a565b60019003818190600052602060002001600090559055856001016000868152602001908152602001600020600090556001935050505061084c565b600091505061084c565b6060600061408483600261487f565b61408f906002614460565b67ffffffffffffffff8111156140a7576140a7614491565b6040519080825280601f01601f1916602001820160405280156140d1576020820181803683370190505b509050600360fc1b816000815181106140ec576140ec614431565b60200101906001600160f81b031916908160001a905350600f60fb1b8160018151811061411b5761411b614431565b60200101906001600160f81b031916908160001a905350600061413f84600261487f565b61414a906001614460565b90505b60018111156141c2576f181899199a1a9b1b9c1cb0b131b232b360811b85600f166010811061417e5761417e614431565b1a60f81b82828151811061419457614194614431565b60200101906001600160f81b031916908160001a90535060049490941c936141bb816147d8565b905061414d565b5083156119475760405162461bcd60e51b815260206004820181905260248201527f537472696e67733a20686578206c656e67746820696e73756666696369656e746044820152606401610df5565b508054600082559060005260206000209081019061314191905b8082111561423f576000815560010161422b565b5090565b60006020828403121561425557600080fd5b81356001600160e01b03198116811461194757600080fd5b60006020828403121561427f57600080fd5b5035919050565b6001600160a01b038116811461314157600080fd5b6000602082840312156142ad57600080fd5b813561194781614286565b6020808252825182820181905260009190848201906040850190845b818110156142f0578351835292840192918401916001016142d4565b50909695505050505050565b6000806040838503121561430f57600080fd5b82359150602083013561432181614286565b809150509250929050565b6000806040838503121561433f57600080fd5b50508035926020909101359150565b6000806020838503121561436157600080fd5b823567ffffffffffffffff8082111561437957600080fd5b818501915085601f83011261438d57600080fd5b81358181111561439c57600080fd5b8660208260051b85010111156143b157600080fd5b60209290920196919550909350505050565b6020808252825182820181905260009190848201906040850190845b818110156142f05783516001600160a01b0316835292840192918401916001016143df565b634e487b7160e01b600052601160045260246000fd5b60008282101561442c5761442c614404565b500390565b634e487b7160e01b600052603260045260246000fd5b60006020828403121561445957600080fd5b5051919050565b6000821982111561447357614473614404565b500190565b60006001820161448a5761448a614404565b5060010190565b634e487b7160e01b600052604160045260246000fd5b6000608082840312156144b957600080fd5b6040516080810181811067ffffffffffffffff821117156144ea57634e487b7160e01b600052604160045260246000fd5b8060405250825181526020830151602082015260408301516040820152606083015160608201528091505092915050565b6001600160a01b039384168152919092166020820152604081019190915260600190565b8051801515811461454f57600080fd5b919050565b60006020828403121561456657600080fd5b6119478261453f565b805161454f81614286565b805162ffffff8116811461454f57600080fd5b8051600281900b811461454f57600080fd5b80516001600160801b038116811461454f57600080fd5b6000806000806000806000806000806000806101808d8f0312156145d957600080fd5b8c516bffffffffffffffffffffffff811681146145f557600080fd5b9b5061460360208e0161456f565b9a5061461160408e0161456f565b995061461f60608e0161456f565b985061462d60808e0161457a565b975061463b60a08e0161458d565b965061464960c08e0161458d565b955061465760e08e0161459f565b94506101008d015193506101208d015192506146766101408e0161459f565b91506146856101608e0161459f565b90509295989b509295989b509295989b565b6000602082840312156146a957600080fd5b815161194781614286565b805161ffff8116811461454f57600080fd5b600080600080600080600060e0888a0312156146e157600080fd5b87516146ec81614286565b96506146fa6020890161458d565b9550614708604089016146b4565b9450614716606089016146b4565b9350614724608089016146b4565b925060a088015160ff8116811461473a57600080fd5b915061474860c0890161453f565b905092959891949750929550565b600080600080600060a0868803121561476e57600080fd5b6147778661459f565b945060208601519350604086015192506147936060870161459f565b91506147a16080870161459f565b90509295509295909350565b60006001600160801b038083168185168083038211156147cf576147cf614404565b01949350505050565b6000816147e7576147e7614404565b506000190190565b60006001600160a01b038381169083168181101561480f5761480f614404565b039392505050565b634e487b7160e01b600052601260045260246000fd5b60008261483c5761483c614817565b500490565b6000600160ff1b820161485657614856614404565b5060000390565b60008160020b627fffff19810361487657614876614404565b60000392915050565b600081600019048311821515161561489957614899614404565b500290565b6000826148ad576148ad614817565b500690565b60005b838110156148cd5781810151838201526020016148b5565b838111156148dc576000848401525b50505050565b7f416363657373436f6e74726f6c3a206163636f756e742000000000000000000081526000835161491a8160178501602088016148b2565b7001034b99036b4b9b9b4b733903937b6329607d1b601791840191820152835161494b8160288401602088016148b2565b01602801949350505050565b60208152600082518060208401526149768160408501602087016148b2565b601f01601f19169190910160400192915050565b634e487b7160e01b600052603160045260246000fdfea264697066735822122052efcf199852162d62420fac128fc07a16e8a1c154ef187d125066b3f4a3642f64736f6c634300080d0033f23ec0bb4210edd5cba85afd05127efcd2fc6a781bfed49188da1081670b22d846a52cf33029de9f84853745a87af28464c80bf0346df1b32e205fc73319f622",
    "linkReferences": {}
  },
  "methodIdentifiers": {
    "ADMIN_DELEGATE_ROLE()": "0952ff54",
    "ADMIN_ROLE()": "75b238fc",
    "DEFAULT_ADMIN_ROLE()": "a217fddf",
    "DENOMINATOR()": "918f8674",
    "OPERATOR()": "983d2737",
    "Q128()": "b4b15f71",
    "Q96()": "40792465",
    "YEAR()": "83914540",
    "addDepositorsToAllowlist(address[])": "91b7ab47",
    "burnDebt(uint256,uint256)": "a8406ea3",
    "calculateHealthFactor(uint256)": "23a4deb5",
    "closeVault(uint256)": "360c3288",
    "debt(uint256)": "1e0029c8",
    "debtFee(uint256)": "2a7c49e3",
    "depositCollateral(uint256,uint256)": "ece13732",
    "depositorsAllowlist()": "a09eb0e7",
    "factory()": "c45a0155",
    "getOverallDebt(uint256)": "2d922369",
    "getRoleAdmin(bytes32)": "248a9ca3",
    "getRoleMember(bytes32,uint256)": "9010d07c",
    "getRoleMemberCount(bytes32)": "ca15c873",
    "grantRole(bytes32,address)": "2f2ff15d",
    "hasRole(bytes32,address)": "91d14854",
    "isAdmin(address)": "24d7806c",
    "isOperator(address)": "6d70f7ae",
    "isPaused()": "b187bd26",
    "isPrivate()": "faff660e",
    "liquidate(uint256)": "415f1240",
    "makePrivate()": "7c84b40c",
    "makePublic()": "fc018c05",
    "maxCollateralSupply(address)": "e69f3ebf",
    "mintDebt(uint256,uint256)": "9b52d8c8",
    "openVault()": "86f54712",
    "oracle()": "7dc0d1d0",
    "ownedVaultsByAddress(address)": "2b0eeec3",
    "pause()": "8456cb59",
    "positionManager()": "791b98bc",
    "protocolGovernance()": "5227ce4c",
    "removeDepositorsFromAllowlist(address[])": "e273d23e",
    "renounceRole(bytes32,address)": "36568abe",
    "revokeRole(bytes32,address)": "d547741f",
    "setOracle(address)": "7adbf973",
    "setToken(address)": "144fa6d7",
    "stabilisationFee()": "6ac90fd4",
    "stabilisationFeeUpdate(uint256)": "965e7f27",
    "stabilisationFeeUpdateTimestamp(uint256)": "41b0cbf9",
    "supportsInterface(bytes4)": "01ffc9a7",
    "token()": "fc0c546a",
    "treasury()": "61d027b3",
    "unpause()": "3f4ba83a",
    "updateStabilisationFee(uint256)": "13a81c7c",
    "vaultCount()": "a7c6a100",
    "vaultNftsById(uint256)": "5d2bb997",
    "vaultOwner(uint256)": "3c2ecfe5",
    "withdrawCollateral(uint256)": "6112fe2e"
  },
  "id": 21
}