{
  "abi": [
    {
      "inputs": [
        {
          "internalType": "address",
          "name": "admin",
          "type": "address"
        },
        {
          "internalType": "contract INonfungiblePositionManager",
          "name": "positionManager_",
          "type": "address"
        },
        {
          "internalType": "contract IUniswapV3Factory",
          "name": "factory_",
          "type": "address"
        },
        {
          "internalType": "contract IProtocolGovernance",
          "name": "protocolGovernance_",
          "type": "address"
        },
        {
          "internalType": "contract IOracle",
          "name": "oracle_",
          "type": "address"
        },
        {
          "internalType": "address",
          "name": "treasury_",
          "type": "address"
        },
        {
          "internalType": "uint256",
          "name": "stabilisationFee_",
          "type": "uint256"
        }
      ],
      "stateMutability": "nonpayable",
      "type": "constructor"
    },
    {
      "inputs": [],
      "name": "AddressZero",
      "type": "error"
    },
    {
      "inputs": [],
      "name": "AllowList",
      "type": "error"
    },
    {
      "inputs": [
        {
          "internalType": "address",
          "name": "token",
          "type": "address"
        }
      ],
      "name": "CollateralTokenOverflow",
      "type": "error"
    },
    {
      "inputs": [],
      "name": "CollateralUnderflow",
      "type": "error"
    },
    {
      "inputs": [],
      "name": "DebtLimitExceeded",
      "type": "error"
    },
    {
      "inputs": [],
      "name": "DebtOverflow",
      "type": "error"
    },
    {
      "inputs": [],
      "name": "Forbidden",
      "type": "error"
    },
    {
      "inputs": [],
      "name": "InvalidPool",
      "type": "error"
    },
    {
      "inputs": [],
      "name": "InvalidValue",
      "type": "error"
    },
    {
      "inputs": [],
      "name": "Paused",
      "type": "error"
    },
    {
      "inputs": [],
      "name": "PositionHealthy",
      "type": "error"
    },
    {
      "inputs": [],
      "name": "PositionUnhealthy",
      "type": "error"
    },
    {
      "inputs": [],
      "name": "TokenSet",
      "type": "error"
    },
    {
      "inputs": [],
      "name": "UnpaidDebt",
      "type": "error"
    },
    {
      "anonymous": false,
      "inputs": [
        {
          "indexed": true,
          "internalType": "address",
          "name": "origin",
          "type": "address"
        },
        {
          "indexed": true,
          "internalType": "address",
          "name": "sender",
          "type": "address"
        },
        {
          "indexed": false,
          "internalType": "uint256",
          "name": "vaultId",
          "type": "uint256"
        },
        {
          "indexed": false,
          "internalType": "uint256",
          "name": "tokenId",
          "type": "uint256"
        }
      ],
      "name": "CollateralDeposited",
      "type": "event"
    },
    {
      "anonymous": false,
      "inputs": [
        {
          "indexed": true,
          "internalType": "address",
          "name": "origin",
          "type": "address"
        },
        {
          "indexed": true,
          "internalType": "address",
          "name": "sender",
          "type": "address"
        },
        {
          "indexed": false,
          "internalType": "uint256",
          "name": "vaultId",
          "type": "uint256"
        },
        {
          "indexed": false,
          "internalType": "uint256",
          "name": "tokenId",
          "type": "uint256"
        }
      ],
      "name": "CollateralWithdrew",
      "type": "event"
    },
    {
      "anonymous": false,
      "inputs": [
        {
          "indexed": true,
          "internalType": "address",
          "name": "origin",
          "type": "address"
        },
        {
          "indexed": true,
          "internalType": "address",
          "name": "sender",
          "type": "address"
        },
        {
          "indexed": false,
          "internalType": "uint256",
          "name": "vaultId",
          "type": "uint256"
        },
        {
          "indexed": false,
          "internalType": "uint256",
          "name": "amount",
          "type": "uint256"
        }
      ],
      "name": "DebtBurned",
      "type": "event"
    },
    {
      "anonymous": false,
      "inputs": [
        {
          "indexed": true,
          "internalType": "address",
          "name": "origin",
          "type": "address"
        },
        {
          "indexed": true,
          "internalType": "address",
          "name": "sender",
          "type": "address"
        },
        {
          "indexed": false,
          "internalType": "uint256",
          "name": "vaultId",
          "type": "uint256"
        },
        {
          "indexed": false,
          "internalType": "uint256",
          "name": "amount",
          "type": "uint256"
        }
      ],
      "name": "DebtMinted",
      "type": "event"
    },
    {
      "anonymous": false,
      "inputs": [
        {
          "indexed": true,
          "internalType": "address",
          "name": "origin",
          "type": "address"
        },
        {
          "indexed": true,
          "internalType": "address",
          "name": "sender",
          "type": "address"
        },
        {
          "indexed": false,
          "internalType": "address",
          "name": "oracleAddress",
          "type": "address"
        }
      ],
      "name": "OracleUpdated",
      "type": "event"
    },
    {
      "anonymous": false,
      "inputs": [
        {
          "indexed": true,
          "internalType": "bytes32",
          "name": "role",
          "type": "bytes32"
        },
        {
          "indexed": true,
          "internalType": "bytes32",
          "name": "previousAdminRole",
          "type": "bytes32"
        },
        {
          "indexed": true,
          "internalType": "bytes32",
          "name": "newAdminRole",
          "type": "bytes32"
        }
      ],
      "name": "RoleAdminChanged",
      "type": "event"
    },
    {
      "anonymous": false,
      "inputs": [
        {
          "indexed": true,
          "internalType": "bytes32",
          "name": "role",
          "type": "bytes32"
        },
        {
          "indexed": true,
          "internalType": "address",
          "name": "account",
          "type": "address"
        },
        {
          "indexed": true,
          "internalType": "address",
          "name": "sender",
          "type": "address"
        }
      ],
      "name": "RoleGranted",
      "type": "event"
    },
    {
      "anonymous": false,
      "inputs": [
        {
          "indexed": true,
          "internalType": "bytes32",
          "name": "role",
          "type": "bytes32"
        },
        {
          "indexed": true,
          "internalType": "address",
          "name": "account",
          "type": "address"
        },
        {
          "indexed": true,
          "internalType": "address",
          "name": "sender",
          "type": "address"
        }
      ],
      "name": "RoleRevoked",
      "type": "event"
    },
    {
      "anonymous": false,
      "inputs": [
        {
          "indexed": true,
          "internalType": "address",
          "name": "origin",
          "type": "address"
        },
        {
          "indexed": true,
          "internalType": "address",
          "name": "sender",
          "type": "address"
        },
        {
          "indexed": false,
          "internalType": "uint256",
          "name": "stabilisationFee",
          "type": "uint256"
        }
      ],
      "name": "StabilisationFeeUpdated",
      "type": "event"
    },
    {
      "anonymous": false,
      "inputs": [
        {
          "indexed": true,
          "internalType": "address",
          "name": "origin",
          "type": "address"
        },
        {
          "indexed": true,
          "internalType": "address",
          "name": "sender",
          "type": "address"
        }
      ],
      "name": "SystemPaused",
      "type": "event"
    },
    {
      "anonymous": false,
      "inputs": [
        {
          "indexed": true,
          "internalType": "address",
          "name": "origin",
          "type": "address"
        },
        {
          "indexed": true,
          "internalType": "address",
          "name": "sender",
          "type": "address"
        }
      ],
      "name": "SystemPrivate",
      "type": "event"
    },
    {
      "anonymous": false,
      "inputs": [
        {
          "indexed": true,
          "internalType": "address",
          "name": "origin",
          "type": "address"
        },
        {
          "indexed": true,
          "internalType": "address",
          "name": "sender",
          "type": "address"
        }
      ],
      "name": "SystemPublic",
      "type": "event"
    },
    {
      "anonymous": false,
      "inputs": [
        {
          "indexed": true,
          "internalType": "address",
          "name": "origin",
          "type": "address"
        },
        {
          "indexed": true,
          "internalType": "address",
          "name": "sender",
          "type": "address"
        }
      ],
      "name": "SystemUnpaused",
      "type": "event"
    },
    {
      "anonymous": false,
      "inputs": [
        {
          "indexed": true,
          "internalType": "address",
          "name": "origin",
          "type": "address"
        },
        {
          "indexed": true,
          "internalType": "address",
          "name": "sender",
          "type": "address"
        },
        {
          "indexed": false,
          "internalType": "address",
          "name": "tokenAddress",
          "type": "address"
        }
      ],
      "name": "TokenUpdated",
      "type": "event"
    },
    {
      "anonymous": false,
      "inputs": [
        {
          "indexed": true,
          "internalType": "address",
          "name": "origin",
          "type": "address"
        },
        {
          "indexed": true,
          "internalType": "address",
          "name": "sender",
          "type": "address"
        },
        {
          "indexed": false,
          "internalType": "uint256",
          "name": "vaultId",
          "type": "uint256"
        }
      ],
      "name": "VaultClosed",
      "type": "event"
    },
    {
      "anonymous": false,
      "inputs": [
        {
          "indexed": true,
          "internalType": "address",
          "name": "origin",
          "type": "address"
        },
        {
          "indexed": true,
          "internalType": "address",
          "name": "sender",
          "type": "address"
        },
        {
          "indexed": false,
          "internalType": "uint256",
          "name": "vaultId",
          "type": "uint256"
        }
      ],
      "name": "VaultLiquidated",
      "type": "event"
    },
    {
      "anonymous": false,
      "inputs": [
        {
          "indexed": true,
          "internalType": "address",
          "name": "origin",
          "type": "address"
        },
        {
          "indexed": true,
          "internalType": "address",
          "name": "sender",
          "type": "address"
        },
        {
          "indexed": false,
          "internalType": "uint256",
          "name": "vaultId",
          "type": "uint256"
        }
      ],
      "name": "VaultOpened",
      "type": "event"
    },
    {
      "inputs": [],
      "name": "ADMIN_DELEGATE_ROLE",
      "outputs": [
        {
          "internalType": "bytes32",
          "name": "",
          "type": "bytes32"
        }
      ],
      "stateMutability": "view",
      "type": "function"
    },
    {
      "inputs": [],
      "name": "ADMIN_ROLE",
      "outputs": [
        {
          "internalType": "bytes32",
          "name": "",
          "type": "bytes32"
        }
      ],
      "stateMutability": "view",
      "type": "function"
    },
    {
      "inputs": [],
      "name": "DEFAULT_ADMIN_ROLE",
      "outputs": [
        {
          "internalType": "bytes32",
          "name": "",
          "type": "bytes32"
        }
      ],
      "stateMutability": "view",
      "type": "function"
    },
    {
      "inputs": [],
      "name": "DENOMINATOR",
      "outputs": [
        {
          "internalType": "uint256",
          "name": "",
          "type": "uint256"
        }
      ],
      "stateMutability": "view",
      "type": "function"
    },
    {
      "inputs": [],
      "name": "OPERATOR",
      "outputs": [
        {
          "internalType": "bytes32",
          "name": "",
          "type": "bytes32"
        }
      ],
      "stateMutability": "view",
      "type": "function"
    },
    {
      "inputs": [],
      "name": "Q128",
      "outputs": [
        {
          "internalType": "uint256",
          "name": "",
          "type": "uint256"
        }
      ],
      "stateMutability": "view",
      "type": "function"
    },
    {
      "inputs": [],
      "name": "Q96",
      "outputs": [
        {
          "internalType": "uint256",
          "name": "",
          "type": "uint256"
        }
      ],
      "stateMutability": "view",
      "type": "function"
    },
    {
      "inputs": [],
      "name": "YEAR",
      "outputs": [
        {
          "internalType": "uint256",
          "name": "",
          "type": "uint256"
        }
      ],
      "stateMutability": "view",
      "type": "function"
    },
    {
      "inputs": [
        {
          "internalType": "address[]",
          "name": "depositors",
          "type": "address[]"
        }
      ],
      "name": "addDepositorsToAllowlist",
      "outputs": [],
      "stateMutability": "nonpayable",
      "type": "function"
    },
    {
      "inputs": [
        {
          "internalType": "uint256",
          "name": "vaultId",
          "type": "uint256"
        },
        {
          "internalType": "uint256",
          "name": "amount",
          "type": "uint256"
        }
      ],
      "name": "burnDebt",
      "outputs": [],
      "stateMutability": "nonpayable",
      "type": "function"
    },
    {
      "inputs": [
        {
          "internalType": "uint256",
          "name": "vaultId",
          "type": "uint256"
        }
      ],
      "name": "calculateHealthFactor",
      "outputs": [
        {
          "internalType": "uint256",
          "name": "",
          "type": "uint256"
        }
      ],
      "stateMutability": "view",
      "type": "function"
    },
    {
      "inputs": [
        {
          "internalType": "uint256",
          "name": "vaultId",
          "type": "uint256"
        }
      ],
      "name": "closeVault",
      "outputs": [],
      "stateMutability": "nonpayable",
      "type": "function"
    },
    {
      "inputs": [
        {
          "internalType": "uint256",
          "name": "",
          "type": "uint256"
        }
      ],
      "name": "debt",
      "outputs": [
        {
          "internalType": "uint256",
          "name": "",
          "type": "uint256"
        }
      ],
      "stateMutability": "view",
      "type": "function"
    },
    {
      "inputs": [
        {
          "internalType": "uint256",
          "name": "",
          "type": "uint256"
        }
      ],
      "name": "debtFee",
      "outputs": [
        {
          "internalType": "uint256",
          "name": "",
          "type": "uint256"
        }
      ],
      "stateMutability": "view",
      "type": "function"
    },
    {
      "inputs": [
        {
          "internalType": "uint256",
          "name": "vaultId",
          "type": "uint256"
        },
        {
          "internalType": "uint256",
          "name": "nft",
          "type": "uint256"
        }
      ],
      "name": "depositCollateral",
      "outputs": [],
      "stateMutability": "nonpayable",
      "type": "function"
    },
    {
      "inputs": [],
      "name": "depositorsAllowlist",
      "outputs": [
        {
          "internalType": "address[]",
          "name": "",
          "type": "address[]"
        }
      ],
      "stateMutability": "view",
      "type": "function"
    },
    {
      "inputs": [],
      "name": "factory",
      "outputs": [
        {
          "internalType": "contract IUniswapV3Factory",
          "name": "",
          "type": "address"
        }
      ],
      "stateMutability": "view",
      "type": "function"
    },
    {
      "inputs": [
        {
          "internalType": "uint256",
          "name": "vaultId",
          "type": "uint256"
        }
      ],
      "name": "getOverallDebt",
      "outputs": [
        {
          "internalType": "uint256",
          "name": "",
          "type": "uint256"
        }
      ],
      "stateMutability": "view",
      "type": "function"
    },
    {
      "inputs": [
        {
          "internalType": "bytes32",
          "name": "role",
          "type": "bytes32"
        }
      ],
      "name": "getRoleAdmin",
      "outputs": [
        {
          "internalType": "bytes32",
          "name": "",
          "type": "bytes32"
        }
      ],
      "stateMutability": "view",
      "type": "function"
    },
    {
      "inputs": [
        {
          "internalType": "bytes32",
          "name": "role",
          "type": "bytes32"
        },
        {
          "internalType": "uint256",
          "name": "index",
          "type": "uint256"
        }
      ],
      "name": "getRoleMember",
      "outputs": [
        {
          "internalType": "address",
          "name": "",
          "type": "address"
        }
      ],
      "stateMutability": "view",
      "type": "function"
    },
    {
      "inputs": [
        {
          "internalType": "bytes32",
          "name": "role",
          "type": "bytes32"
        }
      ],
      "name": "getRoleMemberCount",
      "outputs": [
        {
          "internalType": "uint256",
          "name": "",
          "type": "uint256"
        }
      ],
      "stateMutability": "view",
      "type": "function"
    },
    {
      "inputs": [
        {
          "internalType": "bytes32",
          "name": "role",
          "type": "bytes32"
        },
        {
          "internalType": "address",
          "name": "account",
          "type": "address"
        }
      ],
      "name": "grantRole",
      "outputs": [],
      "stateMutability": "nonpayable",
      "type": "function"
    },
    {
      "inputs": [
        {
          "internalType": "bytes32",
          "name": "role",
          "type": "bytes32"
        },
        {
          "internalType": "address",
          "name": "account",
          "type": "address"
        }
      ],
      "name": "hasRole",
      "outputs": [
        {
          "internalType": "bool",
          "name": "",
          "type": "bool"
        }
      ],
      "stateMutability": "view",
      "type": "function"
    },
    {
      "inputs": [
        {
          "internalType": "address",
          "name": "sender",
          "type": "address"
        }
      ],
      "name": "isAdmin",
      "outputs": [
        {
          "internalType": "bool",
          "name": "",
          "type": "bool"
        }
      ],
      "stateMutability": "view",
      "type": "function"
    },
    {
      "inputs": [
        {
          "internalType": "address",
          "name": "sender",
          "type": "address"
        }
      ],
      "name": "isOperator",
      "outputs": [
        {
          "internalType": "bool",
          "name": "",
          "type": "bool"
        }
      ],
      "stateMutability": "view",
      "type": "function"
    },
    {
      "inputs": [],
      "name": "isPaused",
      "outputs": [
        {
          "internalType": "bool",
          "name": "",
          "type": "bool"
        }
      ],
      "stateMutability": "view",
      "type": "function"
    },
    {
      "inputs": [],
      "name": "isPrivate",
      "outputs": [
        {
          "internalType": "bool",
          "name": "",
          "type": "bool"
        }
      ],
      "stateMutability": "view",
      "type": "function"
    },
    {
      "inputs": [
        {
          "internalType": "uint256",
          "name": "vaultId",
          "type": "uint256"
        }
      ],
      "name": "liquidate",
      "outputs": [],
      "stateMutability": "nonpayable",
      "type": "function"
    },
    {
      "inputs": [],
      "name": "makePrivate",
      "outputs": [],
      "stateMutability": "nonpayable",
      "type": "function"
    },
    {
      "inputs": [],
      "name": "makePublic",
      "outputs": [],
      "stateMutability": "nonpayable",
      "type": "function"
    },
    {
      "inputs": [
        {
          "internalType": "address",
          "name": "",
          "type": "address"
        }
      ],
      "name": "maxCollateralSupply",
      "outputs": [
        {
          "internalType": "uint256",
          "name": "",
          "type": "uint256"
        }
      ],
      "stateMutability": "view",
      "type": "function"
    },
    {
      "inputs": [
        {
          "internalType": "uint256",
          "name": "vaultId",
          "type": "uint256"
        },
        {
          "internalType": "uint256",
          "name": "amount",
          "type": "uint256"
        }
      ],
      "name": "mintDebt",
      "outputs": [],
      "stateMutability": "nonpayable",
      "type": "function"
    },
    {
      "inputs": [],
      "name": "openVault",
      "outputs": [
        {
          "internalType": "uint256",
          "name": "vaultId",
          "type": "uint256"
        }
      ],
      "stateMutability": "nonpayable",
      "type": "function"
    },
    {
      "inputs": [],
      "name": "oracle",
      "outputs": [
        {
          "internalType": "contract IOracle",
          "name": "",
          "type": "address"
        }
      ],
      "stateMutability": "view",
      "type": "function"
    },
    {
      "inputs": [
        {
          "internalType": "address",
          "name": "target",
          "type": "address"
        }
      ],
      "name": "ownedVaultsByAddress",
      "outputs": [
        {
          "internalType": "uint256[]",
          "name": "",
          "type": "uint256[]"
        }
      ],
      "stateMutability": "view",
      "type": "function"
    },
    {
      "inputs": [],
      "name": "pause",
      "outputs": [],
      "stateMutability": "nonpayable",
      "type": "function"
    },
    {
      "inputs": [],
      "name": "positionManager",
      "outputs": [
        {
          "internalType": "contract INonfungiblePositionManager",
          "name": "",
          "type": "address"
        }
      ],
      "stateMutability": "view",
      "type": "function"
    },
    {
      "inputs": [],
      "name": "protocolGovernance",
      "outputs": [
        {
          "internalType": "contract IProtocolGovernance",
          "name": "",
          "type": "address"
        }
      ],
      "stateMutability": "view",
      "type": "function"
    },
    {
      "inputs": [
        {
          "internalType": "address[]",
          "name": "depositors",
          "type": "address[]"
        }
      ],
      "name": "removeDepositorsFromAllowlist",
      "outputs": [],
      "stateMutability": "nonpayable",
      "type": "function"
    },
    {
      "inputs": [
        {
          "internalType": "bytes32",
          "name": "role",
          "type": "bytes32"
        },
        {
          "internalType": "address",
          "name": "account",
          "type": "address"
        }
      ],
      "name": "renounceRole",
      "outputs": [],
      "stateMutability": "nonpayable",
      "type": "function"
    },
    {
      "inputs": [
        {
          "internalType": "bytes32",
          "name": "role",
          "type": "bytes32"
        },
        {
          "internalType": "address",
          "name": "account",
          "type": "address"
        }
      ],
      "name": "revokeRole",
      "outputs": [],
      "stateMutability": "nonpayable",
      "type": "function"
    },
    {
      "inputs": [
        {
          "internalType": "contract IOracle",
          "name": "oracle_",
          "type": "address"
        }
      ],
      "name": "setOracle",
      "outputs": [],
      "stateMutability": "nonpayable",
      "type": "function"
    },
    {
      "inputs": [
        {
          "internalType": "contract IMUSD",
          "name": "token_",
          "type": "address"
        }
      ],
      "name": "setToken",
      "outputs": [],
      "stateMutability": "nonpayable",
      "type": "function"
    },
    {
      "inputs": [],
      "name": "stabilisationFee",
      "outputs": [
        {
          "internalType": "uint256",
          "name": "",
          "type": "uint256"
        }
      ],
      "stateMutability": "view",
      "type": "function"
    },
    {
      "inputs": [
        {
          "internalType": "uint256",
          "name": "",
          "type": "uint256"
        }
      ],
      "name": "stabilisationFeeUpdate",
      "outputs": [
        {
          "internalType": "uint256",
          "name": "",
          "type": "uint256"
        }
      ],
      "stateMutability": "view",
      "type": "function"
    },
    {
      "inputs": [
        {
          "internalType": "uint256",
          "name": "",
          "type": "uint256"
        }
      ],
      "name": "stabilisationFeeUpdateTimestamp",
      "outputs": [
        {
          "internalType": "uint256",
          "name": "",
          "type": "uint256"
        }
      ],
      "stateMutability": "view",
      "type": "function"
    },
    {
      "inputs": [
        {
          "internalType": "bytes4",
          "name": "interfaceId",
          "type": "bytes4"
        }
      ],
      "name": "supportsInterface",
      "outputs": [
        {
          "internalType": "bool",
          "name": "",
          "type": "bool"
        }
      ],
      "stateMutability": "view",
      "type": "function"
    },
    {
      "inputs": [],
      "name": "token",
      "outputs": [
        {
          "internalType": "contract IMUSD",
          "name": "",
          "type": "address"
        }
      ],
      "stateMutability": "view",
      "type": "function"
    },
    {
      "inputs": [],
      "name": "treasury",
      "outputs": [
        {
          "internalType": "address",
          "name": "",
          "type": "address"
        }
      ],
      "stateMutability": "view",
      "type": "function"
    },
    {
      "inputs": [],
      "name": "unpause",
      "outputs": [],
      "stateMutability": "nonpayable",
      "type": "function"
    },
    {
      "inputs": [
        {
          "internalType": "uint256",
          "name": "stabilisationFee_",
          "type": "uint256"
        }
      ],
      "name": "updateStabilisationFee",
      "outputs": [],
      "stateMutability": "nonpayable",
      "type": "function"
    },
    {
      "inputs": [],
      "name": "vaultCount",
      "outputs": [
        {
          "internalType": "uint256",
          "name": "",
          "type": "uint256"
        }
      ],
      "stateMutability": "view",
      "type": "function"
    },
    {
      "inputs": [
        {
          "internalType": "uint256",
          "name": "vaultId",
          "type": "uint256"
        }
      ],
      "name": "vaultNftsById",
      "outputs": [
        {
          "internalType": "uint256[]",
          "name": "",
          "type": "uint256[]"
        }
      ],
      "stateMutability": "view",
      "type": "function"
    },
    {
      "inputs": [
        {
          "internalType": "uint256",
          "name": "",
          "type": "uint256"
        }
      ],
      "name": "vaultOwner",
      "outputs": [
        {
          "internalType": "address",
          "name": "",
          "type": "address"
        }
      ],
      "stateMutability": "view",
      "type": "function"
    },
    {
      "inputs": [
        {
          "internalType": "uint256",
          "name": "nft",
          "type": "uint256"
        }
      ],
      "name": "withdrawCollateral",
      "outputs": [],
      "stateMutability": "nonpayable",
      "type": "function"
    }
  ],
  "bytecode": {
    "object": "0x6101006040526003805461ffff60a01b1916600160a81b1790556000600e553480156200002b57600080fd5b506040516200534c3803806200534c8339810160408190526200004e9162000420565b866001600160a01b0381166200007757604051639fabe1c160e01b815260040160405180910390fd5b620000926000805160206200532c8339815191528262000257565b620000ad6000805160206200530c8339815191528262000257565b620000c86000805160206200530c8339815191528062000267565b620001037fc171260023d22a25a00a2789664c9334017843b831138c8ef03cc8897e5873d76000805160206200530c83398151915262000267565b6200013e6000805160206200532c8339815191527fc171260023d22a25a00a2789664c9334017843b831138c8ef03cc8897e5873d762000267565b506001600160a01b03861615806200015d57506001600160a01b038516155b806200017057506001600160a01b038416155b806200018357506001600160a01b038316155b806200019657506001600160a01b038216155b15620001b557604051639fabe1c160e01b815260040160405180910390fd5b6001600160a01b0395861660805293851660a05291841660c052600280546001600160a01b03191691851691909117905590911660e052600f805460018181019092557f8d1108e10bcb7c27dddfc02ed9d693a074039d026cf4ea4240b40f7d581ac8020191909155601080549182018155600052427f1b6847dc741a1b0cd08d278845f9d819d87b734759afb55fe2de5cb82a9ae6729091015550620004bf565b620002638282620002b2565b5050565b600082815260208190526040808220600101805490849055905190918391839186917fbd79b86ffe0ab8e8776151514217cd7cacd52c909f66475c3af44e129f0b00ff9190a4505050565b620002c98282620002f560201b62002ac41760201c565b6000828152600160209081526040909120620002f091839062002b4862000395821b17901c565b505050565b6000828152602081815260408083206001600160a01b038516845290915290205460ff1662000263576000828152602081815260408083206001600160a01b03851684529091529020805460ff19166001179055620003513390565b6001600160a01b0316816001600160a01b0316837f2f8788117e7eff1d82e926ec794901d17c78024a50270940304540a733656f0d60405160405180910390a45050565b6000620003ac836001600160a01b038416620003b5565b90505b92915050565b6000818152600183016020526040812054620003fe57508154600181810184556000848152602080822090930184905584548482528286019093526040902091909155620003af565b506000620003af565b6001600160a01b03811681146200041d57600080fd5b50565b600080600080600080600060e0888a0312156200043c57600080fd5b8751620004498162000407565b60208901519097506200045c8162000407565b60408901519096506200046f8162000407565b6060890151909550620004828162000407565b6080890151909450620004958162000407565b60a0890151909350620004a88162000407565b8092505060c0880151905092959891949750929550565b60805160a05160c05160e051614d9562000577600039600081816105a8015281816110b80152611ce301526000818161055b01528181610aa001528181610edc01528181610ff9015281816113f401528181611a720152818161212d0152818161275d0152818161285e015261296801526000818161076a0152612058015260008181610611015281816114ee01528181611fb0015281816121b80152818161226f015281816133c90152613dbd0152614d956000f3fe608060405234801561001057600080fd5b506004361061035d5760003560e01c80637adbf973116101d3578063a217fddf11610104578063d547741f116100a2578063ece137321161007c578063ece13732146107e5578063faff660e146107f8578063fc018c051461080c578063fc0c546a1461081457600080fd5b8063d547741f1461079f578063e273d23e146107b2578063e69f3ebf146107c557600080fd5b8063b187bd26116100de578063b187bd2614610746578063b4b15f711461075a578063c45a015514610765578063ca15c8731461078c57600080fd5b8063a217fddf14610722578063a7c6a1001461072a578063a8406ea31461073357600080fd5b8063918f867411610171578063965e7f271161014b578063965e7f27146106c0578063983d2737146106d35780639b52d8c8146106fa578063a09eb0e71461070d57600080fd5b8063918f86741461068f57806391b7ab471461069a57806391d14854146106ad57600080fd5b806383914540116101ad57806383914540146106615780638456cb591461066c57806386f54712146106745780639010d07c1461067c57600080fd5b80637adbf973146106335780637c84b40c146106465780637dc0d1d01461064e57600080fd5b806336568abe116102ad5780635d2bb9971161024b5780636ac90fd4116102255780636ac90fd4146105ca5780636d70f7ae146105d257806375b238fc146105e5578063791b98bc1461060c57600080fd5b80635d2bb9971461057d5780636112fe2e1461059057806361d027b3146105a357600080fd5b806340792465116102875780634079246514610525578063415f12401461053057806341b0cbf9146105435780635227ce4c1461055657600080fd5b806336568abe146104c95780633c2ecfe5146104dc5780633f4ba83a1461051d57600080fd5b8063248a9ca31161031a5780632b0eeec3116102f45780632b0eeec3146104705780632d922369146104905780632f2ff15d146104a3578063360c3288146104b657600080fd5b8063248a9ca31461041a57806324d7806c1461043d5780632a7c49e31461045057600080fd5b806301ffc9a7146103625780630952ff541461038a57806313a81c7c146103bf578063144fa6d7146103d45780631e0029c8146103e757806323a4deb514610407575b600080fd5b6103756103703660046145af565b610827565b60405190151581526020015b60405180910390f35b6103b17fc171260023d22a25a00a2789664c9334017843b831138c8ef03cc8897e5873d781565b604051908152602001610381565b6103d26103cd3660046145d9565b610852565b005b6103d26103e2366004614607565b610984565b6103b16103f53660046145d9565b60096020526000908152604090205481565b6103b16104153660046145d9565b610a2f565b6103b16104283660046145d9565b60009081526020819052604090206001015490565b61037561044b366004614607565b610c0f565b6103b161045e3660046145d9565b600a6020526000908152604090205481565b61048361047e366004614607565b610c6b565b6040516103819190614624565b6103b161049e3660046145d9565b610c8f565b6103d26104b1366004614668565b610cc9565b6103d26104c43660046145d9565b610cf3565b6103d26104d7366004614668565b610d8b565b6105056104ea3660046145d9565b6008602052600090815260409020546001600160a01b031681565b6040516001600160a01b039091168152602001610381565b6103d2610e0e565b6103b1600160601b81565b6103d261053e3660046145d9565b610e52565b6103b16105513660046145d9565b6112a3565b6105057f000000000000000000000000000000000000000000000000000000000000000081565b61048361058b3660046145d9565b6112c4565b6103d261059e3660046145d9565b6112de565b6105057f000000000000000000000000000000000000000000000000000000000000000081565b6103b16116e4565b6103756105e0366004614607565b611718565b6103b17ff23ec0bb4210edd5cba85afd05127efcd2fc6a781bfed49188da1081670b22d881565b6105057f000000000000000000000000000000000000000000000000000000000000000081565b6103d2610641366004614607565b611744565b6103d26117c5565b600254610505906001600160a01b031681565b6103b16301e1338081565b6103d261180f565b6103b1611859565b61050561068a366004614698565b611945565b6103b1633b9aca0081565b6103d26106a83660046146ba565b611964565b6103756106bb366004614668565b6119bc565b6103b16106ce3660046145d9565b6119e5565b6103b17f46a52cf33029de9f84853745a87af28464c80bf0346df1b32e205fc73319f62281565b6103d2610708366004614698565b6119f5565b610715611c15565b604051610381919061472f565b6103b1600081565b6103b1600e5481565b6103d2610741366004614698565b611c26565b60035461037590600160a01b900460ff1681565b6103b1600160801b81565b6105057f000000000000000000000000000000000000000000000000000000000000000081565b6103b161079a3660046145d9565b611eb2565b6103d26107ad366004614668565b611ec9565b6103d26107c03660046146ba565b611eee565b6103b16107d3366004614607565b600c6020526000908152604090205481565b6103d26107f3366004614698565b611f46565b60035461037590600160a81b900460ff1681565b6103d2612a80565b600354610505906001600160a01b031681565b60006001600160e01b03198216635a05180f60e01b148061084c575061084c82612b5d565b92915050565b61085a612b92565b633b9aca0081111561087f57604051632a9ffab760e21b815260040160405180910390fd5b6010805461088f90600190614786565b8154811061089f5761089f61479d565b906000526020600020015442111561091957600f805460018181019092557f8d1108e10bcb7c27dddfc02ed9d693a074039d026cf4ea4240b40f7d581ac80201829055601080549182018155600052427f1b6847dc741a1b0cd08d278845f9d819d87b734759afb55fe2de5cb82a9ae67290910155610949565b600f805482919061092c90600190614786565b8154811061093c5761093c61479d565b6000918252602090912001555b604051818152339032907f5bda82a5a2807e9bd9a418db16eadb64dee1d10796e84657bc3c8eb8d74bb368906020015b60405180910390a350565b61098c612b92565b6001600160a01b0381166109b357604051639fabe1c160e01b815260040160405180910390fd5b6003546001600160a01b0316156109dd576040516311f9360560e31b815260040160405180910390fd5b600380546001600160a01b0319166001600160a01b038316908117909155604051908152339032907f9d203f9c7900cead6c642365d4d8ff9e6f6b4a2bb267d7f57d5c55a076ab825290602001610979565b600080805b6000848152600760205260409020610a4b90612bba565b811015610c08576000848152600760205260408120610a6a9083612bc4565b6000818152600d602052604080822060090154905163b1732b2560e01b81526001600160a01b03918216600482015292935090917f00000000000000000000000000000000000000000000000000000000000000009091169063b1732b2590602401602060405180830381865afa158015610ae9573d6000803e3d6000fd5b505050506040513d601f19601f82011682018060405250810190610b0d91906147b3565b6000838152600d602090815260409182902082516101a08101845281546001600160a01b039081168252600183015480821694830194909452600160a01b90930462ffffff16938101939093526002810154606084015260038101546001600160801b039081166080850152600482015460a0850152600582015460c0850152600682015480821660e0860152600160801b90041661010084015260078101548216610120840152600881015482166101408401526009810154909116610160830152600a0154610180820152909150610be990839083612bd0565b610bf390856147cc565b9350505080610c01906147e4565b9050610a34565b5092915050565b6000610c3b7ff23ec0bb4210edd5cba85afd05127efcd2fc6a781bfed49188da1081670b22d8836119bc565b8061084c575061084c7fc171260023d22a25a00a2789664c9334017843b831138c8ef03cc8897e5873d7836119bc565b6001600160a01b038116600090815260066020526040902060609061084c90612f0e565b6000610c9a82612f1b565b6000838152600a6020908152604080832054600990925290912054610cbf91906147cc565b61084c91906147cc565b600082815260208190526040902060010154610ce481613088565b610cee8383613095565b505050565b610cfc816130b7565b610d05816130ee565b600081815260096020526040902054151580610d2e57506000818152600a602052604090205415155b15610d4c576040516304aec73b60e01b815260040160405180910390fd5b610d57813333613158565b604051818152339032907f409a6f77c40c4b5ae8c4490a79b47623875cee640834986711c464b889470b2a90602001610979565b6001600160a01b0381163314610e005760405162461bcd60e51b815260206004820152602f60248201527f416363657373436f6e74726f6c3a2063616e206f6e6c792072656e6f756e636560448201526e103937b632b9903337b91039b2b63360891b60648201526084015b60405180910390fd5b610e0a82826134fd565b5050565b610e16612b92565b6003805460ff60a01b19169055604051339032907f4bc647b1389eed39d42705e843eb919035ed54c91277e71038dbce67bee26d4b90600090a3565b610e5b816130ee565b6000610e6682610a2f565b6000838152600a602090815260408083205460099092528220549293509091610e8f91906147cc565b9050808210610eb157604051630879983f60e21b815260040160405180910390fd5b6000838152600860205260408120546001600160a01b031690610ed38561351f565b90506000610f797f00000000000000000000000000000000000000000000000000000000000000006001600160a01b03166393aab9d56040518163ffffffff1660e01b8152600401608060405180830381865afa158015610f38573d6000803e3d6000fd5b505050506040513d601f19601f82011682018060405250810190610f5c9190614813565b60200151610f6e90633b9aca00614786565b83633b9aca00613658565b6003546040516323b872dd60e01b81529192506001600160a01b0316906323b872dd90610fae90339030908690600401614887565b6020604051808303816000875af1158015610fcd573d6000803e3d6000fd5b505050506040513d601f19601f82011682018060405250810190610ff191906148c0565b5060006110857f00000000000000000000000000000000000000000000000000000000000000006001600160a01b03166393aab9d56040518163ffffffff1660e01b8152600401608060405180830381865afa158015611055573d6000803e3d6000fd5b505050506040513d601f19601f820116820180604052508101906110799190614813565b5184633b9aca00613658565b6000888152600a602052604090205461109e91906147cc565b60035460405163a9059cbb60e01b81526001600160a01b037f0000000000000000000000000000000000000000000000000000000000000000811660048301526024820184905292935091169063a9059cbb906044016020604051808303816000875af1158015611113573d6000803e3d6000fd5b505050506040513d601f19601f8201168201806040525081019061113791906148c0565b506003546000888152600960205260409020546001600160a01b039091169063a9059cbb9086906111688587614786565b6111729190614786565b6040516001600160e01b031960e085901b1681526001600160a01b03909216600483015260248201526044016020604051808303816000875af11580156111bd573d6000803e3d6000fd5b505050506040513d601f19601f820116820180604052508101906111e191906148c0565b5060035460008881526009602052604090819020549051632770a7eb60e21b81526001600160a01b0387811660048301526024820192909252911690639dc29fac90604401600060405180830381600087803b15801561124057600080fd5b505af1158015611254573d6000803e3d6000fd5b50505050611263878533613158565b604051878152339032907f85f837e9a8f4209c5d6729c62bbb02144f3904e1e039b7d444110dd96003d6269060200160405180910390a350505050505050565b601081815481106112b357600080fd5b600091825260209091200154905081565b600081815260076020526040902060609061084c90612f0e565b6112e661370a565b6000818152600d602090815260409182902082516101a08101845281546001600160a01b039081168252600183015480821694830194909452600160a01b90930462ffffff16938101939093526002810154606084015260038101546001600160801b039081166080850152600482015460a0850152600582015460c0850152600682015480821660e0860152600160801b90041661010084015260078101548216610120840152600881015482166101408401526009810154909116610160830152600a015461018082018190526113be906130b7565b6113cc8161018001516130ee565b61016081015160405163b1732b2560e01b81526001600160a01b0391821660048201526000917f0000000000000000000000000000000000000000000000000000000000000000169063b1732b2590602401602060405180830381865afa15801561143b573d6000803e3d6000fd5b505050506040513d601f19601f8201168201806040525081019061145f91906147b3565b9050600061146e848484612bd0565b61147c846101800151610a2f565b6114869190614786565b610180840180516000908152600a60209081526040808320549351835260099091529020549192506114b7916147cc565b8110156114d757604051631d9d79c160e01b815260040160405180910390fd5b6040516323b872dd60e01b81526001600160a01b037f000000000000000000000000000000000000000000000000000000000000000016906323b872dd9061152790309033908990600401614887565b600060405180830381600087803b15801561154157600080fd5b505af1158015611555573d6000803e3d6000fd5b5050505060006115748461012001518561014001518660800151613735565b9050600061159185610120015186610140015187608001516137b0565b85516001600160a01b03166000908152600c60205260408120805492935084929091906115bf908490614786565b90915550506020808601516001600160a01b03166000908152600c9091526040812080548392906115f1908490614786565b9091555050610180850151600090815260076020526040902061161490876137fa565b506000868152600d6020908152604080832080546001600160a01b031990811682556001820180546001600160b81b0319169055600282018590556003820180546001600160801b031916905560048201859055600582018590556006820185905560078201805482169055600882018054821690556009820180549091169055600a01929092556101808701518251908152908101889052339132917f80595a8ea28d7589dd6ff0f9a296c35f1c7feb1dac2108a03df3e7e67333442b910160405180910390a3505050505050565b600f8054600091906116f890600190614786565b815481106117085761170861479d565b9060005260206000200154905090565b600061084c7f46a52cf33029de9f84853745a87af28464c80bf0346df1b32e205fc73319f622836119bc565b61174c612b92565b6001600160a01b03811661177357604051639fabe1c160e01b815260040160405180910390fd5b600280546001600160a01b0319166001600160a01b038316908117909155604051908152339032907fa18d4edc0f9c89f7feb41d0243d7f20bf44c5b426ede1cc1014a31ab8eb7248990602001610979565b6117cd612b92565b6003805460ff60a81b1916600160a81b179055604051339032907ff7b1ad987eed99cc5824a2f41a7dfef011daef968e99ccc4be4ad4d09319fd6890600090a3565b611817613806565b6003805460ff60a01b1916600160a01b179055604051339032907f0a5f1e15c1e95836bd0cc0786479c594b24191b3410a6c4358387e564ff2c64090600090a3565b600354600090600160a81b900460ff16801561187d575061187b600433613840565b155b1561189b576040516351caf8cd60e01b815260040160405180910390fd5b600e600081546118aa906147e4565b90915550600e543360009081526006602052604090206118c991613862565b50600e8054600090815260086020908152604080832080546001600160a01b0319163390811790915584548452600b909252918290204290559154905132917fade8cc81abf6a1de962000d4460e633d2ed7d033106f10cd721306e578188cde9161193691815260200190565b60405180910390a350600e5490565b600082815260016020526040812061195d9083612bc4565b9392505050565b61196c612b92565b60005b81811015610cee576119a983838381811061198c5761198c61479d565b90506020020160208101906119a19190614607565b600490612b48565b50806119b4816147e4565b91505061196f565b6000918252602082815260408084206001600160a01b0393909316845291905290205460ff1690565b600f81815481106112b357600080fd5b6119fd61370a565b611a06826130b7565b611a0f826130ee565b6000611a1a83610a2f565b6000848152600a60209081526040808320546009909252909120549192508391611a4491906147cc565b611a4e91906147cc565b811015611a6e57604051631d9d79c160e01b815260040160405180910390fd5b60007f00000000000000000000000000000000000000000000000000000000000000006001600160a01b03166393aab9d56040518163ffffffff1660e01b8152600401608060405180830381865afa158015611ace573d6000803e3d6000fd5b505050506040513d601f19601f82011682018060405250810190611af29190614813565b6040908101516000868152600a6020908152838220546009909152929020549092508491611b1f916147cc565b611b2991906147cc565b811015611b49576040516330c84bd760e21b815260040160405180910390fd5b6003546040516340c10f1960e01b8152336004820152602481018590526001600160a01b03909116906340c10f1990604401600060405180830381600087803b158015611b9557600080fd5b505af1158015611ba9573d6000803e3d6000fd5b50505060008581526009602052604081208054869350909190611bcd9084906147cc565b90915550506040805185815260208101859052339132917fbd55641d4bb35ab09bf05ae443494f9133bd44ff721af353d5be89f98f26576c910160405180910390a350505050565b6060611c216004612f0e565b905090565b611c2e61370a565b611c37826130b7565b611c40826130ee565b600082815260096020908152604080832054600a90925290912054611c6591906147cc565b8110611c9557600082815260096020908152604080832054600a90925290912054611c9091906147cc565b611c97565b805b600083815260096020526040902054909150811115611de857600082815260096020526040812054611cc99083614786565b6003546040516340c10f1960e01b81526001600160a01b037f000000000000000000000000000000000000000000000000000000000000000081166004830152602482018490529293509116906340c10f1990604401600060405180830381600087803b158015611d3957600080fd5b505af1158015611d4d573d6000803e3d6000fd5b5050506000848152600a602052604081208054849350909190611d71908490614786565b90915550611d8190508183614786565b600354604051632770a7eb60e21b8152336004820152602481018490529193506001600160a01b031690639dc29fac90604401600060405180830381600087803b158015611dce57600080fd5b505af1158015611de2573d6000803e3d6000fd5b50505050505b600354604051632770a7eb60e21b8152336004820152602481018390526001600160a01b0390911690639dc29fac90604401600060405180830381600087803b158015611e3457600080fd5b505af1158015611e48573d6000803e3d6000fd5b50505060008381526009602052604081208054849350909190611e6c908490614786565b90915550506040805183815260208101839052339132917f5ff23971e17d966bd90c0b467e5ce3bf77406638e1c0d952cb67a8a7d30ab209910160405180910390a35050565b600081815260016020526040812061084c90612bba565b600082815260208190526040902060010154611ee481613088565b610cee83836134fd565b611ef6612b92565b60005b81811015610cee57611f33838383818110611f1657611f1661479d565b9050602002016020810190611f2b9190614607565b60049061386e565b5080611f3e816147e4565b915050611ef9565b611f4e61370a565b600354600160a81b900460ff168015611f6f5750611f6d600433613840565b155b15611f8d576040516351caf8cd60e01b815260040160405180910390fd5b611f96826130b7565b611f9f826130ee565b6000806000806000806000806000807f00000000000000000000000000000000000000000000000000000000000000006001600160a01b03166399fbab888c6040518263ffffffff1660e01b8152600401611ffc91815260200190565b61018060405180830381865afa15801561201a573d6000803e3d6000fd5b505050506040513d601f19601f8201168201806040525081019061203e9190614922565b9b509b509b509b509b509b509b509b509b509b50505060007f00000000000000000000000000000000000000000000000000000000000000006001600160a01b0316631698ee828c8c8c6040518463ffffffff1660e01b81526004016120ca939291906001600160a01b03938416815291909216602082015262ffffff91909116604082015260600190565b602060405180830381865afa1580156120e7573d6000803e3d6000fd5b505050506040513d601f19601f8201168201806040525081019061210b9190614a03565b60405163159354c160e11b81526001600160a01b0380831660048301529192507f000000000000000000000000000000000000000000000000000000000000000090911690632b26a98290602401602060405180830381865afa158015612176573d6000803e3d6000fd5b505050506040513d601f19601f8201168201806040525081019061219a91906148c0565b6121b65760405162820f3560e61b815260040160405180910390fd5b7f00000000000000000000000000000000000000000000000000000000000000006001600160a01b03166323b872dd33308f6040518463ffffffff1660e01b815260040161220693929190614887565b600060405180830381600087803b15801561222057600080fd5b505af1158015612234573d6000803e3d6000fd5b50505050604051806101a001604052808c6001600160a01b031681526020018b6001600160a01b031681526020018a62ffffff1681526020017f00000000000000000000000000000000000000000000000000000000000000008a8a6040516020016122cb9392919060609390931b6bffffffffffffffffffffffff1916835260e891821b6014840152901b6017820152601a0190565b604051602081830303815290604052805190602001208152602001876001600160801b03168152602001868152602001858152602001846001600160801b03168152602001836001600160801b031681526020016123288a613883565b6001600160a01b0316815260200161233f89613883565b6001600160a01b03168152602001826001600160a01b031681526020018e815250600d60008e815260200190815260200160002060008201518160000160006101000a8154816001600160a01b0302191690836001600160a01b0316021790555060208201518160010160006101000a8154816001600160a01b0302191690836001600160a01b0316021790555060408201518160010160146101000a81548162ffffff021916908362ffffff1602179055506060820151816002015560808201518160030160006101000a8154816001600160801b0302191690836001600160801b0316021790555060a0820151816004015560c0820151816005015560e08201518160060160006101000a8154816001600160801b0302191690836001600160801b031602179055506101008201518160060160106101000a8154816001600160801b0302191690836001600160801b031602179055506101208201518160070160006101000a8154816001600160a01b0302191690836001600160a01b031602179055506101408201518160080160006101000a8154816001600160a01b0302191690836001600160a01b031602179055506101608201518160090160006101000a8154816001600160a01b0302191690836001600160a01b0316021790555061018082015181600a015590505050505050505050505050506000600d6000838152602001908152602001600020604051806101a00160405290816000820160009054906101000a90046001600160a01b03166001600160a01b03166001600160a01b031681526020016001820160009054906101000a90046001600160a01b03166001600160a01b03166001600160a01b031681526020016001820160149054906101000a900462ffffff1662ffffff1662ffffff168152602001600282015481526020016003820160009054906101000a90046001600160801b03166001600160801b03166001600160801b0316815260200160048201548152602001600582015481526020016006820160009054906101000a90046001600160801b03166001600160801b03166001600160801b031681526020016006820160109054906101000a90046001600160801b03166001600160801b03166001600160801b031681526020016007820160009054906101000a90046001600160a01b03166001600160a01b03166001600160a01b031681526020016008820160009054906101000a90046001600160a01b03166001600160a01b03166001600160a01b031681526020016009820160009054906101000a90046001600160a01b03166001600160a01b03166001600160a01b03168152602001600a820154815250509050600061273c8261012001518361014001518460800151613735565b9050600061275983610120015184610140015185608001516137b0565b90507f00000000000000000000000000000000000000000000000000000000000000006001600160a01b03166393aab9d56040518163ffffffff1660e01b8152600401608060405180830381865afa1580156127b9573d6000803e3d6000fd5b505050506040513d601f19601f820116820180604052508101906127dd9190614813565b606001516127f08585633b9aca00612bd0565b101561280f57604051635a0e910960e11b815260040160405180910390fd5b82516001600160a01b03166000908152600c6020526040812080548492906128389084906147cc565b90915550508251604051635a860c8760e01b81526001600160a01b0391821660048201527f000000000000000000000000000000000000000000000000000000000000000090911690635a860c8790602401602060405180830381865afa1580156128a7573d6000803e3d6000fd5b505050506040513d601f19601f820116820180604052508101906128cb91906147b3565b83516001600160a01b03166000908152600c6020526040902054111561291257825160405163e71ff83760e01b81526001600160a01b039091166004820152602401610df7565b6020808401516001600160a01b03166000908152600c90915260408120805483929061293f9084906147cc565b90915550506020830151604051635a860c8760e01b81526001600160a01b0391821660048201527f000000000000000000000000000000000000000000000000000000000000000090911690635a860c8790602401602060405180830381865afa1580156129b1573d6000803e3d6000fd5b505050506040513d601f19601f820116820180604052508101906129d591906147b3565b6020808501516001600160a01b03166000908152600c90915260409020541115612a2357602083015160405163e71ff83760e01b81526001600160a01b039091166004820152602401610df7565b6000858152600760205260409020612a3b9085613862565b506040805186815260208101869052339132917f95d16db8c4932fcf5d6de67364791e7178ec505c7d3829a8b34d18959c01552c910160405180910390a35050505050565b612a88612b92565b6003805460ff60a81b19169055604051339032907fa4fe2cd3643dcb3856aae278083bc54af310a8d7b740e68b1c006f915c860f5990600090a3565b612ace82826119bc565b610e0a576000828152602081815260408083206001600160a01b03851684529091529020805460ff19166001179055612b043390565b6001600160a01b0316816001600160a01b0316837f2f8788117e7eff1d82e926ec794901d17c78024a50270940304540a733656f0d60405160405180910390a45050565b600061195d836001600160a01b038416613c9b565b60006001600160e01b03198216637965db0b60e01b148061084c57506301ffc9a760e01b6001600160e01b031983161461084c565b612b9b33610c0f565b612bb857604051631dd2188d60e31b815260040160405180910390fd5b565b600061084c825490565b600061195d8383613cea565b6040805160028082526060820183526000928392919060208301908036833701905050905060008461016001516001600160a01b0316633850c7bd6040518163ffffffff1660e01b815260040160e060405180830381865afa158015612c3a573d6000803e3d6000fd5b505050506040513d601f19601f82011682018060405250810190612c5e9190614a32565b5050505050509050612c80818661012001518761014001518860800151613d14565b83600081518110612c9357612c9361479d565b6020026020010184600181518110612cad57612cad61479d565b6020026020010182815250828152505050600080612cd087610160015189613db0565b6001600160801b031691506001600160801b031691508184600081518110612cfa57612cfa61479d565b60200260200101818151612d0e91906147cc565b9052508351819085906001908110612d2857612d2861479d565b60200260200101818151612d3c91906147cc565b9052506040805160028082526060820183526000926020830190803683370190505060025489516040516315d5220f60e31b81526001600160a01b039182166004820152929350169063aea9107890602401602060405180830381865afa158015612dab573d6000803e3d6000fd5b505050506040513d601f19601f82011682018060405250810190612dcf91906147b3565b81600081518110612de257612de261479d565b602090810291909101810191909152600254908901516040516315d5220f60e31b81526001600160a01b03918216600482015291169063aea9107890602401602060405180830381865afa158015612e3e573d6000803e3d6000fd5b505050506040513d601f19601f82011682018060405250810190612e6291906147b3565b81600181518110612e7557612e7561479d565b6020026020010181815250506000805b6002811015612f00576000612ed1888381518110612ea557612ea561479d565b6020026020010151858481518110612ebf57612ebf61479d565b6020026020010151600160601b613658565b9050612ee2818b633b9aca00613658565b612eec90846147cc565b92505080612ef9906147e4565b9050612e85565b509998505050505050505050565b6060600061195d83614064565b6000818152600b602052604081205481612f358242614786565b6000858152600960205260409020549091501580612f51575080155b15612f5d575050919050565b600f5442905b801561307f576000846010612f79600185614786565b81548110612f8957612f8961479d565b906000526020600020015411612f9f5784612fc8565b6010612fac600184614786565b81548110612fbc57612fbc61479d565b90600052602060002001545b9050828110612fd7575061307f565b60008781526009602052604081205461301c90600f612ff7600187614786565b815481106130075761300761479d565b9060005260206000200154633b9aca00613658565b90506130368161302c8487614786565b6301e13380613658565b61304090886147cc565b9650601061304f600185614786565b8154811061305f5761305f61479d565b9060005260206000200154935050508061307890614ac2565b9050612f63565b50505050919050565b61309281336140c0565b50565b61309f8282612ac4565b6000828152600160205260409020610cee9082612b48565b6000818152600860205260409020546001600160a01b0316331461309257604051631dd2188d60e31b815260040160405180910390fd5b6000818152600b60205260408120546131079042614786565b111561309257600061311882612f1b565b90508015613144576000828152600a60205260408120805483929061313e9084906147cc565b90915550505b506000908152600b60205260409020429055565b600083815260076020526040812061316f90612f0e565b905060005b600085815260076020526040902061318b90612bba565b81101561347a576000600d60008484815181106131aa576131aa61479d565b6020908102919091018101518252818101929092526040908101600090812082516101a08101845281546001600160a01b039081168252600183015480821696830196909652600160a01b90950462ffffff16938101939093526002810154606084015260038101546001600160801b0390811660808501819052600483015460a0860152600583015460c0860152600683015480831660e0870152600160801b90049091166101008501526007820154851661012085018190526008830154861661014086018190526009840154909616610160860152600a90920154610180850152929450909261329c92613735565b905060006132b983610120015184610140015185608001516137b0565b83516001600160a01b03166000908152600c60205260408120805492935084929091906132e7908490614786565b90915550506020808401516001600160a01b03166000908152600c909152604081208054839290613319908490614786565b92505081905550600d60008686815181106133365761333661479d565b6020908102919091018101518252810191909152604001600090812080546001600160a01b031990811682556001820180546001600160b81b0319169055600282018390556003820180546001600160801b031916905560048201839055600582018390556006820183905560078201805482169055600882018054821690556009820180549091169055600a015584517f00000000000000000000000000000000000000000000000000000000000000006001600160a01b0316906323b872dd903090899089908990811061340e5761340e61479d565b60200260200101516040518463ffffffff1660e01b815260040161343493929190614887565b600060405180830381600087803b15801561344e57600080fd5b505af1158015613462573d6000803e3d6000fd5b5050505050505080613473906147e4565b9050613174565b506001600160a01b038316600090815260066020526040902061349d90856137fa565b506000848152600960209081526040808320839055600a82528083208390556008825280832080546001600160a01b0319169055600790915281209081816134e5828261457d565b50505060009485525050600b60205250506040812055565b6135078282614124565b6000828152600160205260409020610cee908261386e565b600080805b600084815260076020526040902061353b90612bba565b811015610c0857600084815260076020526040812061355a9083612bc4565b6000818152600d602090815260409182902082516101a08101845281546001600160a01b039081168252600183015480821694830194909452600160a01b90930462ffffff16938101939093526002810154606084015260038101546001600160801b039081166080850152600482015460a0850152600582015460c0850152600682015480821660e0860152600160801b90041661010084015260078101548216610120840152600881015482166101408401526009810154909116610160830152600a015461018082015290915061363a908290633b9aca00612bd0565b61364490846147cc565b92505080613651906147e4565b9050613524565b6000808060001985870985870292508281108382030391505080600003613691576000841161368657600080fd5b50829004905061195d565b80841161369d57600080fd5b6000848688096000868103871696879004966002600389028118808a02820302808a02820302808a02820302808a02820302808a02820302808a02909103029181900381900460010186841190950394909402919094039290920491909117919091029150509392505050565b600354600160a01b900460ff1615612bb8576040516313d0ff5960e31b815260040160405180910390fd5b6000826001600160a01b0316846001600160a01b03161115613755579192915b6001600160a01b03841661379e6fffffffffffffffffffffffffffffffff60601b606085901b166137868787614ad9565b6001600160a01b0316866001600160a01b0316613658565b6137a89190614b17565b949350505050565b6000826001600160a01b0316846001600160a01b031611156137d0579192915b6137a86001600160801b0383166137e78686614ad9565b6001600160a01b0316600160601b613658565b600061195d8383614189565b61380f33610c0f565b158015613822575061382033611718565b155b15612bb857604051631dd2188d60e31b815260040160405180910390fd5b6001600160a01b0381166000908152600183016020526040812054151561195d565b600061195d8383613c9b565b600061195d836001600160a01b038416614189565b60008060008360020b1261389a578260020b6138a7565b8260020b6138a790614b2b565b90506138b6620d89e719614b47565b60020b8111156138ec5760405162461bcd60e51b81526020600482015260016024820152601560fa1b6044820152606401610df7565b60008160011660000361390357600160801b613915565b6ffffcb933bd6fad37aa2d162d1a5940015b70ffffffffffffffffffffffffffffffffff169050600282161561395457608061394f826ffff97272373d413259a46990580e213a614b69565b901c90505b600482161561397e576080613979826ffff2e50f5f656932ef12357cf3c7fdcc614b69565b901c90505b60088216156139a85760806139a3826fffe5caca7e10e4e61c3624eaa0941cd0614b69565b901c90505b60108216156139d25760806139cd826fffcb9843d60f6159c9db58835c926644614b69565b901c90505b60208216156139fc5760806139f7826fff973b41fa98c081472e6896dfb254c0614b69565b901c90505b6040821615613a26576080613a21826fff2ea16466c96a3843ec78b326b52861614b69565b901c90505b6080821615613a50576080613a4b826ffe5dee046a99a2a811c461f1969c3053614b69565b901c90505b610100821615613a7b576080613a76826ffcbe86c7900a88aedcffc83b479aa3a4614b69565b901c90505b610200821615613aa6576080613aa1826ff987a7253ac413176f2b074cf7815e54614b69565b901c90505b610400821615613ad1576080613acc826ff3392b0822b70005940c7a398e4b70f3614b69565b901c90505b610800821615613afc576080613af7826fe7159475a2c29b7443b29c7fa6e889d9614b69565b901c90505b611000821615613b27576080613b22826fd097f3bdfd2022b8845ad8f792aa5825614b69565b901c90505b612000821615613b52576080613b4d826fa9f746462d870fdf8a65dc1f90e061e5614b69565b901c90505b614000821615613b7d576080613b78826f70d869a156d2a1b890bb3df62baf32f7614b69565b901c90505b618000821615613ba8576080613ba3826f31be135f97d08fd981231505542fcfa6614b69565b901c90505b62010000821615613bd4576080613bcf826f09aa508b5b7a84e1c677de54f3e99bc9614b69565b901c90505b62020000821615613bff576080613bfa826e5d6af8dedb81196699c329225ee604614b69565b901c90505b62040000821615613c29576080613c24826d2216e584f5fa1ea926041bedfe98614b69565b901c90505b62080000821615613c51576080613c4c826b048a170391f7dc42444e8fa2614b69565b901c90505b60008460020b1315613c6c57613c6981600019614b17565b90505b613c7b64010000000082614b88565b15613c87576001613c8a565b60005b6137a89060ff16602083901c6147cc565b6000818152600183016020526040812054613ce25750815460018181018455600084815260208082209093018490558454848252828601909352604090209190915561084c565b50600061084c565b6000826000018281548110613d0157613d0161479d565b9060005260206000200154905092915050565b600080836001600160a01b0316856001600160a01b03161115613d35579293925b846001600160a01b0316866001600160a01b031611613d6057613d59858585613735565b9150613da7565b836001600160a01b0316866001600160a01b03161015613d9957613d85868585613735565b9150613d928587856137b0565b9050613da7565b613da48585856137b0565b90505b94509492505050565b60008060008060008060007f00000000000000000000000000000000000000000000000000000000000000006001600160a01b03166399fbab88896040518263ffffffff1660e01b8152600401613e0991815260200190565b61018060405180830381865afa158015613e27573d6000803e3d6000fd5b505050506040513d601f19601f82011682018060405250810190613e4b9190614922565b909192939495969798999a509091929394959697989950909192939495969798509091929394959697509091929394959650809c50819d50829a50839b5084995085975086985050505050505050826001600160801b0316600003613eb457505050505061405d565b6000896001600160a01b031663f30583996040518163ffffffff1660e01b8152600401602060405180830381865afa158015613ef4573d6000803e3d6000fd5b505050506040513d601f19601f82011682018060405250810190613f1891906147b3565b905060008a6001600160a01b031663461413196040518163ffffffff1660e01b8152600401602060405180830381865afa158015613f5a573d6000803e3d6000fd5b505050506040513d601f19601f82011682018060405250810190613f7e91906147b3565b905060008b6001600160a01b0316633850c7bd6040518163ffffffff1660e01b815260040160e060405180830381865afa158015613fc0573d6000803e3d6000fd5b505050506040513d601f19601f82011682018060405250810190613fe49190614a32565b5050505050915050600080613ffd8e888886898961427c565b9092509050898203898203614020826001600160801b038c16600160801b613658565b61402a908f614b9c565b9d50614044818b6001600160801b0316600160801b613658565b61404e908e614b9c565b9c505050505050505050505050505b9250929050565b6060816000018054806020026020016040519081016040528092919081815260200182805480156140b457602002820191906000526020600020905b8154815260200190600101908083116140a0575b50505050509050919050565b6140ca82826119bc565b610e0a576140e2816001600160a01b031660146143e1565b6140ed8360206143e1565b6040516020016140fe929190614bf7565b60408051601f198184030181529082905262461bcd60e51b8252610df791600401614c6c565b61412e82826119bc565b15610e0a576000828152602081815260408083206001600160a01b0385168085529252808320805460ff1916905551339285917ff6391f5c32d9c69d2a47ea670b442974b53935d1edc7fd64eb21e047a839171b9190a45050565b600081815260018301602052604081205480156142725760006141ad600183614786565b85549091506000906141c190600190614786565b90508181146142265760008660000182815481106141e1576141e161479d565b90600052602060002001549050808760000184815481106142045761420461479d565b6000918252602080832090910192909255918252600188019052604090208390555b855486908061423757614237614c9f565b60019003818190600052602060002001600090559055856001016000868152602001908152602001600020600090556001935050505061084c565b600091505061084c565b60405163f30dba9360e01b8152600286900b60048201526000908190819081906001600160a01b038b169063f30dba939060240161010060405180830381865afa1580156142ce573d6000803e3d6000fd5b505050506040513d601f19601f820116820180604052508101906142f29190614cb5565b505060405163f30dba9360e01b815260028f900b600482015293975091955060009450849350506001600160a01b038e169163f30dba93915060240161010060405180830381865afa15801561434c573d6000803e3d6000fd5b505050506040513d601f19601f820116820180604052508101906143709190614cb5565b505050509350935050506000808c60020b8b60020b1261439457508490508361439d565b50508388038388035b6000808d60020b8d60020b12156143b85750849050836143c1565b5050838a03838a035b92909a03999099039d98909703969096039a509598505050505050505050565b606060006143f0836002614b69565b6143fb9060026147cc565b67ffffffffffffffff811115614413576144136147fd565b6040519080825280601f01601f19166020018201604052801561443d576020820181803683370190505b509050600360fc1b816000815181106144585761445861479d565b60200101906001600160f81b031916908160001a905350600f60fb1b816001815181106144875761448761479d565b60200101906001600160f81b031916908160001a90535060006144ab846002614b69565b6144b69060016147cc565b90505b600181111561452e576f181899199a1a9b1b9c1cb0b131b232b360811b85600f16601081106144ea576144ea61479d565b1a60f81b8282815181106145005761450061479d565b60200101906001600160f81b031916908160001a90535060049490941c9361452781614ac2565b90506144b9565b50831561195d5760405162461bcd60e51b815260206004820181905260248201527f537472696e67733a20686578206c656e67746820696e73756666696369656e746044820152606401610df7565b508054600082559060005260206000209081019061309291905b808211156145ab5760008155600101614597565b5090565b6000602082840312156145c157600080fd5b81356001600160e01b03198116811461195d57600080fd5b6000602082840312156145eb57600080fd5b5035919050565b6001600160a01b038116811461309257600080fd5b60006020828403121561461957600080fd5b813561195d816145f2565b6020808252825182820181905260009190848201906040850190845b8181101561465c57835183529284019291840191600101614640565b50909695505050505050565b6000806040838503121561467b57600080fd5b82359150602083013561468d816145f2565b809150509250929050565b600080604083850312156146ab57600080fd5b50508035926020909101359150565b600080602083850312156146cd57600080fd5b823567ffffffffffffffff808211156146e557600080fd5b818501915085601f8301126146f957600080fd5b81358181111561470857600080fd5b8660208260051b850101111561471d57600080fd5b60209290920196919550909350505050565b6020808252825182820181905260009190848201906040850190845b8181101561465c5783516001600160a01b03168352928401929184019160010161474b565b634e487b7160e01b600052601160045260246000fd5b60008282101561479857614798614770565b500390565b634e487b7160e01b600052603260045260246000fd5b6000602082840312156147c557600080fd5b5051919050565b600082198211156147df576147df614770565b500190565b6000600182016147f6576147f6614770565b5060010190565b634e487b7160e01b600052604160045260246000fd5b60006080828403121561482557600080fd5b6040516080810181811067ffffffffffffffff8211171561485657634e487b7160e01b600052604160045260246000fd5b8060405250825181526020830151602082015260408301516040820152606083015160608201528091505092915050565b6001600160a01b039384168152919092166020820152604081019190915260600190565b805180151581146148bb57600080fd5b919050565b6000602082840312156148d257600080fd5b61195d826148ab565b80516148bb816145f2565b805162ffffff811681146148bb57600080fd5b8051600281900b81146148bb57600080fd5b80516001600160801b03811681146148bb57600080fd5b6000806000806000806000806000806000806101808d8f03121561494557600080fd5b8c516bffffffffffffffffffffffff8116811461496157600080fd5b9b5061496f60208e016148db565b9a5061497d60408e016148db565b995061498b60608e016148db565b985061499960808e016148e6565b97506149a760a08e016148f9565b96506149b560c08e016148f9565b95506149c360e08e0161490b565b94506101008d015193506101208d015192506149e26101408e0161490b565b91506149f16101608e0161490b565b90509295989b509295989b509295989b565b600060208284031215614a1557600080fd5b815161195d816145f2565b805161ffff811681146148bb57600080fd5b600080600080600080600060e0888a031215614a4d57600080fd5b8751614a58816145f2565b9650614a66602089016148f9565b9550614a7460408901614a20565b9450614a8260608901614a20565b9350614a9060808901614a20565b925060a088015160ff81168114614aa657600080fd5b9150614ab460c089016148ab565b905092959891949750929550565b600081614ad157614ad1614770565b506000190190565b60006001600160a01b0383811690831681811015614af957614af9614770565b039392505050565b634e487b7160e01b600052601260045260246000fd5b600082614b2657614b26614b01565b500490565b6000600160ff1b8201614b4057614b40614770565b5060000390565b60008160020b627fffff198103614b6057614b60614770565b60000392915050565b6000816000190483118215151615614b8357614b83614770565b500290565b600082614b9757614b97614b01565b500690565b60006001600160801b03808316818516808303821115614bbe57614bbe614770565b01949350505050565b60005b83811015614be2578181015183820152602001614bca565b83811115614bf1576000848401525b50505050565b7f416363657373436f6e74726f6c3a206163636f756e7420000000000000000000815260008351614c2f816017850160208801614bc7565b7001034b99036b4b9b9b4b733903937b6329607d1b6017918401918201528351614c60816028840160208801614bc7565b01602801949350505050565b6020815260008251806020840152614c8b816040850160208701614bc7565b601f01601f19169190910160400192915050565b634e487b7160e01b600052603160045260246000fd5b600080600080600080600080610100898b031215614cd257600080fd5b614cdb8961490b565b9750602089015180600f0b8114614cf157600080fd5b80975050604089015195506060890151945060808901518060060b8114614d1757600080fd5b60a08a0151909450614d28816145f2565b60c08a015190935063ffffffff81168114614d4257600080fd5b9150614d5060e08a016148ab565b9050929598509295989093965056fea2646970667358221220a0d77a8bf54abc5bfac2e65996d50261bec7e69acee667330ea5a197b8878c8a64736f6c634300080d0033f23ec0bb4210edd5cba85afd05127efcd2fc6a781bfed49188da1081670b22d846a52cf33029de9f84853745a87af28464c80bf0346df1b32e205fc73319f622",
    "linkReferences": {}
  },
  "methodIdentifiers": {
    "ADMIN_DELEGATE_ROLE()": "0952ff54",
    "ADMIN_ROLE()": "75b238fc",
    "DEFAULT_ADMIN_ROLE()": "a217fddf",
    "DENOMINATOR()": "918f8674",
    "OPERATOR()": "983d2737",
    "Q128()": "b4b15f71",
    "Q96()": "40792465",
    "YEAR()": "83914540",
    "addDepositorsToAllowlist(address[])": "91b7ab47",
    "burnDebt(uint256,uint256)": "a8406ea3",
    "calculateHealthFactor(uint256)": "23a4deb5",
    "closeVault(uint256)": "360c3288",
    "debt(uint256)": "1e0029c8",
    "debtFee(uint256)": "2a7c49e3",
    "depositCollateral(uint256,uint256)": "ece13732",
    "depositorsAllowlist()": "a09eb0e7",
    "factory()": "c45a0155",
    "getOverallDebt(uint256)": "2d922369",
    "getRoleAdmin(bytes32)": "248a9ca3",
    "getRoleMember(bytes32,uint256)": "9010d07c",
    "getRoleMemberCount(bytes32)": "ca15c873",
    "grantRole(bytes32,address)": "2f2ff15d",
    "hasRole(bytes32,address)": "91d14854",
    "isAdmin(address)": "24d7806c",
    "isOperator(address)": "6d70f7ae",
    "isPaused()": "b187bd26",
    "isPrivate()": "faff660e",
    "liquidate(uint256)": "415f1240",
    "makePrivate()": "7c84b40c",
    "makePublic()": "fc018c05",
    "maxCollateralSupply(address)": "e69f3ebf",
    "mintDebt(uint256,uint256)": "9b52d8c8",
    "openVault()": "86f54712",
    "oracle()": "7dc0d1d0",
    "ownedVaultsByAddress(address)": "2b0eeec3",
    "pause()": "8456cb59",
    "positionManager()": "791b98bc",
    "protocolGovernance()": "5227ce4c",
    "removeDepositorsFromAllowlist(address[])": "e273d23e",
    "renounceRole(bytes32,address)": "36568abe",
    "revokeRole(bytes32,address)": "d547741f",
    "setOracle(address)": "7adbf973",
    "setToken(address)": "144fa6d7",
    "stabilisationFee()": "6ac90fd4",
    "stabilisationFeeUpdate(uint256)": "965e7f27",
    "stabilisationFeeUpdateTimestamp(uint256)": "41b0cbf9",
    "supportsInterface(bytes4)": "01ffc9a7",
    "token()": "fc0c546a",
    "treasury()": "61d027b3",
    "unpause()": "3f4ba83a",
    "updateStabilisationFee(uint256)": "13a81c7c",
    "vaultCount()": "a7c6a100",
    "vaultNftsById(uint256)": "5d2bb997",
    "vaultOwner(uint256)": "3c2ecfe5",
    "withdrawCollateral(uint256)": "6112fe2e"
  },
  "id": 21
}