{
  "abi": [
    {
      "inputs": [
        {
          "internalType": "address",
          "name": "admin",
          "type": "address"
        },
        {
          "internalType": "contract INonfungiblePositionManager",
          "name": "positionManager_",
          "type": "address"
        },
        {
          "internalType": "contract IUniswapV3Factory",
          "name": "factory_",
          "type": "address"
        },
        {
          "internalType": "contract IProtocolGovernance",
          "name": "protocolGovernance_",
          "type": "address"
        },
        {
          "internalType": "contract IOracle",
          "name": "oracle_",
          "type": "address"
        },
        {
          "internalType": "address",
          "name": "treasury_",
          "type": "address"
        }
      ],
      "stateMutability": "nonpayable",
      "type": "constructor"
    },
    {
      "inputs": [],
      "name": "AddressZero",
      "type": "error"
    },
    {
      "inputs": [],
      "name": "AllowList",
      "type": "error"
    },
    {
      "inputs": [
        {
          "internalType": "address",
          "name": "token",
          "type": "address"
        }
      ],
      "name": "CollateralTokenOverflow",
      "type": "error"
    },
    {
      "inputs": [],
      "name": "CollateralUnderflow",
      "type": "error"
    },
    {
      "inputs": [],
      "name": "DebtOverflow",
      "type": "error"
    },
    {
      "inputs": [],
      "name": "Forbidden",
      "type": "error"
    },
    {
      "inputs": [],
      "name": "InvalidPool",
      "type": "error"
    },
    {
      "inputs": [],
      "name": "Paused",
      "type": "error"
    },
    {
      "inputs": [],
      "name": "PositionHealthy",
      "type": "error"
    },
    {
      "inputs": [],
      "name": "PositionUnhealthy",
      "type": "error"
    },
    {
      "inputs": [],
      "name": "TokenSet",
      "type": "error"
    },
    {
      "inputs": [],
      "name": "UnpaidDebt",
      "type": "error"
    },
    {
      "anonymous": false,
      "inputs": [
        {
          "indexed": true,
          "internalType": "bytes32",
          "name": "role",
          "type": "bytes32"
        },
        {
          "indexed": true,
          "internalType": "bytes32",
          "name": "previousAdminRole",
          "type": "bytes32"
        },
        {
          "indexed": true,
          "internalType": "bytes32",
          "name": "newAdminRole",
          "type": "bytes32"
        }
      ],
      "name": "RoleAdminChanged",
      "type": "event"
    },
    {
      "anonymous": false,
      "inputs": [
        {
          "indexed": true,
          "internalType": "bytes32",
          "name": "role",
          "type": "bytes32"
        },
        {
          "indexed": true,
          "internalType": "address",
          "name": "account",
          "type": "address"
        },
        {
          "indexed": true,
          "internalType": "address",
          "name": "sender",
          "type": "address"
        }
      ],
      "name": "RoleGranted",
      "type": "event"
    },
    {
      "anonymous": false,
      "inputs": [
        {
          "indexed": true,
          "internalType": "bytes32",
          "name": "role",
          "type": "bytes32"
        },
        {
          "indexed": true,
          "internalType": "address",
          "name": "account",
          "type": "address"
        },
        {
          "indexed": true,
          "internalType": "address",
          "name": "sender",
          "type": "address"
        }
      ],
      "name": "RoleRevoked",
      "type": "event"
    },
    {
      "inputs": [],
      "name": "ADMIN_DELEGATE_ROLE",
      "outputs": [
        {
          "internalType": "bytes32",
          "name": "",
          "type": "bytes32"
        }
      ],
      "stateMutability": "view",
      "type": "function"
    },
    {
      "inputs": [],
      "name": "ADMIN_ROLE",
      "outputs": [
        {
          "internalType": "bytes32",
          "name": "",
          "type": "bytes32"
        }
      ],
      "stateMutability": "view",
      "type": "function"
    },
    {
      "inputs": [],
      "name": "DEFAULT_ADMIN_ROLE",
      "outputs": [
        {
          "internalType": "bytes32",
          "name": "",
          "type": "bytes32"
        }
      ],
      "stateMutability": "view",
      "type": "function"
    },
    {
      "inputs": [],
      "name": "DENOMINATOR",
      "outputs": [
        {
          "internalType": "uint256",
          "name": "",
          "type": "uint256"
        }
      ],
      "stateMutability": "view",
      "type": "function"
    },
    {
      "inputs": [],
      "name": "OPERATOR",
      "outputs": [
        {
          "internalType": "bytes32",
          "name": "",
          "type": "bytes32"
        }
      ],
      "stateMutability": "view",
      "type": "function"
    },
    {
      "inputs": [],
      "name": "Q128",
      "outputs": [
        {
          "internalType": "uint256",
          "name": "",
          "type": "uint256"
        }
      ],
      "stateMutability": "view",
      "type": "function"
    },
    {
      "inputs": [],
      "name": "Q96",
      "outputs": [
        {
          "internalType": "uint256",
          "name": "",
          "type": "uint256"
        }
      ],
      "stateMutability": "view",
      "type": "function"
    },
    {
      "inputs": [],
      "name": "YEAR",
      "outputs": [
        {
          "internalType": "uint256",
          "name": "",
          "type": "uint256"
        }
      ],
      "stateMutability": "view",
      "type": "function"
    },
    {
      "inputs": [
        {
          "internalType": "address[]",
          "name": "depositors",
          "type": "address[]"
        }
      ],
      "name": "addDepositorsToAllowlist",
      "outputs": [],
      "stateMutability": "nonpayable",
      "type": "function"
    },
    {
      "inputs": [
        {
          "internalType": "uint256",
          "name": "vaultId",
          "type": "uint256"
        },
        {
          "internalType": "uint256",
          "name": "amount",
          "type": "uint256"
        }
      ],
      "name": "burnDebt",
      "outputs": [],
      "stateMutability": "nonpayable",
      "type": "function"
    },
    {
      "inputs": [
        {
          "internalType": "uint256",
          "name": "vaultId",
          "type": "uint256"
        }
      ],
      "name": "calculateHealthFactor",
      "outputs": [
        {
          "internalType": "uint256",
          "name": "",
          "type": "uint256"
        }
      ],
      "stateMutability": "view",
      "type": "function"
    },
    {
      "inputs": [
        {
          "internalType": "uint256",
          "name": "vaultId",
          "type": "uint256"
        }
      ],
      "name": "closeVault",
      "outputs": [],
      "stateMutability": "nonpayable",
      "type": "function"
    },
    {
      "inputs": [
        {
          "internalType": "uint256",
          "name": "",
          "type": "uint256"
        }
      ],
      "name": "debt",
      "outputs": [
        {
          "internalType": "uint256",
          "name": "",
          "type": "uint256"
        }
      ],
      "stateMutability": "view",
      "type": "function"
    },
    {
      "inputs": [
        {
          "internalType": "uint256",
          "name": "",
          "type": "uint256"
        }
      ],
      "name": "debtFee",
      "outputs": [
        {
          "internalType": "uint256",
          "name": "",
          "type": "uint256"
        }
      ],
      "stateMutability": "view",
      "type": "function"
    },
    {
      "inputs": [
        {
          "internalType": "uint256",
          "name": "vaultId",
          "type": "uint256"
        },
        {
          "internalType": "uint256",
          "name": "nft",
          "type": "uint256"
        }
      ],
      "name": "depositCollateral",
      "outputs": [],
      "stateMutability": "nonpayable",
      "type": "function"
    },
    {
      "inputs": [],
      "name": "depositorsAllowlist",
      "outputs": [
        {
          "internalType": "address[]",
          "name": "",
          "type": "address[]"
        }
      ],
      "stateMutability": "view",
      "type": "function"
    },
    {
      "inputs": [],
      "name": "factory",
      "outputs": [
        {
          "internalType": "contract IUniswapV3Factory",
          "name": "",
          "type": "address"
        }
      ],
      "stateMutability": "view",
      "type": "function"
    },
    {
      "inputs": [
        {
          "internalType": "uint256",
          "name": "vaultId",
          "type": "uint256"
        }
      ],
      "name": "getOverallDebt",
      "outputs": [
        {
          "internalType": "uint256",
          "name": "",
          "type": "uint256"
        }
      ],
      "stateMutability": "view",
      "type": "function"
    },
    {
      "inputs": [
        {
          "internalType": "bytes32",
          "name": "role",
          "type": "bytes32"
        }
      ],
      "name": "getRoleAdmin",
      "outputs": [
        {
          "internalType": "bytes32",
          "name": "",
          "type": "bytes32"
        }
      ],
      "stateMutability": "view",
      "type": "function"
    },
    {
      "inputs": [
        {
          "internalType": "bytes32",
          "name": "role",
          "type": "bytes32"
        },
        {
          "internalType": "uint256",
          "name": "index",
          "type": "uint256"
        }
      ],
      "name": "getRoleMember",
      "outputs": [
        {
          "internalType": "address",
          "name": "",
          "type": "address"
        }
      ],
      "stateMutability": "view",
      "type": "function"
    },
    {
      "inputs": [
        {
          "internalType": "bytes32",
          "name": "role",
          "type": "bytes32"
        }
      ],
      "name": "getRoleMemberCount",
      "outputs": [
        {
          "internalType": "uint256",
          "name": "",
          "type": "uint256"
        }
      ],
      "stateMutability": "view",
      "type": "function"
    },
    {
      "inputs": [
        {
          "internalType": "bytes32",
          "name": "role",
          "type": "bytes32"
        },
        {
          "internalType": "address",
          "name": "account",
          "type": "address"
        }
      ],
      "name": "grantRole",
      "outputs": [],
      "stateMutability": "nonpayable",
      "type": "function"
    },
    {
      "inputs": [
        {
          "internalType": "bytes32",
          "name": "role",
          "type": "bytes32"
        },
        {
          "internalType": "address",
          "name": "account",
          "type": "address"
        }
      ],
      "name": "hasRole",
      "outputs": [
        {
          "internalType": "bool",
          "name": "",
          "type": "bool"
        }
      ],
      "stateMutability": "view",
      "type": "function"
    },
    {
      "inputs": [
        {
          "internalType": "address",
          "name": "sender",
          "type": "address"
        }
      ],
      "name": "isAdmin",
      "outputs": [
        {
          "internalType": "bool",
          "name": "",
          "type": "bool"
        }
      ],
      "stateMutability": "view",
      "type": "function"
    },
    {
      "inputs": [
        {
          "internalType": "address",
          "name": "sender",
          "type": "address"
        }
      ],
      "name": "isOperator",
      "outputs": [
        {
          "internalType": "bool",
          "name": "",
          "type": "bool"
        }
      ],
      "stateMutability": "view",
      "type": "function"
    },
    {
      "inputs": [],
      "name": "isPaused",
      "outputs": [
        {
          "internalType": "bool",
          "name": "",
          "type": "bool"
        }
      ],
      "stateMutability": "view",
      "type": "function"
    },
    {
      "inputs": [],
      "name": "isPrivate",
      "outputs": [
        {
          "internalType": "bool",
          "name": "",
          "type": "bool"
        }
      ],
      "stateMutability": "view",
      "type": "function"
    },
    {
      "inputs": [
        {
          "internalType": "uint256",
          "name": "vaultId",
          "type": "uint256"
        }
      ],
      "name": "liquidate",
      "outputs": [],
      "stateMutability": "nonpayable",
      "type": "function"
    },
    {
      "inputs": [],
      "name": "makePrivate",
      "outputs": [],
      "stateMutability": "nonpayable",
      "type": "function"
    },
    {
      "inputs": [],
      "name": "makePublic",
      "outputs": [],
      "stateMutability": "nonpayable",
      "type": "function"
    },
    {
      "inputs": [
        {
          "internalType": "address",
          "name": "",
          "type": "address"
        }
      ],
      "name": "maxCollateralSupply",
      "outputs": [
        {
          "internalType": "uint256",
          "name": "",
          "type": "uint256"
        }
      ],
      "stateMutability": "view",
      "type": "function"
    },
    {
      "inputs": [
        {
          "internalType": "uint256",
          "name": "vaultId",
          "type": "uint256"
        },
        {
          "internalType": "uint256",
          "name": "amount",
          "type": "uint256"
        }
      ],
      "name": "mintDebt",
      "outputs": [],
      "stateMutability": "nonpayable",
      "type": "function"
    },
    {
      "inputs": [],
      "name": "openVault",
      "outputs": [
        {
          "internalType": "uint256",
          "name": "vaultId",
          "type": "uint256"
        }
      ],
      "stateMutability": "nonpayable",
      "type": "function"
    },
    {
      "inputs": [],
      "name": "oracle",
      "outputs": [
        {
          "internalType": "contract IOracle",
          "name": "",
          "type": "address"
        }
      ],
      "stateMutability": "view",
      "type": "function"
    },
    {
      "inputs": [
        {
          "internalType": "address",
          "name": "target",
          "type": "address"
        }
      ],
      "name": "ownedVaultsByAddress",
      "outputs": [
        {
          "internalType": "uint256[]",
          "name": "",
          "type": "uint256[]"
        }
      ],
      "stateMutability": "view",
      "type": "function"
    },
    {
      "inputs": [],
      "name": "pause",
      "outputs": [],
      "stateMutability": "nonpayable",
      "type": "function"
    },
    {
      "inputs": [],
      "name": "positionManager",
      "outputs": [
        {
          "internalType": "contract INonfungiblePositionManager",
          "name": "",
          "type": "address"
        }
      ],
      "stateMutability": "view",
      "type": "function"
    },
    {
      "inputs": [],
      "name": "protocolGovernance",
      "outputs": [
        {
          "internalType": "contract IProtocolGovernance",
          "name": "",
          "type": "address"
        }
      ],
      "stateMutability": "view",
      "type": "function"
    },
    {
      "inputs": [
        {
          "internalType": "address[]",
          "name": "depositors",
          "type": "address[]"
        }
      ],
      "name": "removeDepositorsFromAllowlist",
      "outputs": [],
      "stateMutability": "nonpayable",
      "type": "function"
    },
    {
      "inputs": [
        {
          "internalType": "bytes32",
          "name": "role",
          "type": "bytes32"
        },
        {
          "internalType": "address",
          "name": "account",
          "type": "address"
        }
      ],
      "name": "renounceRole",
      "outputs": [],
      "stateMutability": "nonpayable",
      "type": "function"
    },
    {
      "inputs": [
        {
          "internalType": "bytes32",
          "name": "role",
          "type": "bytes32"
        },
        {
          "internalType": "address",
          "name": "account",
          "type": "address"
        }
      ],
      "name": "revokeRole",
      "outputs": [],
      "stateMutability": "nonpayable",
      "type": "function"
    },
    {
      "inputs": [
        {
          "internalType": "contract IOracle",
          "name": "oracle_",
          "type": "address"
        }
      ],
      "name": "setOracle",
      "outputs": [],
      "stateMutability": "nonpayable",
      "type": "function"
    },
    {
      "inputs": [
        {
          "internalType": "contract IMUSD",
          "name": "token_",
          "type": "address"
        }
      ],
      "name": "setToken",
      "outputs": [],
      "stateMutability": "nonpayable",
      "type": "function"
    },
    {
      "inputs": [
        {
          "internalType": "bytes4",
          "name": "interfaceId",
          "type": "bytes4"
        }
      ],
      "name": "supportsInterface",
      "outputs": [
        {
          "internalType": "bool",
          "name": "",
          "type": "bool"
        }
      ],
      "stateMutability": "view",
      "type": "function"
    },
    {
      "inputs": [],
      "name": "token",
      "outputs": [
        {
          "internalType": "contract IMUSD",
          "name": "",
          "type": "address"
        }
      ],
      "stateMutability": "view",
      "type": "function"
    },
    {
      "inputs": [],
      "name": "treasury",
      "outputs": [
        {
          "internalType": "address",
          "name": "",
          "type": "address"
        }
      ],
      "stateMutability": "view",
      "type": "function"
    },
    {
      "inputs": [],
      "name": "unpause",
      "outputs": [],
      "stateMutability": "nonpayable",
      "type": "function"
    },
    {
      "inputs": [],
      "name": "vaultCount",
      "outputs": [
        {
          "internalType": "uint256",
          "name": "",
          "type": "uint256"
        }
      ],
      "stateMutability": "view",
      "type": "function"
    },
    {
      "inputs": [
        {
          "internalType": "uint256",
          "name": "vaultId",
          "type": "uint256"
        }
      ],
      "name": "vaultNftsById",
      "outputs": [
        {
          "internalType": "uint256[]",
          "name": "",
          "type": "uint256[]"
        }
      ],
      "stateMutability": "view",
      "type": "function"
    },
    {
      "inputs": [
        {
          "internalType": "uint256",
          "name": "",
          "type": "uint256"
        }
      ],
      "name": "vaultOwner",
      "outputs": [
        {
          "internalType": "address",
          "name": "",
          "type": "address"
        }
      ],
      "stateMutability": "view",
      "type": "function"
    },
    {
      "inputs": [
        {
          "internalType": "uint256",
          "name": "nft",
          "type": "uint256"
        }
      ],
      "name": "withdrawCollateral",
      "outputs": [],
      "stateMutability": "nonpayable",
      "type": "function"
    }
  ],
  "bytecode": {
    "object": "0x6101006040526003805461ffff60a01b1916600160a81b1790556000600e553480156200002b57600080fd5b50604051620048c7380380620048c78339810160408190526200004e91620003ba565b856001600160a01b0381166200007757604051639fabe1c160e01b815260040160405180910390fd5b62000092600080516020620048a783398151915282620001f1565b620000ad6000805160206200488783398151915282620001f1565b620000c8600080516020620048878339815191528062000201565b620001037fc171260023d22a25a00a2789664c9334017843b831138c8ef03cc8897e5873d76000805160206200488783398151915262000201565b6200013e600080516020620048a78339815191527fc171260023d22a25a00a2789664c9334017843b831138c8ef03cc8897e5873d762000201565b506001600160a01b03851615806200015d57506001600160a01b038416155b806200017057506001600160a01b038316155b806200018357506001600160a01b038216155b806200019657506001600160a01b038116155b15620001b557604051639fabe1c160e01b815260040160405180910390fd5b6001600160a01b0394851660805292841660a05290831660c052600280546001600160a01b0319169184169190911790551660e052506200044e565b620001fd82826200024c565b5050565b600082815260208190526040808220600101805490849055905190918391839186917fbd79b86ffe0ab8e8776151514217cd7cacd52c909f66475c3af44e129f0b00ff9190a4505050565b6200026382826200028f60201b620024d31760201c565b60008281526001602090815260409091206200028a918390620025576200032f821b17901c565b505050565b6000828152602081815260408083206001600160a01b038516845290915290205460ff16620001fd576000828152602081815260408083206001600160a01b03851684529091529020805460ff19166001179055620002eb3390565b6001600160a01b0316816001600160a01b0316837f2f8788117e7eff1d82e926ec794901d17c78024a50270940304540a733656f0d60405160405180910390a45050565b600062000346836001600160a01b0384166200034f565b90505b92915050565b6000818152600183016020526040812054620003985750815460018181018455600084815260208082209093018490558454848252828601909352604090209190915562000349565b50600062000349565b6001600160a01b0381168114620003b757600080fd5b50565b60008060008060008060c08789031215620003d457600080fd5b8651620003e181620003a1565b6020880151909650620003f481620003a1565b60408801519095506200040781620003a1565b60608801519094506200041a81620003a1565b60808801519093506200042d81620003a1565b60a08801519092506200044081620003a1565b809150509295509295509295565b60805160a05160c05160e051614388620004ff6000396000818161051601528181610e4c015261179a0152600081816104c90152818161089101528181610c6d01528181610d8a0152818161111d01528181611ba7015281816121d7015281816122d7015281816123e10152612a2c0152600081816106bd0152611ad20152600081816105770152818161121601528181611a2a01528181611c3201528181611ce90152612e2001526143886000f3fe608060405234801561001057600080fd5b50600436106102f15760003560e01c80637c84b40c1161019d578063a7c6a100116100e9578063d547741f116100a2578063ece137321161007c578063ece1373214610738578063faff660e1461074b578063fc018c051461075f578063fc0c546a1461076757600080fd5b8063d547741f146106f2578063e273d23e14610705578063e69f3ebf1461071857600080fd5b8063a7c6a1001461067d578063a8406ea314610686578063b187bd2614610699578063b4b15f71146106ad578063c45a0155146106b8578063ca15c873146106df57600080fd5b8063918f867411610156578063983d273711610130578063983d2737146106265780639b52d8c81461064d578063a09eb0e714610660578063a217fddf1461067557600080fd5b8063918f8674146105f557806391b7ab471461060057806391d148541461061357600080fd5b80637c84b40c146105ac5780637dc0d1d0146105b457806383914540146105c75780638456cb59146105d257806386f54712146105da5780639010d07c146105e257600080fd5b806336568abe1161025c5780635d2bb997116102155780636d70f7ae116101ef5780636d70f7ae1461053857806375b238fc1461054b578063791b98bc146105725780637adbf9731461059957600080fd5b80635d2bb997146104eb5780636112fe2e146104fe57806361d027b31461051157600080fd5b806336568abe1461044a5780633c2ecfe51461045d5780633f4ba83a1461049e57806340792465146104a6578063415f1240146104b15780635227ce4c146104c457600080fd5b806324d7806c116102ae57806324d7806c146103be5780632a7c49e3146103d15780632b0eeec3146103f15780632d922369146104115780632f2ff15d14610424578063360c32881461043757600080fd5b806301ffc9a7146102f65780630952ff541461031e578063144fa6d7146103535780631e0029c81461036857806323a4deb514610388578063248a9ca31461039b575b600080fd5b610309610304366004613beb565b61077a565b60405190151581526020015b60405180910390f35b6103457fc171260023d22a25a00a2789664c9334017843b831138c8ef03cc8897e5873d781565b604051908152602001610315565b610366610361366004613c2a565b6107a5565b005b610345610376366004613c47565b60096020526000908152604090205481565b610345610396366004613c47565b610820565b6103456103a9366004613c47565b60009081526020819052604090206001015490565b6103096103cc366004613c2a565b6109fe565b6103456103df366004613c47565b600a6020526000908152604090205481565b6104046103ff366004613c2a565b610a5a565b6040516103159190613c60565b61034561041f366004613c47565b610a7e565b610366610432366004613ca4565b610ab8565b610366610445366004613c47565b610ae2565b610366610458366004613ca4565b610b49565b61048661046b366004613c47565b6008602052600090815260409020546001600160a01b031681565b6040516001600160a01b039091168152602001610315565b610366610bcc565b610345600160601b81565b6103666104bf366004613c47565b610be3565b6104867f000000000000000000000000000000000000000000000000000000000000000081565b6104046104f9366004613c47565b610fed565b61036661050c366004613c47565b611007565b6104867f000000000000000000000000000000000000000000000000000000000000000081565b610309610546366004613c2a565b6113c5565b6103457ff23ec0bb4210edd5cba85afd05127efcd2fc6a781bfed49188da1081670b22d881565b6104867f000000000000000000000000000000000000000000000000000000000000000081565b6103666105a7366004613c2a565b6113f1565b610366611442565b600254610486906001600160a01b031681565b6103456301e1338081565b61036661145f565b61034561147c565b6104866105f0366004613cd4565b611525565b610345633b9aca0081565b61036661060e366004613cf6565b611544565b610309610621366004613ca4565b61159c565b6103457f46a52cf33029de9f84853745a87af28464c80bf0346df1b32e205fc73319f62281565b61036661065b366004613cd4565b6115c5565b6106686116cc565b6040516103159190613d6b565b610345600081565b610345600e5481565b610366610694366004613cd4565b6116dd565b60035461030990600160a01b900460ff1681565b610345600160801b81565b6104867f000000000000000000000000000000000000000000000000000000000000000081565b6103456106ed366004613c47565b61192c565b610366610700366004613ca4565b611943565b610366610713366004613cf6565b611968565b610345610726366004613c2a565b600c6020526000908152604090205481565b610366610746366004613cd4565b6119c0565b60035461030990600160a81b900460ff1681565b6103666124bc565b600354610486906001600160a01b031681565b60006001600160e01b03198216635a05180f60e01b148061079f575061079f8261256c565b92915050565b6107ad6125a1565b6001600160a01b0381166107d457604051639fabe1c160e01b815260040160405180910390fd5b6003546001600160a01b0316156107fe576040516311f9360560e31b815260040160405180910390fd5b600380546001600160a01b0319166001600160a01b0392909216919091179055565b600080805b600084815260076020526040902061083c906125c9565b8110156109f757600084815260076020526040812061085b90836125d3565b6000818152600d602052604080822060090154905163b1732b2560e01b81526001600160a01b03918216600482015292935090917f00000000000000000000000000000000000000000000000000000000000000009091169063b1732b2590602401602060405180830381865afa1580156108da573d6000803e3d6000fd5b505050506040513d601f19601f820116820180604052508101906108fe9190613dac565b6000838152600d602090815260409182902082516101a08101845281546001600160a01b039081168252600183015480821694830194909452600160a01b90930462ffffff16938101939093526002810154606084015260038101546001600160801b039081166080850152600482015460a0850152600582015460c0850152600682015480821660e0860152600160801b90041661010084015260078101548216610120840152600881015482166101408401526009810154909116610160830152600a01546101808201529091506109d890826125df565b6109e29085613ddb565b93505050806109f090613df3565b9050610825565b5092915050565b6000610a2a7ff23ec0bb4210edd5cba85afd05127efcd2fc6a781bfed49188da1081670b22d88361159c565b8061079f575061079f7fc171260023d22a25a00a2789664c9334017843b831138c8ef03cc8897e5873d78361159c565b6001600160a01b038116600090815260066020526040902060609061079f906129e0565b6000610a89826129ed565b6000838152600a6020908152604080832054600990925290912054610aae9190613ddb565b61079f9190613ddb565b600082815260208190526040902060010154610ad381612ae2565b610add8383612aec565b505050565b610aeb81612b0e565b610af481612b45565b600081815260096020526040902054151580610b1d57506000818152600a602052604090205415155b15610b3b576040516304aec73b60e01b815260040160405180910390fd5b610b46813333612baf565b50565b6001600160a01b0381163314610bbe5760405162461bcd60e51b815260206004820152602f60248201527f416363657373436f6e74726f6c3a2063616e206f6e6c792072656e6f756e636560448201526e103937b632b9903337b91039b2b63360891b60648201526084015b60405180910390fd5b610bc88282612f54565b5050565b610bd46125a1565b6003805460ff60a01b19169055565b610bec81612b45565b6000610bf782610820565b6000838152600a602090815260408083205460099092528220549293509091610c209190613ddb565b9050808210610c4257604051630879983f60e21b815260040160405180910390fd5b6000838152600860205260408120546001600160a01b031690610c6485612f76565b90506000610d0a7f00000000000000000000000000000000000000000000000000000000000000006001600160a01b03166393aab9d56040518163ffffffff1660e01b815260040160a060405180830381865afa158015610cc9573d6000803e3d6000fd5b505050506040513d601f19601f82011682018060405250810190610ced9190613e22565b60400151610cff90633b9aca00613ea0565b83633b9aca006130ad565b6003546040516323b872dd60e01b81529192506001600160a01b0316906323b872dd90610d3f90339030908690600401613eb7565b6020604051808303816000875af1158015610d5e573d6000803e3d6000fd5b505050506040513d601f19601f82011682018060405250810190610d829190613ef0565b506000610e197f00000000000000000000000000000000000000000000000000000000000000006001600160a01b03166393aab9d56040518163ffffffff1660e01b815260040160a060405180830381865afa158015610de6573d6000803e3d6000fd5b505050506040513d601f19601f82011682018060405250810190610e0a9190613e22565b6020015184633b9aca006130ad565b6000888152600a6020526040902054610e329190613ddb565b60035460405163a9059cbb60e01b81526001600160a01b037f0000000000000000000000000000000000000000000000000000000000000000811660048301526024820184905292935091169063a9059cbb906044016020604051808303816000875af1158015610ea7573d6000803e3d6000fd5b505050506040513d601f19601f82011682018060405250810190610ecb9190613ef0565b506003546001600160a01b031663a9059cbb8587610ee98587613ea0565b610ef39190613ea0565b6040516001600160e01b031960e085901b1681526001600160a01b03909216600483015260248201526044016020604051808303816000875af1158015610f3e573d6000803e3d6000fd5b505050506040513d601f19601f82011682018060405250810190610f629190613ef0565b5060035460008881526009602052604090819020549051632770a7eb60e21b81526001600160a01b0387811660048301526024820192909252911690639dc29fac90604401600060405180830381600087803b158015610fc157600080fd5b505af1158015610fd5573d6000803e3d6000fd5b50505050610fe4878533612baf565b50505050505050565b600081815260076020526040902060609061079f906129e0565b61100f61315f565b6000818152600d602090815260409182902082516101a08101845281546001600160a01b039081168252600183015480821694830194909452600160a01b90930462ffffff16938101939093526002810154606084015260038101546001600160801b039081166080850152600482015460a0850152600582015460c0850152600682015480821660e0860152600160801b90041661010084015260078101548216610120840152600881015482166101408401526009810154909116610160830152600a015461018082018190526110e790612b0e565b6110f5816101800151612b45565b61016081015160405163b1732b2560e01b81526001600160a01b0391821660048201526000917f0000000000000000000000000000000000000000000000000000000000000000169063b1732b2590602401602060405180830381865afa158015611164573d6000803e3d6000fd5b505050506040513d601f19601f820116820180604052508101906111889190613dac565b9050600061119683836125df565b6111a4846101800151610820565b6111ae9190613ea0565b610180840180516000908152600a60209081526040808320549351835260099091529020549192506111df91613ddb565b8110156111ff57604051631d9d79c160e01b815260040160405180910390fd5b6040516323b872dd60e01b81526001600160a01b037f000000000000000000000000000000000000000000000000000000000000000016906323b872dd9061124f90309033908990600401613eb7565b600060405180830381600087803b15801561126957600080fd5b505af115801561127d573d6000803e3d6000fd5b50505050600061129c846101200151856101400151866080015161318a565b905060006112b98561012001518661014001518760800151613205565b85516001600160a01b03166000908152600c60205260408120805492935084929091906112e7908490613ea0565b90915550506020808601516001600160a01b03166000908152600c909152604081208054839290611319908490613ea0565b9091555050610180850151600090815260076020526040902061133c908761324f565b50505060009384525050600d602052506040812080546001600160a01b031990811682556001820180546001600160b81b0319169055600282018390556003820180546001600160801b031916905560048201839055600582018390556006820183905560078201805482169055600882018054821690556009820180549091169055600a0155565b600061079f7f46a52cf33029de9f84853745a87af28464c80bf0346df1b32e205fc73319f6228361159c565b6113f96125a1565b6001600160a01b03811661142057604051639fabe1c160e01b815260040160405180910390fd5b600280546001600160a01b0319166001600160a01b0392909216919091179055565b61144a6125a1565b6003805460ff60a81b1916600160a81b179055565b61146761325b565b6003805460ff60a01b1916600160a01b179055565b600354600090600160a81b900460ff1680156114a0575061149e600433613295565b155b156114be576040516351caf8cd60e01b815260040160405180910390fd5b600e600081546114cd90613df3565b90915550600e543360009081526006602052604090206114ec916132b7565b5050600e8054600090815260086020908152604080832080546001600160a01b0319163317905583548352600b90915290204290555490565b600082815260016020526040812061153d90836125d3565b9392505050565b61154c6125a1565b60005b81811015610add5761158983838381811061156c5761156c613f0b565b90506020020160208101906115819190613c2a565b600490612557565b508061159481613df3565b91505061154f565b6000918252602082815260408084206001600160a01b0393909316845291905290205460ff1690565b6115cd61315f565b6115d682612b0e565b6115df82612b45565b60006115ea83610820565b6000848152600a602090815260408083205460099092529091205491925083916116149190613ddb565b61161e9190613ddb565b81101561163e57604051631d9d79c160e01b815260040160405180910390fd5b6003546040516340c10f1960e01b8152336004820152602481018490526001600160a01b03909116906340c10f1990604401600060405180830381600087803b15801561168a57600080fd5b505af115801561169e573d6000803e3d6000fd5b505050600084815260096020526040812080548593509091906116c2908490613ddb565b9091555050505050565b60606116d860046129e0565b905090565b6116e561315f565b6116ee82612b0e565b6116f782612b45565b600082815260096020908152604080832054600a9092529091205461171c9190613ddb565b811061174c57600082815260096020908152604080832054600a909252909120546117479190613ddb565b61174e565b805b60008381526009602052604090205490915081111561189f576000828152600960205260408120546117809083613ea0565b6003546040516340c10f1960e01b81526001600160a01b037f000000000000000000000000000000000000000000000000000000000000000081166004830152602482018490529293509116906340c10f1990604401600060405180830381600087803b1580156117f057600080fd5b505af1158015611804573d6000803e3d6000fd5b5050506000848152600a602052604081208054849350909190611828908490613ea0565b9091555061183890508183613ea0565b600354604051632770a7eb60e21b8152336004820152602481018490529193506001600160a01b031690639dc29fac90604401600060405180830381600087803b15801561188557600080fd5b505af1158015611899573d6000803e3d6000fd5b50505050505b600354604051632770a7eb60e21b8152336004820152602481018390526001600160a01b0390911690639dc29fac90604401600060405180830381600087803b1580156118eb57600080fd5b505af11580156118ff573d6000803e3d6000fd5b50505060008381526009602052604081208054849350909190611923908490613ea0565b90915550505050565b600081815260016020526040812061079f906125c9565b60008281526020819052604090206001015461195e81612ae2565b610add8383612f54565b6119706125a1565b60005b81811015610add576119ad83838381811061199057611990613f0b565b90506020020160208101906119a59190613c2a565b6004906132c3565b50806119b881613df3565b915050611973565b6119c861315f565b600354600160a81b900460ff1680156119e957506119e7600433613295565b155b15611a07576040516351caf8cd60e01b815260040160405180910390fd5b611a1082612b0e565b611a1982612b45565b6000806000806000806000806000807f00000000000000000000000000000000000000000000000000000000000000006001600160a01b03166399fbab888c6040518263ffffffff1660e01b8152600401611a7691815260200190565b61018060405180830381865afa158015611a94573d6000803e3d6000fd5b505050506040513d601f19601f82011682018060405250810190611ab89190613f68565b9b509b509b509b509b509b509b509b509b509b50505060007f00000000000000000000000000000000000000000000000000000000000000006001600160a01b0316631698ee828c8c8c6040518463ffffffff1660e01b8152600401611b44939291906001600160a01b03938416815291909216602082015262ffffff91909116604082015260600190565b602060405180830381865afa158015611b61573d6000803e3d6000fd5b505050506040513d601f19601f82011682018060405250810190611b859190614049565b60405163159354c160e11b81526001600160a01b0380831660048301529192507f000000000000000000000000000000000000000000000000000000000000000090911690632b26a98290602401602060405180830381865afa158015611bf0573d6000803e3d6000fd5b505050506040513d601f19601f82011682018060405250810190611c149190613ef0565b611c305760405162820f3560e61b815260040160405180910390fd5b7f00000000000000000000000000000000000000000000000000000000000000006001600160a01b03166323b872dd33308f6040518463ffffffff1660e01b8152600401611c8093929190613eb7565b600060405180830381600087803b158015611c9a57600080fd5b505af1158015611cae573d6000803e3d6000fd5b50505050604051806101a001604052808c6001600160a01b031681526020018b6001600160a01b031681526020018a62ffffff1681526020017f00000000000000000000000000000000000000000000000000000000000000008a8a604051602001611d459392919060609390931b6bffffffffffffffffffffffff1916835260e891821b6014840152901b6017820152601a0190565b604051602081830303815290604052805190602001208152602001876001600160801b03168152602001868152602001858152602001846001600160801b03168152602001836001600160801b03168152602001611da28a6132d8565b6001600160a01b03168152602001611db9896132d8565b6001600160a01b03168152602001826001600160a01b031681526020018e815250600d60008e815260200190815260200160002060008201518160000160006101000a8154816001600160a01b0302191690836001600160a01b0316021790555060208201518160010160006101000a8154816001600160a01b0302191690836001600160a01b0316021790555060408201518160010160146101000a81548162ffffff021916908362ffffff1602179055506060820151816002015560808201518160030160006101000a8154816001600160801b0302191690836001600160801b0316021790555060a0820151816004015560c0820151816005015560e08201518160060160006101000a8154816001600160801b0302191690836001600160801b031602179055506101008201518160060160106101000a8154816001600160801b0302191690836001600160801b031602179055506101208201518160070160006101000a8154816001600160a01b0302191690836001600160a01b031602179055506101408201518160080160006101000a8154816001600160a01b0302191690836001600160a01b031602179055506101608201518160090160006101000a8154816001600160a01b0302191690836001600160a01b0316021790555061018082015181600a015590505050505050505050505050506000600d6000838152602001908152602001600020604051806101a00160405290816000820160009054906101000a90046001600160a01b03166001600160a01b03166001600160a01b031681526020016001820160009054906101000a90046001600160a01b03166001600160a01b03166001600160a01b031681526020016001820160149054906101000a900462ffffff1662ffffff1662ffffff168152602001600282015481526020016003820160009054906101000a90046001600160801b03166001600160801b03166001600160801b0316815260200160048201548152602001600582015481526020016006820160009054906101000a90046001600160801b03166001600160801b03166001600160801b031681526020016006820160109054906101000a90046001600160801b03166001600160801b03166001600160801b031681526020016007820160009054906101000a90046001600160a01b03166001600160a01b03166001600160a01b031681526020016008820160009054906101000a90046001600160a01b03166001600160a01b03166001600160a01b031681526020016009820160009054906101000a90046001600160a01b03166001600160a01b03166001600160a01b03168152602001600a82015481525050905060006121b6826101200151836101400151846080015161318a565b905060006121d38361012001518461014001518560800151613205565b90507f00000000000000000000000000000000000000000000000000000000000000006001600160a01b03166393aab9d56040518163ffffffff1660e01b815260040160a060405180830381865afa158015612233573d6000803e3d6000fd5b505050506040513d601f19601f820116820180604052508101906122579190613e22565b6080015161226984633b9aca006125df565b101561228857604051635a0e910960e11b815260040160405180910390fd5b82516001600160a01b03166000908152600c6020526040812080548492906122b1908490613ddb565b90915550508251604051635a860c8760e01b81526001600160a01b0391821660048201527f000000000000000000000000000000000000000000000000000000000000000090911690635a860c8790602401602060405180830381865afa158015612320573d6000803e3d6000fd5b505050506040513d601f19601f820116820180604052508101906123449190613dac565b83516001600160a01b03166000908152600c6020526040902054111561238b57825160405163e71ff83760e01b81526001600160a01b039091166004820152602401610bb5565b6020808401516001600160a01b03166000908152600c9091526040812080548392906123b8908490613ddb565b90915550506020830151604051635a860c8760e01b81526001600160a01b0391821660048201527f000000000000000000000000000000000000000000000000000000000000000090911690635a860c8790602401602060405180830381865afa15801561242a573d6000803e3d6000fd5b505050506040513d601f19601f8201168201806040525081019061244e9190613dac565b6020808501516001600160a01b03166000908152600c9091526040902054111561249c57602083015160405163e71ff83760e01b81526001600160a01b039091166004820152602401610bb5565b60008581526007602052604090206124b490856132b7565b505050505050565b6124c46125a1565b6003805460ff60a81b19169055565b6124dd828261159c565b610bc8576000828152602081815260408083206001600160a01b03851684529091529020805460ff191660011790556125133390565b6001600160a01b0316816001600160a01b0316837f2f8788117e7eff1d82e926ec794901d17c78024a50270940304540a733656f0d60405160405180910390a45050565b600061153d836001600160a01b0384166136f0565b60006001600160e01b03198216637965db0b60e01b148061079f57506301ffc9a760e01b6001600160e01b031983161461079f565b6125aa336109fe565b6125c757604051631dd2188d60e31b815260040160405180910390fd5b565b600061079f825490565b600061153d838361373f565b6040805160028082526060820183526000928392919060208301908036833701905050905060008461016001516001600160a01b0316633850c7bd6040518163ffffffff1660e01b815260040160e060405180830381865afa158015612649573d6000803e3d6000fd5b505050506040513d601f19601f8201168201806040525081019061266d9190614078565b505050505050905061268f818661012001518761014001518860800151613769565b836000815181106126a2576126a2613f0b565b60200260200101846001815181106126bc576126bc613f0b565b60200260200101828152508281525050506000808661016001516001600160a01b031663514ea4bf88606001516040518263ffffffff1660e01b815260040161270791815260200190565b60a060405180830381865afa158015612724573d6000803e3d6000fd5b505050506040513d601f19601f820116820180604052508101906127489190614108565b5050925092505061277a8760a00151836127629190613ea0565b88608001516001600160801b0316600160801b6130ad565b8760e00151612789919061415f565b6001600160801b0316846000815181106127a5576127a5613f0b565b602002602001018181516127b99190613ddb565b90525060c08701516127cf906127629083613ea0565b8761010001516127df919061415f565b6001600160801b0316846001815181106127fb576127fb613f0b565b6020026020010181815161280f9190613ddb565b9052506040805160028082526060820183526000926020830190803683370190505060025489516040516315d5220f60e31b81526001600160a01b039182166004820152929350169063aea9107890602401602060405180830381865afa15801561287e573d6000803e3d6000fd5b505050506040513d601f19601f820116820180604052508101906128a29190613dac565b816000815181106128b5576128b5613f0b565b602090810291909101810191909152600254908901516040516315d5220f60e31b81526001600160a01b03918216600482015291169063aea9107890602401602060405180830381865afa158015612911573d6000803e3d6000fd5b505050506040513d601f19601f820116820180604052508101906129359190613dac565b8160018151811061294857612948613f0b565b6020026020010181815250506000805b60028110156129d35760006129a488838151811061297857612978613f0b565b602002602001015185848151811061299257612992613f0b565b6020026020010151600160601b6130ad565b90506129b5818b633b9aca006130ad565b6129bf9084613ddb565b925050806129cc90613df3565b9050612958565b5098975050505050505050565b6060600061153d83613805565b6000818152600b60205260408120548190612a089042613ea0565b90508015612adc5760008381526009602052604090205415612adc576000612ab7827f00000000000000000000000000000000000000000000000000000000000000006001600160a01b03166393aab9d56040518163ffffffff1660e01b815260040160a060405180830381865afa158015612a88573d6000803e3d6000fd5b505050506040513d601f19601f82011682018060405250810190612aac9190613e22565b516301e133806130ad565b600085815260096020526040902054909150612ad89082633b9aca006130ad565b9250505b50919050565b610b468133613861565b612af682826124d3565b6000828152600160205260409020610add9082612557565b6000818152600860205260409020546001600160a01b03163314610b4657604051631dd2188d60e31b815260040160405180910390fd5b6000818152600b6020526040812054612b5e9042613ea0565b1115610b46576000612b6f826129ed565b90508015612b9b576000828152600a602052604081208054839290612b95908490613ddb565b90915550505b506000908152600b60205260409020429055565b6000838152600760205260408120612bc6906129e0565b905060005b6000858152600760205260409020612be2906125c9565b811015612ed1576000600d6000848481518110612c0157612c01613f0b565b6020908102919091018101518252818101929092526040908101600090812082516101a08101845281546001600160a01b039081168252600183015480821696830196909652600160a01b90950462ffffff16938101939093526002810154606084015260038101546001600160801b0390811660808501819052600483015460a0860152600583015460c0860152600683015480831660e0870152600160801b90049091166101008501526007820154851661012085018190526008830154861661014086018190526009840154909616610160860152600a909201546101808501529294509092612cf39261318a565b90506000612d108361012001518461014001518560800151613205565b83516001600160a01b03166000908152600c6020526040812080549293508492909190612d3e908490613ea0565b90915550506020808401516001600160a01b03166000908152600c909152604081208054839290612d70908490613ea0565b92505081905550600d6000868681518110612d8d57612d8d613f0b565b6020908102919091018101518252810191909152604001600090812080546001600160a01b031990811682556001820180546001600160b81b0319169055600282018390556003820180546001600160801b031916905560048201839055600582018390556006820183905560078201805482169055600882018054821690556009820180549091169055600a015584517f00000000000000000000000000000000000000000000000000000000000000006001600160a01b0316906323b872dd9030908990899089908110612e6557612e65613f0b565b60200260200101516040518463ffffffff1660e01b8152600401612e8b93929190613eb7565b600060405180830381600087803b158015612ea557600080fd5b505af1158015612eb9573d6000803e3d6000fd5b5050505050505080612eca90613df3565b9050612bcb565b506001600160a01b0383166000908152600660205260409020612ef4908561324f565b506000848152600960209081526040808320839055600a82528083208390556008825280832080546001600160a01b031916905560079091528120908181612f3c8282613bb9565b50505060009485525050600b60205250506040812055565b612f5e82826138c5565b6000828152600160205260409020610add90826132c3565b600080805b6000848152600760205260409020612f92906125c9565b8110156109f7576000848152600760205260408120612fb190836125d3565b6000818152600d602090815260409182902082516101a08101845281546001600160a01b039081168252600183015480821694830194909452600160a01b90930462ffffff16938101939093526002810154606084015260038101546001600160801b039081166080850152600482015460a0850152600582015460c0850152600682015480821660e0860152600160801b90041661010084015260078101548216610120840152600881015482166101408401526009810154909116610160830152600a015461018082015290915061308f90633b9aca006125df565b6130999084613ddb565b925050806130a690613df3565b9050612f7b565b60008080600019858709858702925082811083820303915050806000036130e657600084116130db57600080fd5b50829004905061153d565b8084116130f257600080fd5b6000848688096000868103871696879004966002600389028118808a02820302808a02820302808a02820302808a02820302808a02820302808a02909103029181900381900460010186841190950394909402919094039290920491909117919091029150509392505050565b600354600160a01b900460ff16156125c7576040516313d0ff5960e31b815260040160405180910390fd5b6000826001600160a01b0316846001600160a01b031611156131aa579192915b6001600160a01b0384166131f36fffffffffffffffffffffffffffffffff60601b606085901b166131db878761418a565b6001600160a01b0316866001600160a01b03166130ad565b6131fd91906141c8565b949350505050565b6000826001600160a01b0316846001600160a01b03161115613225579192915b6131fd6001600160801b03831661323c868661418a565b6001600160a01b0316600160601b6130ad565b600061153d838361392a565b613264336109fe565b1580156132775750613275336113c5565b155b156125c757604051631dd2188d60e31b815260040160405180910390fd5b6001600160a01b0381166000908152600183016020526040812054151561153d565b600061153d83836136f0565b600061153d836001600160a01b03841661392a565b60008060008360020b126132ef578260020b6132fc565b8260020b6132fc906141dc565b905061330b620d89e7196141f8565b60020b8111156133415760405162461bcd60e51b81526020600482015260016024820152601560fa1b6044820152606401610bb5565b60008160011660000361335857600160801b61336a565b6ffffcb933bd6fad37aa2d162d1a5940015b70ffffffffffffffffffffffffffffffffff16905060028216156133a95760806133a4826ffff97272373d413259a46990580e213a61421a565b901c90505b60048216156133d35760806133ce826ffff2e50f5f656932ef12357cf3c7fdcc61421a565b901c90505b60088216156133fd5760806133f8826fffe5caca7e10e4e61c3624eaa0941cd061421a565b901c90505b6010821615613427576080613422826fffcb9843d60f6159c9db58835c92664461421a565b901c90505b602082161561345157608061344c826fff973b41fa98c081472e6896dfb254c061421a565b901c90505b604082161561347b576080613476826fff2ea16466c96a3843ec78b326b5286161421a565b901c90505b60808216156134a55760806134a0826ffe5dee046a99a2a811c461f1969c305361421a565b901c90505b6101008216156134d05760806134cb826ffcbe86c7900a88aedcffc83b479aa3a461421a565b901c90505b6102008216156134fb5760806134f6826ff987a7253ac413176f2b074cf7815e5461421a565b901c90505b610400821615613526576080613521826ff3392b0822b70005940c7a398e4b70f361421a565b901c90505b61080082161561355157608061354c826fe7159475a2c29b7443b29c7fa6e889d961421a565b901c90505b61100082161561357c576080613577826fd097f3bdfd2022b8845ad8f792aa582561421a565b901c90505b6120008216156135a75760806135a2826fa9f746462d870fdf8a65dc1f90e061e561421a565b901c90505b6140008216156135d25760806135cd826f70d869a156d2a1b890bb3df62baf32f761421a565b901c90505b6180008216156135fd5760806135f8826f31be135f97d08fd981231505542fcfa661421a565b901c90505b62010000821615613629576080613624826f09aa508b5b7a84e1c677de54f3e99bc961421a565b901c90505b6202000082161561365457608061364f826e5d6af8dedb81196699c329225ee60461421a565b901c90505b6204000082161561367e576080613679826d2216e584f5fa1ea926041bedfe9861421a565b901c90505b620800008216156136a65760806136a1826b048a170391f7dc42444e8fa261421a565b901c90505b60008460020b13156136c1576136be816000196141c8565b90505b6136d064010000000082614239565b156136dc5760016136df565b60005b612ad89060ff16602083901c613ddb565b60008181526001830160205260408120546137375750815460018181018455600084815260208082209093018490558454848252828601909352604090209190915561079f565b50600061079f565b600082600001828154811061375657613756613f0b565b9060005260206000200154905092915050565b600080836001600160a01b0316856001600160a01b0316111561378a579293925b846001600160a01b0316866001600160a01b0316116137b5576137ae85858561318a565b91506137fc565b836001600160a01b0316866001600160a01b031610156137ee576137da86858561318a565b91506137e7858785613205565b90506137fc565b6137f9858585613205565b90505b94509492505050565b60608160000180548060200260200160405190810160405280929190818152602001828054801561385557602002820191906000526020600020905b815481526020019060010190808311613841575b50505050509050919050565b61386b828261159c565b610bc857613883816001600160a01b03166014613a1d565b61388e836020613a1d565b60405160200161389f92919061427d565b60408051601f198184030181529082905262461bcd60e51b8252610bb5916004016142f2565b6138cf828261159c565b15610bc8576000828152602081815260408083206001600160a01b0385168085529252808320805460ff1916905551339285917ff6391f5c32d9c69d2a47ea670b442974b53935d1edc7fd64eb21e047a839171b9190a45050565b60008181526001830160205260408120548015613a1357600061394e600183613ea0565b855490915060009061396290600190613ea0565b90508181146139c757600086600001828154811061398257613982613f0b565b90600052602060002001549050808760000184815481106139a5576139a5613f0b565b6000918252602080832090910192909255918252600188019052604090208390555b85548690806139d8576139d8614325565b60019003818190600052602060002001600090559055856001016000868152602001908152602001600020600090556001935050505061079f565b600091505061079f565b60606000613a2c83600261421a565b613a37906002613ddb565b67ffffffffffffffff811115613a4f57613a4f613e0c565b6040519080825280601f01601f191660200182016040528015613a79576020820181803683370190505b509050600360fc1b81600081518110613a9457613a94613f0b565b60200101906001600160f81b031916908160001a905350600f60fb1b81600181518110613ac357613ac3613f0b565b60200101906001600160f81b031916908160001a9053506000613ae784600261421a565b613af2906001613ddb565b90505b6001811115613b6a576f181899199a1a9b1b9c1cb0b131b232b360811b85600f1660108110613b2657613b26613f0b565b1a60f81b828281518110613b3c57613b3c613f0b565b60200101906001600160f81b031916908160001a90535060049490941c93613b638161433b565b9050613af5565b50831561153d5760405162461bcd60e51b815260206004820181905260248201527f537472696e67733a20686578206c656e67746820696e73756666696369656e746044820152606401610bb5565b5080546000825590600052602060002090810190610b4691905b80821115613be75760008155600101613bd3565b5090565b600060208284031215613bfd57600080fd5b81356001600160e01b03198116811461153d57600080fd5b6001600160a01b0381168114610b4657600080fd5b600060208284031215613c3c57600080fd5b813561153d81613c15565b600060208284031215613c5957600080fd5b5035919050565b6020808252825182820181905260009190848201906040850190845b81811015613c9857835183529284019291840191600101613c7c565b50909695505050505050565b60008060408385031215613cb757600080fd5b823591506020830135613cc981613c15565b809150509250929050565b60008060408385031215613ce757600080fd5b50508035926020909101359150565b60008060208385031215613d0957600080fd5b823567ffffffffffffffff80821115613d2157600080fd5b818501915085601f830112613d3557600080fd5b813581811115613d4457600080fd5b8660208260051b8501011115613d5957600080fd5b60209290920196919550909350505050565b6020808252825182820181905260009190848201906040850190845b81811015613c985783516001600160a01b031683529284019291840191600101613d87565b600060208284031215613dbe57600080fd5b5051919050565b634e487b7160e01b600052601160045260246000fd5b60008219821115613dee57613dee613dc5565b500190565b600060018201613e0557613e05613dc5565b5060010190565b634e487b7160e01b600052604160045260246000fd5b600060a08284031215613e3457600080fd5b60405160a0810181811067ffffffffffffffff82111715613e6557634e487b7160e01b600052604160045260246000fd5b806040525082518152602083015160208201526040830151604082015260608301516060820152608083015160808201528091505092915050565b600082821015613eb257613eb2613dc5565b500390565b6001600160a01b039384168152919092166020820152604081019190915260600190565b80518015158114613eeb57600080fd5b919050565b600060208284031215613f0257600080fd5b61153d82613edb565b634e487b7160e01b600052603260045260246000fd5b8051613eeb81613c15565b805162ffffff81168114613eeb57600080fd5b8051600281900b8114613eeb57600080fd5b80516001600160801b0381168114613eeb57600080fd5b6000806000806000806000806000806000806101808d8f031215613f8b57600080fd5b8c516bffffffffffffffffffffffff81168114613fa757600080fd5b9b50613fb560208e01613f21565b9a50613fc360408e01613f21565b9950613fd160608e01613f21565b9850613fdf60808e01613f2c565b9750613fed60a08e01613f3f565b9650613ffb60c08e01613f3f565b955061400960e08e01613f51565b94506101008d015193506101208d015192506140286101408e01613f51565b91506140376101608e01613f51565b90509295989b509295989b509295989b565b60006020828403121561405b57600080fd5b815161153d81613c15565b805161ffff81168114613eeb57600080fd5b600080600080600080600060e0888a03121561409357600080fd5b875161409e81613c15565b96506140ac60208901613f3f565b95506140ba60408901614066565b94506140c860608901614066565b93506140d660808901614066565b925060a088015160ff811681146140ec57600080fd5b91506140fa60c08901613edb565b905092959891949750929550565b600080600080600060a0868803121561412057600080fd5b61412986613f51565b9450602086015193506040860151925061414560608701613f51565b915061415360808701613f51565b90509295509295909350565b60006001600160801b0380831681851680830382111561418157614181613dc5565b01949350505050565b60006001600160a01b03838116908316818110156141aa576141aa613dc5565b039392505050565b634e487b7160e01b600052601260045260246000fd5b6000826141d7576141d76141b2565b500490565b6000600160ff1b82016141f1576141f1613dc5565b5060000390565b60008160020b627fffff19810361421157614211613dc5565b60000392915050565b600081600019048311821515161561423457614234613dc5565b500290565b600082614248576142486141b2565b500690565b60005b83811015614268578181015183820152602001614250565b83811115614277576000848401525b50505050565b7f416363657373436f6e74726f6c3a206163636f756e74200000000000000000008152600083516142b581601785016020880161424d565b7001034b99036b4b9b9b4b733903937b6329607d1b60179184019182015283516142e681602884016020880161424d565b01602801949350505050565b602081526000825180602084015261431181604085016020870161424d565b601f01601f19169190910160400192915050565b634e487b7160e01b600052603160045260246000fd5b60008161434a5761434a613dc5565b50600019019056fea2646970667358221220fa304059fe09b3b9618b215be19632519a57b602ed117d8ccf0dc8863e97fd6464736f6c634300080d0033f23ec0bb4210edd5cba85afd05127efcd2fc6a781bfed49188da1081670b22d846a52cf33029de9f84853745a87af28464c80bf0346df1b32e205fc73319f622",
    "linkReferences": {}
  },
  "methodIdentifiers": {
    "ADMIN_DELEGATE_ROLE()": "0952ff54",
    "ADMIN_ROLE()": "75b238fc",
    "DEFAULT_ADMIN_ROLE()": "a217fddf",
    "DENOMINATOR()": "918f8674",
    "OPERATOR()": "983d2737",
    "Q128()": "b4b15f71",
    "Q96()": "40792465",
    "YEAR()": "83914540",
    "addDepositorsToAllowlist(address[])": "91b7ab47",
    "burnDebt(uint256,uint256)": "a8406ea3",
    "calculateHealthFactor(uint256)": "23a4deb5",
    "closeVault(uint256)": "360c3288",
    "debt(uint256)": "1e0029c8",
    "debtFee(uint256)": "2a7c49e3",
    "depositCollateral(uint256,uint256)": "ece13732",
    "depositorsAllowlist()": "a09eb0e7",
    "factory()": "c45a0155",
    "getOverallDebt(uint256)": "2d922369",
    "getRoleAdmin(bytes32)": "248a9ca3",
    "getRoleMember(bytes32,uint256)": "9010d07c",
    "getRoleMemberCount(bytes32)": "ca15c873",
    "grantRole(bytes32,address)": "2f2ff15d",
    "hasRole(bytes32,address)": "91d14854",
    "isAdmin(address)": "24d7806c",
    "isOperator(address)": "6d70f7ae",
    "isPaused()": "b187bd26",
    "isPrivate()": "faff660e",
    "liquidate(uint256)": "415f1240",
    "makePrivate()": "7c84b40c",
    "makePublic()": "fc018c05",
    "maxCollateralSupply(address)": "e69f3ebf",
    "mintDebt(uint256,uint256)": "9b52d8c8",
    "openVault()": "86f54712",
    "oracle()": "7dc0d1d0",
    "ownedVaultsByAddress(address)": "2b0eeec3",
    "pause()": "8456cb59",
    "positionManager()": "791b98bc",
    "protocolGovernance()": "5227ce4c",
    "removeDepositorsFromAllowlist(address[])": "e273d23e",
    "renounceRole(bytes32,address)": "36568abe",
    "revokeRole(bytes32,address)": "d547741f",
    "setOracle(address)": "7adbf973",
    "setToken(address)": "144fa6d7",
    "supportsInterface(bytes4)": "01ffc9a7",
    "token()": "fc0c546a",
    "treasury()": "61d027b3",
    "unpause()": "3f4ba83a",
    "vaultCount()": "a7c6a100",
    "vaultNftsById(uint256)": "5d2bb997",
    "vaultOwner(uint256)": "3c2ecfe5",
    "withdrawCollateral(uint256)": "6112fe2e"
  },
  "id": 22
}