{
  "abi": [
    {
      "inputs": [
        {
          "internalType": "string",
          "name": "name",
          "type": "string"
        },
        {
          "internalType": "string",
          "name": "symbol",
          "type": "string"
        },
        {
          "internalType": "address",
          "name": "vault",
          "type": "address"
        }
      ],
      "stateMutability": "nonpayable",
      "type": "constructor"
    },
    {
      "inputs": [],
      "name": "Forbidden",
      "type": "error"
    },
    {
      "anonymous": false,
      "inputs": [
        {
          "indexed": true,
          "internalType": "address",
          "name": "owner",
          "type": "address"
        },
        {
          "indexed": true,
          "internalType": "address",
          "name": "spender",
          "type": "address"
        },
        {
          "indexed": false,
          "internalType": "uint256",
          "name": "amount",
          "type": "uint256"
        }
      ],
      "name": "Approval",
      "type": "event"
    },
    {
      "anonymous": false,
      "inputs": [
        {
          "indexed": true,
          "internalType": "address",
          "name": "from",
          "type": "address"
        },
        {
          "indexed": true,
          "internalType": "address",
          "name": "to",
          "type": "address"
        },
        {
          "indexed": false,
          "internalType": "uint256",
          "name": "amount",
          "type": "uint256"
        }
      ],
      "name": "Transfer",
      "type": "event"
    },
    {
      "inputs": [],
      "name": "DOMAIN_SEPARATOR",
      "outputs": [
        {
          "internalType": "bytes32",
          "name": "",
          "type": "bytes32"
        }
      ],
      "stateMutability": "view",
      "type": "function"
    },
    {
      "inputs": [
        {
          "internalType": "address",
          "name": "",
          "type": "address"
        },
        {
          "internalType": "address",
          "name": "",
          "type": "address"
        }
      ],
      "name": "allowance",
      "outputs": [
        {
          "internalType": "uint256",
          "name": "",
          "type": "uint256"
        }
      ],
      "stateMutability": "view",
      "type": "function"
    },
    {
      "inputs": [
        {
          "internalType": "address",
          "name": "spender",
          "type": "address"
        },
        {
          "internalType": "uint256",
          "name": "amount",
          "type": "uint256"
        }
      ],
      "name": "approve",
      "outputs": [
        {
          "internalType": "bool",
          "name": "",
          "type": "bool"
        }
      ],
      "stateMutability": "nonpayable",
      "type": "function"
    },
    {
      "inputs": [
        {
          "internalType": "address",
          "name": "",
          "type": "address"
        }
      ],
      "name": "balanceOf",
      "outputs": [
        {
          "internalType": "uint256",
          "name": "",
          "type": "uint256"
        }
      ],
      "stateMutability": "view",
      "type": "function"
    },
    {
      "inputs": [
        {
          "internalType": "address",
          "name": "from",
          "type": "address"
        },
        {
          "internalType": "uint256",
          "name": "amount",
          "type": "uint256"
        }
      ],
      "name": "burn",
      "outputs": [],
      "stateMutability": "nonpayable",
      "type": "function"
    },
    {
      "inputs": [],
      "name": "decimals",
      "outputs": [
        {
          "internalType": "uint8",
          "name": "",
          "type": "uint8"
        }
      ],
      "stateMutability": "view",
      "type": "function"
    },
    {
      "inputs": [],
      "name": "governingVault",
      "outputs": [
        {
          "internalType": "address",
          "name": "",
          "type": "address"
        }
      ],
      "stateMutability": "view",
      "type": "function"
    },
    {
      "inputs": [
        {
          "internalType": "address",
          "name": "to",
          "type": "address"
        },
        {
          "internalType": "uint256",
          "name": "amount",
          "type": "uint256"
        }
      ],
      "name": "mint",
      "outputs": [],
      "stateMutability": "nonpayable",
      "type": "function"
    },
    {
      "inputs": [],
      "name": "name",
      "outputs": [
        {
          "internalType": "string",
          "name": "",
          "type": "string"
        }
      ],
      "stateMutability": "view",
      "type": "function"
    },
    {
      "inputs": [
        {
          "internalType": "address",
          "name": "",
          "type": "address"
        }
      ],
      "name": "nonces",
      "outputs": [
        {
          "internalType": "uint256",
          "name": "",
          "type": "uint256"
        }
      ],
      "stateMutability": "view",
      "type": "function"
    },
    {
      "inputs": [
        {
          "internalType": "address",
          "name": "owner",
          "type": "address"
        },
        {
          "internalType": "address",
          "name": "spender",
          "type": "address"
        },
        {
          "internalType": "uint256",
          "name": "value",
          "type": "uint256"
        },
        {
          "internalType": "uint256",
          "name": "deadline",
          "type": "uint256"
        },
        {
          "internalType": "uint8",
          "name": "v",
          "type": "uint8"
        },
        {
          "internalType": "bytes32",
          "name": "r",
          "type": "bytes32"
        },
        {
          "internalType": "bytes32",
          "name": "s",
          "type": "bytes32"
        }
      ],
      "name": "permit",
      "outputs": [],
      "stateMutability": "nonpayable",
      "type": "function"
    },
    {
      "inputs": [],
      "name": "symbol",
      "outputs": [
        {
          "internalType": "string",
          "name": "",
          "type": "string"
        }
      ],
      "stateMutability": "view",
      "type": "function"
    },
    {
      "inputs": [],
      "name": "totalSupply",
      "outputs": [
        {
          "internalType": "uint256",
          "name": "",
          "type": "uint256"
        }
      ],
      "stateMutability": "view",
      "type": "function"
    },
    {
      "inputs": [
        {
          "internalType": "address",
          "name": "to",
          "type": "address"
        },
        {
          "internalType": "uint256",
          "name": "amount",
          "type": "uint256"
        }
      ],
      "name": "transfer",
      "outputs": [
        {
          "internalType": "bool",
          "name": "",
          "type": "bool"
        }
      ],
      "stateMutability": "nonpayable",
      "type": "function"
    },
    {
      "inputs": [
        {
          "internalType": "address",
          "name": "from",
          "type": "address"
        },
        {
          "internalType": "address",
          "name": "to",
          "type": "address"
        },
        {
          "internalType": "uint256",
          "name": "amount",
          "type": "uint256"
        }
      ],
      "name": "transferFrom",
      "outputs": [
        {
          "internalType": "bool",
          "name": "",
          "type": "bool"
        }
      ],
      "stateMutability": "nonpayable",
      "type": "function"
    }
  ],
  "bytecode": {
    "object": "0x6101006040523480156200001257600080fd5b5060405162001101380380620011018339810160408190526200003591620002a7565b8282601282600090805190602001906200005192919062000134565b5081516200006790600190602085019062000134565b5060ff81166080524660a0526200007d62000098565b60c0525050506001600160a01b031660e05250620004139050565b60007f8b73c3c69bb8fe3d512ecc4cf759cc79239f7b179b0ffacaa9a75d522b39400f6000604051620000cc919062000370565b6040805191829003822060208301939093528101919091527fc89efdaa54c0f20c7adf612882df0950f5a951637e0307cdcb4c672f298b8bc660608201524660808201523060a082015260c00160405160208183030381529060405280519060200120905090565b828054620001429062000334565b90600052602060002090601f016020900481019282620001665760008555620001b1565b82601f106200018157805160ff1916838001178555620001b1565b82800160010185558215620001b1579182015b82811115620001b157825182559160200191906001019062000194565b50620001bf929150620001c3565b5090565b5b80821115620001bf5760008155600101620001c4565b634e487b7160e01b600052604160045260246000fd5b600082601f8301126200020257600080fd5b81516001600160401b03808211156200021f576200021f620001da565b604051601f8301601f19908116603f011681019082821181831017156200024a576200024a620001da565b816040528381526020925086838588010111156200026757600080fd5b600091505b838210156200028b57858201830151818301840152908201906200026c565b838211156200029d5760008385830101525b9695505050505050565b600080600060608486031215620002bd57600080fd5b83516001600160401b0380821115620002d557600080fd5b620002e387838801620001f0565b94506020860151915080821115620002fa57600080fd5b506200030986828701620001f0565b604086015190935090506001600160a01b03811681146200032957600080fd5b809150509250925092565b600181811c908216806200034957607f821691505b6020821081036200036a57634e487b7160e01b600052602260045260246000fd5b50919050565b600080835481600182811c9150808316806200038d57607f831692505b60208084108203620003ad57634e487b7160e01b86526022600452602486fd5b818015620003c45760018114620003d65762000405565b60ff1986168952848901965062000405565b60008a81526020902060005b86811015620003fd5781548b820152908501908301620003e2565b505084890196505b509498975050505050505050565b60805160a05160c05160e051610ca66200045b60003960008181610200015281816104e6015261054a015260006104b9015260006104840152600061016a0152610ca66000f3fe608060405234801561001057600080fd5b50600436106100f55760003560e01c806370a08231116100975780639dc29fac116100665780639dc29fac14610242578063a9059cbb14610255578063d505accf14610268578063dd62ed3e1461027b57600080fd5b806370a08231146101bb5780637ecebe00146101db57806394c8271d146101fb57806395d89b411461023a57600080fd5b806323b872dd116100d357806323b872dd14610152578063313ce567146101655780633644e5151461019e57806340c10f19146101a657600080fd5b806306fdde03146100fa578063095ea7b31461011857806318160ddd1461013b575b600080fd5b6101026102a6565b60405161010f9190610997565b60405180910390f35b61012b610126366004610a08565b610334565b604051901515815260200161010f565b61014460025481565b60405190815260200161010f565b61012b610160366004610a32565b6103a0565b61018c7f000000000000000000000000000000000000000000000000000000000000000081565b60405160ff909116815260200161010f565b610144610480565b6101b96101b4366004610a08565b6104db565b005b6101446101c9366004610a6e565b60036020526000908152604090205481565b6101446101e9366004610a6e565b60056020526000908152604090205481565b6102227f000000000000000000000000000000000000000000000000000000000000000081565b6040516001600160a01b03909116815260200161010f565b610102610532565b6101b9610250366004610a08565b61053f565b61012b610263366004610a08565b610592565b6101b9610276366004610a90565b6105f8565b610144610289366004610b03565b600460209081526000928352604080842090915290825290205481565b600080546102b390610b36565b80601f01602080910402602001604051908101604052809291908181526020018280546102df90610b36565b801561032c5780601f106103015761010080835404028352916020019161032c565b820191906000526020600020905b81548152906001019060200180831161030f57829003601f168201915b505050505081565b3360008181526004602090815260408083206001600160a01b038716808552925280832085905551919290917f8c5be1e5ebec7d5bd14f71427d1e84f3dd0314c0f7b2291e5b200ac8c7c3b9259061038f9086815260200190565b60405180910390a350600192915050565b6001600160a01b038316600090815260046020908152604080832033845290915281205460001981146103fc576103d78382610b86565b6001600160a01b03861660009081526004602090815260408083203384529091529020555b6001600160a01b03851660009081526003602052604081208054859290610424908490610b86565b90915550506001600160a01b0380851660008181526003602052604090819020805487019055519091871690600080516020610c518339815191529061046d9087815260200190565b60405180910390a3506001949350505050565b60007f000000000000000000000000000000000000000000000000000000000000000046146104b6576104b1610841565b905090565b507f000000000000000000000000000000000000000000000000000000000000000090565b336001600160a01b037f0000000000000000000000000000000000000000000000000000000000000000161461052457604051631dd2188d60e31b815260040160405180910390fd5b61052e82826108db565b5050565b600180546102b390610b36565b336001600160a01b037f0000000000000000000000000000000000000000000000000000000000000000161461058857604051631dd2188d60e31b815260040160405180910390fd5b61052e8282610935565b336000908152600360205260408120805483919083906105b3908490610b86565b90915550506001600160a01b03831660008181526003602052604090819020805485019055513390600080516020610c518339815191529061038f9086815260200190565b4284101561064d5760405162461bcd60e51b815260206004820152601760248201527f5045524d49545f444541444c494e455f4558504952454400000000000000000060448201526064015b60405180910390fd5b60006001610659610480565b6001600160a01b038a811660008181526005602090815260409182902080546001810190915582517f6e71edae12b1b97f4d1f60370fef10105fa2faae0126114a169c64845d6126c98184015280840194909452938d166060840152608083018c905260a083019390935260c08083018b90528151808403909101815260e08301909152805192019190912061190160f01b6101008301526101028201929092526101228101919091526101420160408051601f198184030181528282528051602091820120600084529083018083525260ff871690820152606081018590526080810184905260a0016020604051602081039080840390855afa158015610765573d6000803e3d6000fd5b5050604051601f1901519150506001600160a01b0381161580159061079b5750876001600160a01b0316816001600160a01b0316145b6107d85760405162461bcd60e51b815260206004820152600e60248201526d24a72b20a624a22fa9a4a3a722a960911b6044820152606401610644565b6001600160a01b0390811660009081526004602090815260408083208a8516808552908352928190208990555188815291928a16917f8c5be1e5ebec7d5bd14f71427d1e84f3dd0314c0f7b2291e5b200ac8c7c3b925910160405180910390a350505050505050565b60007f8b73c3c69bb8fe3d512ecc4cf759cc79239f7b179b0ffacaa9a75d522b39400f60006040516108739190610b9d565b6040805191829003822060208301939093528101919091527fc89efdaa54c0f20c7adf612882df0950f5a951637e0307cdcb4c672f298b8bc660608201524660808201523060a082015260c00160405160208183030381529060405280519060200120905090565b80600260008282546108ed9190610c38565b90915550506001600160a01b038216600081815260036020908152604080832080548601905551848152600080516020610c5183398151915291015b60405180910390a35050565b6001600160a01b0382166000908152600360205260408120805483929061095d908490610b86565b90915550506002805482900390556040518181526000906001600160a01b03841690600080516020610c5183398151915290602001610929565b600060208083528351808285015260005b818110156109c4578581018301518582016040015282016109a8565b818111156109d6576000604083870101525b50601f01601f1916929092016040019392505050565b80356001600160a01b0381168114610a0357600080fd5b919050565b60008060408385031215610a1b57600080fd5b610a24836109ec565b946020939093013593505050565b600080600060608486031215610a4757600080fd5b610a50846109ec565b9250610a5e602085016109ec565b9150604084013590509250925092565b600060208284031215610a8057600080fd5b610a89826109ec565b9392505050565b600080600080600080600060e0888a031215610aab57600080fd5b610ab4886109ec565b9650610ac2602089016109ec565b95506040880135945060608801359350608088013560ff81168114610ae657600080fd5b9699959850939692959460a0840135945060c09093013592915050565b60008060408385031215610b1657600080fd5b610b1f836109ec565b9150610b2d602084016109ec565b90509250929050565b600181811c90821680610b4a57607f821691505b602082108103610b6a57634e487b7160e01b600052602260045260246000fd5b50919050565b634e487b7160e01b600052601160045260246000fd5b600082821015610b9857610b98610b70565b500390565b600080835481600182811c915080831680610bb957607f831692505b60208084108203610bd857634e487b7160e01b86526022600452602486fd5b818015610bec5760018114610bfd57610c2a565b60ff19861689528489019650610c2a565b60008a81526020902060005b86811015610c225781548b820152908501908301610c09565b505084890196505b509498975050505050505050565b60008219821115610c4b57610c4b610b70565b50019056feddf252ad1be2c89b69c2b068fc378daa952ba7f163c4a11628f55a4df523b3efa2646970667358221220897aa8b5de3c3b0d76ba67c27279907bdfbaaa232a7968b3aa469c98374a901564736f6c634300080d0033",
    "linkReferences": {}
  },
  "methodIdentifiers": {
    "DOMAIN_SEPARATOR()": "3644e515",
    "allowance(address,address)": "dd62ed3e",
    "approve(address,uint256)": "095ea7b3",
    "balanceOf(address)": "70a08231",
    "burn(address,uint256)": "9dc29fac",
    "decimals()": "313ce567",
    "governingVault()": "94c8271d",
    "mint(address,uint256)": "40c10f19",
    "name()": "06fdde03",
    "nonces(address)": "7ecebe00",
    "permit(address,address,uint256,uint256,uint8,bytes32,bytes32)": "d505accf",
    "symbol()": "95d89b41",
    "totalSupply()": "18160ddd",
    "transfer(address,uint256)": "a9059cbb",
    "transferFrom(address,address,uint256)": "23b872dd"
  },
  "id": 19
}