{
  "abi": [
    {
      "inputs": [
        {
          "internalType": "address",
          "name": "token",
          "type": "address"
        }
      ],
      "name": "price",
      "outputs": [
        {
          "internalType": "uint256",
          "name": "priceX96",
          "type": "uint256"
        }
      ],
      "stateMutability": "view",
      "type": "function"
    },
    {
      "inputs": [
        {
          "internalType": "address",
          "name": "token",
          "type": "address"
        },
        {
          "internalType": "uint256",
          "name": "newPrice",
          "type": "uint256"
        }
      ],
      "name": "setPrice",
      "outputs": [],
      "stateMutability": "nonpayable",
      "type": "function"
    }
  ],
  "bytecode": {
    "object": "0x608060405234801561001057600080fd5b5061012e806100206000396000f3fe6080604052348015600f57600080fd5b506004361060315760003560e01c8062e4768b146036578063aea9107814605f575b600080fd5b605d604136600460b2565b6001600160a01b03909116600090815260208190526040902055565b005b6085606a36600460d9565b6001600160a01b031660009081526020819052604090205490565b60405190815260200160405180910390f35b80356001600160a01b038116811460ad57600080fd5b919050565b6000806040838503121560c457600080fd5b60cb836097565b946020939093013593505050565b60006020828403121560ea57600080fd5b60f1826097565b939250505056fea2646970667358221220d5cc9e1100aa810542a1be532d4697f1a341648e75fb556bd3fd2bc61c55722164736f6c634300080d0033",
    "linkReferences": {}
  },
  "methodIdentifiers": {
    "price(address)": "aea91078",
    "setPrice(address,uint256)": "00e4768b"
  },
  "id": 53
}