{
  "abi": [
    {
      "inputs": [],
      "name": "decimals",
      "outputs": [
        {
          "internalType": "uint8",
          "name": "",
          "type": "uint8"
        }
      ],
      "stateMutability": "view",
      "type": "function"
    }
  ],
  "bytecode": {
    "object": "0x60806040526000805460ff19166008179055348015601c57600080fd5b5060858061002b6000396000f3fe6080604052348015600f57600080fd5b506004361060285760003560e01c8063313ce56714602d575b600080fd5b60005460399060ff1681565b60405160ff909116815260200160405180910390f3fea26469706673582212207b67a3450a4d52954bd9a492039bbe86302a4967450c5d6fa083198bf56bd5e364736f6c634300080d0033",
    "linkReferences": {}
  },
  "methodIdentifiers": {
    "decimals()": "313ce567"
  },
  "id": 52
}