{
  "abi": [
    {
      "inputs": [
        {
          "internalType": "address[]",
          "name": "tokens",
          "type": "address[]"
        },
        {
          "internalType": "address[]",
          "name": "oracles",
          "type": "address[]"
        },
        {
          "internalType": "address",
          "name": "admin",
          "type": "address"
        }
      ],
      "stateMutability": "nonpayable",
      "type": "constructor"
    },
    {
      "inputs": [],
      "name": "AddressZero",
      "type": "error"
    },
    {
      "inputs": [],
      "name": "Forbidden",
      "type": "error"
    },
    {
      "inputs": [],
      "name": "InvalidValue",
      "type": "error"
    },
    {
      "anonymous": false,
      "inputs": [
        {
          "indexed": true,
          "internalType": "address",
          "name": "origin",
          "type": "address"
        },
        {
          "indexed": true,
          "internalType": "address",
          "name": "sender",
          "type": "address"
        },
        {
          "indexed": false,
          "internalType": "address[]",
          "name": "tokens",
          "type": "address[]"
        },
        {
          "indexed": false,
          "internalType": "address[]",
          "name": "oracles",
          "type": "address[]"
        }
      ],
      "name": "OraclesAdded",
      "type": "event"
    },
    {
      "anonymous": false,
      "inputs": [
        {
          "indexed": true,
          "internalType": "bytes32",
          "name": "role",
          "type": "bytes32"
        },
        {
          "indexed": true,
          "internalType": "bytes32",
          "name": "previousAdminRole",
          "type": "bytes32"
        },
        {
          "indexed": true,
          "internalType": "bytes32",
          "name": "newAdminRole",
          "type": "bytes32"
        }
      ],
      "name": "RoleAdminChanged",
      "type": "event"
    },
    {
      "anonymous": false,
      "inputs": [
        {
          "indexed": true,
          "internalType": "bytes32",
          "name": "role",
          "type": "bytes32"
        },
        {
          "indexed": true,
          "internalType": "address",
          "name": "account",
          "type": "address"
        },
        {
          "indexed": true,
          "internalType": "address",
          "name": "sender",
          "type": "address"
        }
      ],
      "name": "RoleGranted",
      "type": "event"
    },
    {
      "anonymous": false,
      "inputs": [
        {
          "indexed": true,
          "internalType": "bytes32",
          "name": "role",
          "type": "bytes32"
        },
        {
          "indexed": true,
          "internalType": "address",
          "name": "account",
          "type": "address"
        },
        {
          "indexed": true,
          "internalType": "address",
          "name": "sender",
          "type": "address"
        }
      ],
      "name": "RoleRevoked",
      "type": "event"
    },
    {
      "inputs": [],
      "name": "ADMIN_DELEGATE_ROLE",
      "outputs": [
        {
          "internalType": "bytes32",
          "name": "",
          "type": "bytes32"
        }
      ],
      "stateMutability": "view",
      "type": "function"
    },
    {
      "inputs": [],
      "name": "ADMIN_ROLE",
      "outputs": [
        {
          "internalType": "bytes32",
          "name": "",
          "type": "bytes32"
        }
      ],
      "stateMutability": "view",
      "type": "function"
    },
    {
      "inputs": [],
      "name": "DECIMALS",
      "outputs": [
        {
          "internalType": "uint256",
          "name": "",
          "type": "uint256"
        }
      ],
      "stateMutability": "view",
      "type": "function"
    },
    {
      "inputs": [],
      "name": "DEFAULT_ADMIN_ROLE",
      "outputs": [
        {
          "internalType": "bytes32",
          "name": "",
          "type": "bytes32"
        }
      ],
      "stateMutability": "view",
      "type": "function"
    },
    {
      "inputs": [],
      "name": "OPERATOR",
      "outputs": [
        {
          "internalType": "bytes32",
          "name": "",
          "type": "bytes32"
        }
      ],
      "stateMutability": "view",
      "type": "function"
    },
    {
      "inputs": [],
      "name": "Q96",
      "outputs": [
        {
          "internalType": "uint256",
          "name": "",
          "type": "uint256"
        }
      ],
      "stateMutability": "view",
      "type": "function"
    },
    {
      "inputs": [
        {
          "internalType": "address[]",
          "name": "tokens",
          "type": "address[]"
        },
        {
          "internalType": "address[]",
          "name": "oracles",
          "type": "address[]"
        }
      ],
      "name": "addChainlinkOracles",
      "outputs": [],
      "stateMutability": "nonpayable",
      "type": "function"
    },
    {
      "inputs": [
        {
          "internalType": "address",
          "name": "",
          "type": "address"
        }
      ],
      "name": "decimalsIndex",
      "outputs": [
        {
          "internalType": "uint256",
          "name": "",
          "type": "uint256"
        }
      ],
      "stateMutability": "view",
      "type": "function"
    },
    {
      "inputs": [
        {
          "internalType": "bytes32",
          "name": "role",
          "type": "bytes32"
        }
      ],
      "name": "getRoleAdmin",
      "outputs": [
        {
          "internalType": "bytes32",
          "name": "",
          "type": "bytes32"
        }
      ],
      "stateMutability": "view",
      "type": "function"
    },
    {
      "inputs": [
        {
          "internalType": "bytes32",
          "name": "role",
          "type": "bytes32"
        },
        {
          "internalType": "uint256",
          "name": "index",
          "type": "uint256"
        }
      ],
      "name": "getRoleMember",
      "outputs": [
        {
          "internalType": "address",
          "name": "",
          "type": "address"
        }
      ],
      "stateMutability": "view",
      "type": "function"
    },
    {
      "inputs": [
        {
          "internalType": "bytes32",
          "name": "role",
          "type": "bytes32"
        }
      ],
      "name": "getRoleMemberCount",
      "outputs": [
        {
          "internalType": "uint256",
          "name": "",
          "type": "uint256"
        }
      ],
      "stateMutability": "view",
      "type": "function"
    },
    {
      "inputs": [
        {
          "internalType": "bytes32",
          "name": "role",
          "type": "bytes32"
        },
        {
          "internalType": "address",
          "name": "account",
          "type": "address"
        }
      ],
      "name": "grantRole",
      "outputs": [],
      "stateMutability": "nonpayable",
      "type": "function"
    },
    {
      "inputs": [
        {
          "internalType": "address",
          "name": "token",
          "type": "address"
        }
      ],
      "name": "hasOracle",
      "outputs": [
        {
          "internalType": "bool",
          "name": "",
          "type": "bool"
        }
      ],
      "stateMutability": "view",
      "type": "function"
    },
    {
      "inputs": [
        {
          "internalType": "bytes32",
          "name": "role",
          "type": "bytes32"
        },
        {
          "internalType": "address",
          "name": "account",
          "type": "address"
        }
      ],
      "name": "hasRole",
      "outputs": [
        {
          "internalType": "bool",
          "name": "",
          "type": "bool"
        }
      ],
      "stateMutability": "view",
      "type": "function"
    },
    {
      "inputs": [
        {
          "internalType": "address",
          "name": "sender",
          "type": "address"
        }
      ],
      "name": "isAdmin",
      "outputs": [
        {
          "internalType": "bool",
          "name": "",
          "type": "bool"
        }
      ],
      "stateMutability": "view",
      "type": "function"
    },
    {
      "inputs": [
        {
          "internalType": "address",
          "name": "sender",
          "type": "address"
        }
      ],
      "name": "isOperator",
      "outputs": [
        {
          "internalType": "bool",
          "name": "",
          "type": "bool"
        }
      ],
      "stateMutability": "view",
      "type": "function"
    },
    {
      "inputs": [
        {
          "internalType": "address",
          "name": "",
          "type": "address"
        }
      ],
      "name": "oraclesIndex",
      "outputs": [
        {
          "internalType": "address",
          "name": "",
          "type": "address"
        }
      ],
      "stateMutability": "view",
      "type": "function"
    },
    {
      "inputs": [
        {
          "internalType": "address",
          "name": "token",
          "type": "address"
        }
      ],
      "name": "price",
      "outputs": [
        {
          "internalType": "uint256",
          "name": "priceX96",
          "type": "uint256"
        }
      ],
      "stateMutability": "view",
      "type": "function"
    },
    {
      "inputs": [
        {
          "internalType": "bytes32",
          "name": "role",
          "type": "bytes32"
        },
        {
          "internalType": "address",
          "name": "account",
          "type": "address"
        }
      ],
      "name": "renounceRole",
      "outputs": [],
      "stateMutability": "nonpayable",
      "type": "function"
    },
    {
      "inputs": [
        {
          "internalType": "bytes32",
          "name": "role",
          "type": "bytes32"
        },
        {
          "internalType": "address",
          "name": "account",
          "type": "address"
        }
      ],
      "name": "revokeRole",
      "outputs": [],
      "stateMutability": "nonpayable",
      "type": "function"
    },
    {
      "inputs": [],
      "name": "supportedTokens",
      "outputs": [
        {
          "internalType": "address[]",
          "name": "",
          "type": "address[]"
        }
      ],
      "stateMutability": "view",
      "type": "function"
    },
    {
      "inputs": [
        {
          "internalType": "bytes4",
          "name": "interfaceId",
          "type": "bytes4"
        }
      ],
      "name": "supportsInterface",
      "outputs": [
        {
          "internalType": "bool",
          "name": "",
          "type": "bool"
        }
      ],
      "stateMutability": "view",
      "type": "function"
    }
  ],
  "bytecode": {
    "object": "0x60806040523480156200001157600080fd5b5060405162001d2438038062001d248339810160408190526200003491620005d3565b806001600160a01b0381166200005d57604051639fabe1c160e01b815260040160405180910390fd5b6200007860008051602062001d04833981519152826200013a565b6200009360008051602062001ce4833981519152826200013a565b620000ae60008051602062001ce4833981519152806200014a565b620000e97fc171260023d22a25a00a2789664c9334017843b831138c8ef03cc8897e5873d760008051602062001ce48339815191526200014a565b6200012460008051602062001d048339815191527fc171260023d22a25a00a2789664c9334017843b831138c8ef03cc8897e5873d76200014a565b5062000131838362000195565b50505062000763565b6200014682826200039e565b5050565b600082815260208190526040808220600101805490849055905190918391839186917fbd79b86ffe0ab8e8776151514217cd7cacd52c909f66475c3af44e129f0b00ff9190a4505050565b8051825114620001b857604051632a9ffab760e21b815260040160405180910390fd5b60005b825181101562000359576000838281518110620001dc57620001dc6200064f565b602002602001015190506000838381518110620001fd57620001fd6200064f565b6020026020010151905062000222826004620003e160201b620006641790919060201c565b506001600160a01b0382811660009081526002602090815260409182902080546001600160a01b0319169385169384179055815163313ce56760e01b8152915163313ce5679260048082019392918290030181865afa1580156200028a573d6000803e3d6000fd5b505050506040513d601f19601f82011682018060405250810190620002b0919062000665565b826001600160a01b031663313ce5676040518163ffffffff1660e01b8152600401602060405180830381865afa158015620002ef573d6000803e3d6000fd5b505050506040513d601f19601f8201168201806040525081019062000315919062000665565b620003219190620006a7565b6001600160a01b03909216600090815260036020526040902060ff9290921690915550806200035081620006cf565b915050620001bb565b50604051339032907fc1d6555f528e5483cb7c175a6c6b660c26c2a340b459268be1ae26c659c0e7b59062000392908690869062000731565b60405180910390a35050565b620003b582826200040160201b620006791760201c565b6000828152600160209081526040909120620003dc91839062000664620003e1821b17901c565b505050565b6000620003f8836001600160a01b038416620004a1565b90505b92915050565b6000828152602081815260408083206001600160a01b038516845290915290205460ff1662000146576000828152602081815260408083206001600160a01b03851684529091529020805460ff191660011790556200045d3390565b6001600160a01b0316816001600160a01b0316837f2f8788117e7eff1d82e926ec794901d17c78024a50270940304540a733656f0d60405160405180910390a45050565b6000818152600183016020526040812054620004ea57508154600181810184556000848152602080822090930184905584548482528286019093526040902091909155620003fb565b506000620003fb565b634e487b7160e01b600052604160045260246000fd5b80516001600160a01b03811681146200052157600080fd5b919050565b600082601f8301126200053857600080fd5b815160206001600160401b0380831115620005575762000557620004f3565b8260051b604051601f19603f830116810181811084821117156200057f576200057f620004f3565b6040529384528581018301938381019250878511156200059e57600080fd5b83870191505b84821015620005c857620005b88262000509565b83529183019190830190620005a4565b979650505050505050565b600080600060608486031215620005e957600080fd5b83516001600160401b03808211156200060157600080fd5b6200060f8783880162000526565b945060208601519150808211156200062657600080fd5b50620006358682870162000526565b925050620006466040850162000509565b90509250925092565b634e487b7160e01b600052603260045260246000fd5b6000602082840312156200067857600080fd5b815160ff811681146200068a57600080fd5b9392505050565b634e487b7160e01b600052601160045260246000fd5b600060ff821660ff84168060ff03821115620006c757620006c762000691565b019392505050565b600060018201620006e457620006e462000691565b5060010190565b600081518084526020808501945080840160005b83811015620007265781516001600160a01b031687529582019590820190600101620006ff565b509495945050505050565b604081526000620007466040830185620006eb565b82810360208401526200075a8185620006eb565b95945050505050565b61157180620007736000396000f3fe608060405234801561001057600080fd5b50600436106101425760003560e01c80636d70f7ae116100b8578063a217fddf1161007c578063a217fddf14610310578063aea9107814610318578063b002249d1461032b578063ca15c87314610340578063d547741f14610353578063d892a3601461036657600080fd5b80636d70f7ae1461028957806375b238fc1461029c5780639010d07c146102c357806391d14854146102d6578063983d2737146102e957600080fd5b8063248a9ca31161010a578063248a9ca31461021857806324d7806c1461023b5780632e0f26251461024e5780632f2ff15d1461025657806336568abe1461026b578063407924651461027e57600080fd5b806301ffc9a71461014757806303d140121461016f5780630952ff54146101b0578063180c9309146101e55780631e64e43a146101f8575b600080fd5b61015a610155366004610fa3565b610379565b60405190151581526020015b60405180910390f35b61019861017d366004610fe9565b6002602052600090815260409020546001600160a01b031681565b6040516001600160a01b039091168152602001610166565b6101d77fc171260023d22a25a00a2789664c9334017843b831138c8ef03cc8897e5873d781565b604051908152602001610166565b61015a6101f3366004610fe9565b6103a5565b6101d7610206366004610fe9565b60036020526000908152604090205481565b6101d7610226366004611004565b60009081526020819052604090206001015490565b61015a610249366004610fe9565b6103b2565b6101d7601281565b61026961026436600461101d565b61040e565b005b61026961027936600461101d565b610438565b6101d7600160601b81565b61015a610297366004610fe9565b6104bb565b6101d77ff23ec0bb4210edd5cba85afd05127efcd2fc6a781bfed49188da1081670b22d881565b6101986102d1366004611049565b6104e7565b61015a6102e436600461101d565b610506565b6101d77f46a52cf33029de9f84853745a87af28464c80bf0346df1b32e205fc73319f62281565b6101d7600081565b6101d7610326366004610fe9565b61052f565b610333610605565b60405161016691906110af565b6101d761034e366004611004565b610616565b61026961036136600461101d565b61062d565b61026961037436600461116f565b610652565b6000610384826106fd565b8061039f57506001600160e01b031982166315d5220f60e31b145b92915050565b600061039f600483610722565b60006103de7ff23ec0bb4210edd5cba85afd05127efcd2fc6a781bfed49188da1081670b22d883610506565b8061039f575061039f7fc171260023d22a25a00a2789664c9334017843b831138c8ef03cc8897e5873d783610506565b60008281526020819052604090206001015461042981610744565b6104338383610751565b505050565b6001600160a01b03811633146104ad5760405162461bcd60e51b815260206004820152602f60248201527f416363657373436f6e74726f6c3a2063616e206f6e6c792072656e6f756e636560448201526e103937b632b9903337b91039b2b63360891b60648201526084015b60405180910390fd5b6104b78282610773565b5050565b600061039f7f46a52cf33029de9f84853745a87af28464c80bf0346df1b32e205fc73319f62283610506565b60008281526001602052604081206104ff9083610795565b9392505050565b6000918252602082815260408084206001600160a01b0393909316845291905290205460ff1690565b6001600160a01b03808216600090815260026020526040812054909116806105575750919050565b600080610563836107a1565b925090508061057457505050919050565b6001600160a01b038516600090815260036020526040902054600160128210156105bf576105a38260126111e9565b6105ae90600a6112e4565b6105b890856112f0565b93506105eb565b60128211156105eb576105d36012836111e9565b6105de90600a6112e4565b6105e890826112f0565b90505b6105fa84600160601b8361084e565b979650505050505050565b60606106116004610900565b905090565b600081815260016020526040812061039f9061090d565b60008281526020819052604090206001015461064881610744565b6104338383610773565b61065a610917565b6104b7828261093f565b60006104ff836001600160a01b038416610b2c565b6106838282610506565b6104b7576000828152602081815260408083206001600160a01b03851684529091529020805460ff191660011790556106b93390565b6001600160a01b0316816001600160a01b0316837f2f8788117e7eff1d82e926ec794901d17c78024a50270940304540a733656f0d60405160405180910390a45050565b60006001600160e01b03198216635a05180f60e01b148061039f575061039f82610b7b565b6001600160a01b038116600090815260018301602052604081205415156104ff565b61074e8133610bb0565b50565b61075b8282610679565b60008281526001602052604090206104339082610664565b61077d8282610c14565b60008281526001602052604090206104339082610c79565b60006104ff8383610c8e565b600080826001600160a01b031663feaf968c6040518163ffffffff1660e01b815260040160a060405180830381865afa9250505080156107fe575060408051601f3d908101601f191682019092526107fb91810190611329565b60015b61083e573d80801561082c576040519150601f19603f3d011682016040523d82523d6000602084013e610831565b606091505b5060009485945092505050565b5060019792965091945050505050565b6000808060001985870985870292508281108382030391505080600003610887576000841161087c57600080fd5b5082900490506104ff565b80841161089357600080fd5b6000848688096000868103871696879004966002600389028118808a02820302808a02820302808a02820302808a02820302808a02820302808a02909103029181900381900460010186841190950394909402919094039290920491909117919091029150509392505050565b606060006104ff83610cb8565b600061039f825490565b610920336103b2565b61093d57604051631dd2188d60e31b815260040160405180910390fd5b565b805182511461096157604051632a9ffab760e21b815260040160405180910390fd5b60005b8251811015610ae957600083828151811061098157610981611379565b60200260200101519050600083838151811061099f5761099f611379565b602002602001015190506109bd82600461066490919063ffffffff16565b506001600160a01b0382811660009081526002602090815260409182902080546001600160a01b0319169385169384179055815163313ce56760e01b8152915163313ce5679260048082019392918290030181865afa158015610a24573d6000803e3d6000fd5b505050506040513d601f19601f82011682018060405250810190610a48919061138f565b826001600160a01b031663313ce5676040518163ffffffff1660e01b8152600401602060405180830381865afa158015610a86573d6000803e3d6000fd5b505050506040513d601f19601f82011682018060405250810190610aaa919061138f565b610ab491906113b2565b6001600160a01b03909216600090815260036020526040902060ff929092169091555080610ae1816113d7565b915050610964565b50604051339032907fc1d6555f528e5483cb7c175a6c6b660c26c2a340b459268be1ae26c659c0e7b590610b2090869086906113f0565b60405180910390a35050565b6000818152600183016020526040812054610b735750815460018181018455600084815260208082209093018490558454848252828601909352604090209190915561039f565b50600061039f565b60006001600160e01b03198216637965db0b60e01b148061039f57506301ffc9a760e01b6001600160e01b031983161461039f565b610bba8282610506565b6104b757610bd2816001600160a01b03166014610d14565b610bdd836020610d14565b604051602001610bee92919061144e565b60408051601f198184030181529082905262461bcd60e51b82526104a4916004016114c3565b610c1e8282610506565b156104b7576000828152602081815260408083206001600160a01b0385168085529252808320805460ff1916905551339285917ff6391f5c32d9c69d2a47ea670b442974b53935d1edc7fd64eb21e047a839171b9190a45050565b60006104ff836001600160a01b038416610eb0565b6000826000018281548110610ca557610ca5611379565b9060005260206000200154905092915050565b606081600001805480602002602001604051908101604052809291908181526020018280548015610d0857602002820191906000526020600020905b815481526020019060010190808311610cf4575b50505050509050919050565b60606000610d238360026112f0565b610d2e9060026114f6565b67ffffffffffffffff811115610d4657610d466110c2565b6040519080825280601f01601f191660200182016040528015610d70576020820181803683370190505b509050600360fc1b81600081518110610d8b57610d8b611379565b60200101906001600160f81b031916908160001a905350600f60fb1b81600181518110610dba57610dba611379565b60200101906001600160f81b031916908160001a9053506000610dde8460026112f0565b610de99060016114f6565b90505b6001811115610e61576f181899199a1a9b1b9c1cb0b131b232b360811b85600f1660108110610e1d57610e1d611379565b1a60f81b828281518110610e3357610e33611379565b60200101906001600160f81b031916908160001a90535060049490941c93610e5a8161150e565b9050610dec565b5083156104ff5760405162461bcd60e51b815260206004820181905260248201527f537472696e67733a20686578206c656e67746820696e73756666696369656e7460448201526064016104a4565b60008181526001830160205260408120548015610f99576000610ed46001836111e9565b8554909150600090610ee8906001906111e9565b9050818114610f4d576000866000018281548110610f0857610f08611379565b9060005260206000200154905080876000018481548110610f2b57610f2b611379565b6000918252602080832090910192909255918252600188019052604090208390555b8554869080610f5e57610f5e611525565b60019003818190600052602060002001600090559055856001016000868152602001908152602001600020600090556001935050505061039f565b600091505061039f565b600060208284031215610fb557600080fd5b81356001600160e01b0319811681146104ff57600080fd5b80356001600160a01b0381168114610fe457600080fd5b919050565b600060208284031215610ffb57600080fd5b6104ff82610fcd565b60006020828403121561101657600080fd5b5035919050565b6000806040838503121561103057600080fd5b8235915061104060208401610fcd565b90509250929050565b6000806040838503121561105c57600080fd5b50508035926020909101359150565b600081518084526020808501945080840160005b838110156110a45781516001600160a01b03168752958201959082019060010161107f565b509495945050505050565b6020815260006104ff602083018461106b565b634e487b7160e01b600052604160045260246000fd5b600082601f8301126110e957600080fd5b8135602067ffffffffffffffff80831115611106576111066110c2565b8260051b604051601f19603f8301168101818110848211171561112b5761112b6110c2565b60405293845285810183019383810192508785111561114957600080fd5b83870191505b848210156105fa5761116082610fcd565b8352918301919083019061114f565b6000806040838503121561118257600080fd5b823567ffffffffffffffff8082111561119a57600080fd5b6111a6868387016110d8565b935060208501359150808211156111bc57600080fd5b506111c9858286016110d8565b9150509250929050565b634e487b7160e01b600052601160045260246000fd5b6000828210156111fb576111fb6111d3565b500390565b600181815b8085111561123b578160001904821115611221576112216111d3565b8085161561122e57918102915b93841c9390800290611205565b509250929050565b6000826112525750600161039f565b8161125f5750600061039f565b8160018114611275576002811461127f5761129b565b600191505061039f565b60ff841115611290576112906111d3565b50506001821b61039f565b5060208310610133831016604e8410600b84101617156112be575081810a61039f565b6112c88383611200565b80600019048211156112dc576112dc6111d3565b029392505050565b60006104ff8383611243565b600081600019048311821515161561130a5761130a6111d3565b500290565b805169ffffffffffffffffffff81168114610fe457600080fd5b600080600080600060a0868803121561134157600080fd5b61134a8661130f565b945060208601519350604086015192506060860151915061136d6080870161130f565b90509295509295909350565b634e487b7160e01b600052603260045260246000fd5b6000602082840312156113a157600080fd5b815160ff811681146104ff57600080fd5b600060ff821660ff84168060ff038211156113cf576113cf6111d3565b019392505050565b6000600182016113e9576113e96111d3565b5060010190565b604081526000611403604083018561106b565b8281036020840152611415818561106b565b95945050505050565b60005b83811015611439578181015183820152602001611421565b83811115611448576000848401525b50505050565b7f416363657373436f6e74726f6c3a206163636f756e742000000000000000000081526000835161148681601785016020880161141e565b7001034b99036b4b9b9b4b733903937b6329607d1b60179184019182015283516114b781602884016020880161141e565b01602801949350505050565b60208152600082518060208401526114e281604085016020870161141e565b601f01601f19169190910160400192915050565b60008219821115611509576115096111d3565b500190565b60008161151d5761151d6111d3565b506000190190565b634e487b7160e01b600052603160045260246000fdfea26469706673582212206d08ee0e3737aa63c7df9704ec1bc83e88dcd5bf0744febd7c3025dc9504741d64736f6c634300080d0033f23ec0bb4210edd5cba85afd05127efcd2fc6a781bfed49188da1081670b22d846a52cf33029de9f84853745a87af28464c80bf0346df1b32e205fc73319f622",
    "linkReferences": {}
  },
  "methodIdentifiers": {
    "ADMIN_DELEGATE_ROLE()": "0952ff54",
    "ADMIN_ROLE()": "75b238fc",
    "DECIMALS()": "2e0f2625",
    "DEFAULT_ADMIN_ROLE()": "a217fddf",
    "OPERATOR()": "983d2737",
    "Q96()": "40792465",
    "addChainlinkOracles(address[],address[])": "d892a360",
    "decimalsIndex(address)": "1e64e43a",
    "getRoleAdmin(bytes32)": "248a9ca3",
    "getRoleMember(bytes32,uint256)": "9010d07c",
    "getRoleMemberCount(bytes32)": "ca15c873",
    "grantRole(bytes32,address)": "2f2ff15d",
    "hasOracle(address)": "180c9309",
    "hasRole(bytes32,address)": "91d14854",
    "isAdmin(address)": "24d7806c",
    "isOperator(address)": "6d70f7ae",
    "oraclesIndex(address)": "03d14012",
    "price(address)": "aea91078",
    "renounceRole(bytes32,address)": "36568abe",
    "revokeRole(bytes32,address)": "d547741f",
    "supportedTokens()": "b002249d",
    "supportsInterface(bytes4)": "01ffc9a7"
  },
  "id": 40
}